{
  "address": "0x834C6bc8b88e1D13CDd1e37992255a7413bdf934",
  "abi": [
    {
      "inputs": [
        {
          "internalType": "contract IDiaOracle_old",
          "name": "diaOracle_",
          "type": "address"
        },
        {
          "internalType": "string",
          "name": "syntheticDiaFeed_",
          "type": "string"
        },
        {
          "internalType": "string",
          "name": "collateralDiaFeed_",
          "type": "string"
        },
        {
          "internalType": "contract ICoinGeckoOracle",
          "name": "coinGeckoOracle_",
          "type": "address"
        },
        {
          "internalType": "string",
          "name": "syntheticCoinGeckoFeed_",
          "type": "string"
        },
        {
          "internalType": "string",
          "name": "collateralCoinGeckoFeed_",
          "type": "string"
        }
      ],
      "stateMutability": "nonpayable",
      "type": "constructor"
    },
    {
      "inputs": [],
      "name": "DECIMAL_CORRECTION",
      "outputs": [
        {
          "internalType": "uint256",
          "name": "",
          "type": "uint256"
        }
      ],
      "stateMutability": "view",
      "type": "function"
    },
    {
      "inputs": [],
      "name": "WAD",
      "outputs": [
        {
          "internalType": "uint256",
          "name": "",
          "type": "uint256"
        }
      ],
      "stateMutability": "view",
      "type": "function"
    },
    {
      "inputs": [],
      "name": "coinGeckoOracle",
      "outputs": [
        {
          "internalType": "contract ICoinGeckoOracle",
          "name": "",
          "type": "address"
        }
      ],
      "stateMutability": "view",
      "type": "function"
    },
    {
      "inputs": [],
      "name": "collateralCoinGeckoFeed",
      "outputs": [
        {
          "internalType": "string",
          "name": "",
          "type": "string"
        }
      ],
      "stateMutability": "view",
      "type": "function"
    },
    {
      "inputs": [],
      "name": "collateralDiaFeed",
      "outputs": [
        {
          "internalType": "string",
          "name": "",
          "type": "string"
        }
      ],
      "stateMutability": "view",
      "type": "function"
    },
    {
      "inputs": [],
      "name": "diaOracle",
      "outputs": [
        {
          "internalType": "contract IDiaOracle_old",
          "name": "",
          "type": "address"
        }
      ],
      "stateMutability": "view",
      "type": "function"
    },
    {
      "inputs": [],
      "name": "latestPrice",
      "outputs": [
        {
          "internalType": "uint256",
          "name": "price",
          "type": "uint256"
        },
        {
          "internalType": "uint256",
          "name": "updateTime",
          "type": "uint256"
        }
      ],
      "stateMutability": "view",
      "type": "function"
    },
    {
      "inputs": [],
      "name": "refreshPrice",
      "outputs": [
        {
          "internalType": "uint256",
          "name": "price",
          "type": "uint256"
        },
        {
          "internalType": "uint256",
          "name": "updateTime",
          "type": "uint256"
        }
      ],
      "stateMutability": "nonpayable",
      "type": "function"
    },
    {
      "inputs": [],
      "name": "syntheticCoinGeckoFeed",
      "outputs": [
        {
          "internalType": "string",
          "name": "",
          "type": "string"
        }
      ],
      "stateMutability": "view",
      "type": "function"
    },
    {
      "inputs": [],
      "name": "syntheticDiaFeed",
      "outputs": [
        {
          "internalType": "string",
          "name": "",
          "type": "string"
        }
      ],
      "stateMutability": "view",
      "type": "function"
    }
  ],
  "transactionHash": "0xab4061330cca93dae009ac5af3c9a1aea0348d59dfdd04977940c4dad12f56fe",
  "args": [
    "0xb73db1A6a85219742fbd0fC7cc275c62209aA660",
    "Bitcoin",
    "Tether",
    "0x50e087d98A33cEB1CED159ad9255D6F228f2eF1C",
    "BTC",
    "USDT"
  ],
  "solcInputHash": "bae24d8ddd46bde1c9aecba3c2b57f70",
  "bytecode": "0x60c06040523480156200001157600080fd5b5060405162000d9c38038062000d9c833981016040819052620000349162000220565b6001600160601b0319606087811b821660805284901b1660a052845162000063906000906020880190620000b2565b50835162000079906001906020870190620000b2565b5081516200008f906002906020850190620000b2565b508051620000a5906003906020840190620000b2565b505050505050506200034c565b828054620000c090620002f9565b90600052602060002090601f016020900481019282620000e457600085556200012f565b82601f10620000ff57805160ff19168380011785556200012f565b828001600101855582156200012f579182015b828111156200012f57825182559160200191906001019062000112565b506200013d92915062000141565b5090565b5b808211156200013d576000815560010162000142565b80516001600160a01b03811681146200017057600080fd5b919050565b600082601f83011262000186578081fd5b81516001600160401b0380821115620001a357620001a362000336565b6040516020601f8401601f1916820181018381118382101715620001cb57620001cb62000336565b6040528382528584018101871015620001e2578485fd5b8492505b83831015620002055785830181015182840182015291820191620001e6565b838311156200021657848185840101525b5095945050505050565b60008060008060008060c0878903121562000239578182fd5b620002448762000158565b60208801519096506001600160401b038082111562000261578384fd5b6200026f8a838b0162000175565b9650604089015191508082111562000285578384fd5b620002938a838b0162000175565b9550620002a360608a0162000158565b94506080890151915080821115620002b9578384fd5b620002c78a838b0162000175565b935060a0890151915080821115620002dd578283fd5b50620002ec89828a0162000175565b9150509295509295509295565b6002810460018216806200030e57607f821691505b602082108114156200033057634e487b7160e01b600052602260045260246000fd5b50919050565b634e487b7160e01b600052604160045260246000fd5b60805160601c60a05160601c610a16620003866000396000818161023201526105520152600081816101e1015261047e0152610a166000f3fe608060405234801561001057600080fd5b50600436106100be5760003560e01c8063a346409a11610076578063d3203a7f1161005b578063d3203a7f14610139578063d5f1ca5b14610141578063dd64512714610149576100be565b8063a346409a14610129578063a3e6ba9414610131576100be565b80633c67a5b2116100a75780633c67a5b2146100f65780636a1460241461010c5780637d31fab114610121576100be565b80632b73e9d4146100c35780632ce773cd146100e1575b600080fd5b6100cb610151565b6040516100d89190610808565b60405180910390f35b6100e96101df565b6040516100d891906107e7565b6100fe610203565b6040516100d8929190610862565b610114610217565b6040516100d89190610859565b6100cb610223565b6100e9610230565b6100fe610254565b6100cb610452565b6100cb61045f565b61011461046c565b6001805461015e9061092e565b80601f016020809104026020016040519081016040528092919081815260200182805461018a9061092e565b80156101d75780601f106101ac576101008083540402835291602001916101d7565b820191906000526020600020905b8154815290600101906020018083116101ba57829003601f168201915b505050505081565b7f000000000000000000000000000000000000000000000000000000000000000081565b60008061020e610254565b90939092509050565b670de0b6b3a764000081565b6000805461015e9061092e565b7f000000000000000000000000000000000000000000000000000000000000000081565b6000806000806103786001805461026a9061092e565b80601f01602080910402602001604051908101604052809291908181526020018280546102969061092e565b80156102e35780601f106102b8576101008083540402835291602001916102e3565b820191906000526020600020905b8154815290600101906020018083116102c657829003601f168201915b5050505050600380546102f59061092e565b80601f01602080910402602001604051908101604052809291908181526020018280546103219061092e565b801561036e5780601f106103435761010080835404028352916020019161036e565b820191906000526020600020905b81548152906001019060200180831161035157829003601f168201915b5050505050610476565b9150915060008061041a6000805461038f9061092e565b80601f01602080910402602001604051908101604052809291908181526020018280546103bb9061092e565b80156104085780601f106103dd57610100808354040283529160200191610408565b820191906000526020600020905b8154815290600101906020018083116103eb57829003601f168201915b5050505050600280546102f59061092e565b909250905081610432670de0b6b3a7640000866108c1565b61043c9190610888565b95506104488382610699565b9450505050509091565b6003805461015e9061092e565b6002805461015e9061092e565b6509184e72a00081565b6000806000807f000000000000000000000000000000000000000000000000000000000000000073ffffffffffffffffffffffffffffffffffffffff1663e1221400876040518263ffffffff1660e01b81526004016104d59190610808565b60006040518083038186803b1580156104ed57600080fd5b505afa158015610501573d6000803e3d6000fd5b505050506040513d6000823e601f3d9081017fffffffffffffffffffffffffffffffffffffffffffffffffffffffffffffffe01682016040526105479190810190610709565b5092505091506000807f000000000000000000000000000000000000000000000000000000000000000073ffffffffffffffffffffffffffffffffffffffff1663960384a0886040518263ffffffff1660e01b81526004016105a99190610808565b604080518083038186803b1580156105c057600080fd5b505afa1580156105d4573d6000803e3d6000fd5b505050506040513d601f19601f820116820180604052508101906105f891906106d7565b6fffffffffffffffffffffffffffffffff1691506fffffffffffffffffffffffffffffffff1691508160001415610647576106396509184e72a000856108c1565b839550955050505050610692565b836106695761065c6509184e72a000836108c1565b9550935061069292505050565b60026106758584610870565b61067f9190610888565b6106898285610699565b95509550505050505b9250929050565b6000818310156106a957816106ab565b825b9392505050565b80516fffffffffffffffffffffffffffffffff811681146106d257600080fd5b919050565b600080604083850312156106e9578182fd5b6106f2836106b2565b9150610700602084016106b2565b90509250929050565b6000806000806080858703121561071e578182fd5b845193506020850151925060408501519150606085015167ffffffffffffffff8082111561074a578283fd5b818701915087601f83011261075d578283fd5b81518181111561076f5761076f6109b1565b60405160207fffffffffffffffffffffffffffffffffffffffffffffffffffffffffffffffe0601f84011682010181811084821117156107b1576107b16109b1565b6040528181528382016020018a10156107c8578485fd5b6107d98260208301602087016108fe565b969995985093965050505050565b73ffffffffffffffffffffffffffffffffffffffff91909116815260200190565b60006020825282518060208401526108278160408501602087016108fe565b601f017fffffffffffffffffffffffffffffffffffffffffffffffffffffffffffffffe0169190910160400192915050565b90815260200190565b918252602082015260400190565b6000821982111561088357610883610982565b500190565b6000826108bc577f4e487b710000000000000000000000000000000000000000000000000000000081526012600452602481fd5b500490565b6000817fffffffffffffffffffffffffffffffffffffffffffffffffffffffffffffffff04831182151516156108f9576108f9610982565b500290565b60005b83811015610919578181015183820152602001610901565b83811115610928576000848401525b50505050565b60028104600182168061094257607f821691505b6020821081141561097c577f4e487b7100000000000000000000000000000000000000000000000000000000600052602260045260246000fd5b50919050565b7f4e487b7100000000000000000000000000000000000000000000000000000000600052601160045260246000fd5b7f4e487b7100000000000000000000000000000000000000000000000000000000600052604160045260246000fdfea2646970667358221220d6365cda9a10624e2d5ff968925e4080fe5cb9fc7eb51bf8d6d12c16f193b7d764736f6c63430008000033",
  "devdoc": {
    "kind": "dev",
    "methods": {
      "latestPrice()": {
        "returns": {
          "price": "price"
        }
      }
    },
    "title": "DiaOracleAdapter",
    "version": 1
  },
  "userdoc": {
    "kind": "user",
    "methods": {
      "latestPrice()": {
        "notice": "Retrieve the latest price of the price diaOracle."
      }
    },
    "version": 1
  },
  "storageLayout": {
    "storage": [
      {
        "astId": 8912,
        "contract": "contracts/oracles/DiaOracleAdapter_Two.sol:DiaOracleAdapter_Two",
        "label": "syntheticDiaFeed",
        "offset": 0,
        "slot": "0",
        "type": "t_string_storage"
      },
      {
        "astId": 8914,
        "contract": "contracts/oracles/DiaOracleAdapter_Two.sol:DiaOracleAdapter_Two",
        "label": "collateralDiaFeed",
        "offset": 0,
        "slot": "1",
        "type": "t_string_storage"
      },
      {
        "astId": 8916,
        "contract": "contracts/oracles/DiaOracleAdapter_Two.sol:DiaOracleAdapter_Two",
        "label": "syntheticCoinGeckoFeed",
        "offset": 0,
        "slot": "2",
        "type": "t_string_storage"
      },
      {
        "astId": 8918,
        "contract": "contracts/oracles/DiaOracleAdapter_Two.sol:DiaOracleAdapter_Two",
        "label": "collateralCoinGeckoFeed",
        "offset": 0,
        "slot": "3",
        "type": "t_string_storage"
      }
    ],
    "types": {
      "t_string_storage": {
        "encoding": "bytes",
        "label": "string",
        "numberOfBytes": "32"
      }
    }
  }
}