{
  "address": "0xf933d3C7aB0839d90EE32A743feBAAb90D69Dc7b",
  "abi": [
    {
      "inputs": [
        {
          "internalType": "contract IDiaOracle_old",
          "name": "diaOracle_",
          "type": "address"
        },
        {
          "internalType": "string",
          "name": "syntheticDiaFeed_",
          "type": "string"
        },
        {
          "internalType": "string",
          "name": "collateralDiaFeed_",
          "type": "string"
        },
        {
          "internalType": "contract ICoinGeckoOracle",
          "name": "coinGeckoOracle_",
          "type": "address"
        },
        {
          "internalType": "string",
          "name": "syntheticCoinGeckoFeed_",
          "type": "string"
        },
        {
          "internalType": "string",
          "name": "collateralCoinGeckoFeed_",
          "type": "string"
        }
      ],
      "stateMutability": "nonpayable",
      "type": "constructor"
    },
    {
      "inputs": [],
      "name": "DECIMAL_CORRECTION",
      "outputs": [
        {
          "internalType": "uint256",
          "name": "",
          "type": "uint256"
        }
      ],
      "stateMutability": "view",
      "type": "function"
    },
    {
      "inputs": [],
      "name": "WAD",
      "outputs": [
        {
          "internalType": "uint256",
          "name": "",
          "type": "uint256"
        }
      ],
      "stateMutability": "view",
      "type": "function"
    },
    {
      "inputs": [],
      "name": "coinGeckoOracle",
      "outputs": [
        {
          "internalType": "contract ICoinGeckoOracle",
          "name": "",
          "type": "address"
        }
      ],
      "stateMutability": "view",
      "type": "function"
    },
    {
      "inputs": [],
      "name": "collateralCoinGeckoFeed",
      "outputs": [
        {
          "internalType": "string",
          "name": "",
          "type": "string"
        }
      ],
      "stateMutability": "view",
      "type": "function"
    },
    {
      "inputs": [],
      "name": "collateralDiaFeed",
      "outputs": [
        {
          "internalType": "string",
          "name": "",
          "type": "string"
        }
      ],
      "stateMutability": "view",
      "type": "function"
    },
    {
      "inputs": [],
      "name": "diaOracle",
      "outputs": [
        {
          "internalType": "contract IDiaOracle_old",
          "name": "",
          "type": "address"
        }
      ],
      "stateMutability": "view",
      "type": "function"
    },
    {
      "inputs": [],
      "name": "latestPrice",
      "outputs": [
        {
          "internalType": "uint256",
          "name": "price",
          "type": "uint256"
        },
        {
          "internalType": "uint256",
          "name": "updateTime",
          "type": "uint256"
        }
      ],
      "stateMutability": "view",
      "type": "function"
    },
    {
      "inputs": [],
      "name": "refreshPrice",
      "outputs": [
        {
          "internalType": "uint256",
          "name": "price",
          "type": "uint256"
        },
        {
          "internalType": "uint256",
          "name": "updateTime",
          "type": "uint256"
        }
      ],
      "stateMutability": "nonpayable",
      "type": "function"
    },
    {
      "inputs": [],
      "name": "syntheticCoinGeckoFeed",
      "outputs": [
        {
          "internalType": "string",
          "name": "",
          "type": "string"
        }
      ],
      "stateMutability": "view",
      "type": "function"
    },
    {
      "inputs": [],
      "name": "syntheticDiaFeed",
      "outputs": [
        {
          "internalType": "string",
          "name": "",
          "type": "string"
        }
      ],
      "stateMutability": "view",
      "type": "function"
    }
  ],
  "transactionHash": "0x3b0fa8f7f95636b24c329c0f0974e79d893489836d7a1ff9f97fc966b147e5fd",
  "args": [
    "0xb73db1A6a85219742fbd0fC7cc275c62209aA660",
    "Bitcoin",
    "Ethereum",
    "0x50e087d98A33cEB1CED159ad9255D6F228f2eF1C",
    "BTC",
    "ETH"
  ],
  "solcInputHash": "27abb232e9b35b8cf898bf6e00d961bf",
  "bytecode": "0x60c06040523480156200001157600080fd5b5060405162000e0d38038062000e0d833981016040819052620000349162000220565b6001600160601b0319606087811b821660805284901b1660a052845162000063906000906020880190620000b2565b50835162000079906001906020870190620000b2565b5081516200008f906002906020850190620000b2565b508051620000a5906003906020840190620000b2565b505050505050506200034c565b828054620000c090620002f9565b90600052602060002090601f016020900481019282620000e457600085556200012f565b82601f10620000ff57805160ff19168380011785556200012f565b828001600101855582156200012f579182015b828111156200012f57825182559160200191906001019062000112565b506200013d92915062000141565b5090565b5b808211156200013d576000815560010162000142565b80516001600160a01b03811681146200017057600080fd5b919050565b600082601f83011262000186578081fd5b81516001600160401b0380821115620001a357620001a362000336565b6040516020601f8401601f1916820181018381118382101715620001cb57620001cb62000336565b6040528382528584018101871015620001e2578485fd5b8492505b83831015620002055785830181015182840182015291820191620001e6565b838311156200021657848185840101525b5095945050505050565b60008060008060008060c0878903121562000239578182fd5b620002448762000158565b60208801519096506001600160401b038082111562000261578384fd5b6200026f8a838b0162000175565b9650604089015191508082111562000285578384fd5b620002938a838b0162000175565b9550620002a360608a0162000158565b94506080890151915080821115620002b9578384fd5b620002c78a838b0162000175565b935060a0890151915080821115620002dd578283fd5b50620002ec89828a0162000175565b9150509295509295509295565b6002810460018216806200030e57607f821691505b602082108114156200033057634e487b7160e01b600052602260045260246000fd5b50919050565b634e487b7160e01b600052604160045260246000fd5b60805160601c60a05160601c610a806200038d600039600081816102320152818161055201526106250152600081816101e1015261047e0152610a806000f3fe608060405234801561001057600080fd5b50600436106100be5760003560e01c8063a346409a11610076578063d3203a7f1161005b578063d3203a7f14610139578063d5f1ca5b14610141578063dd64512714610149576100be565b8063a346409a14610129578063a3e6ba9414610131576100be565b80633c67a5b2116100a75780633c67a5b2146100f65780636a1460241461010c5780637d31fab114610121576100be565b80632b73e9d4146100c35780632ce773cd146100e1575b600080fd5b6100cb610151565b6040516100d89190610894565b60405180910390f35b6100e96101df565b6040516100d89190610873565b6100fe610203565b6040516100d89291906108ee565b610114610217565b6040516100d891906108e5565b6100cb610223565b6100e9610230565b6100fe610254565b6100cb610452565b6100cb61045f565b61011461046c565b6001805461015e906109c7565b80601f016020809104026020016040519081016040528092919081815260200182805461018a906109c7565b80156101d75780601f106101ac576101008083540402835291602001916101d7565b820191906000526020600020905b8154815290600101906020018083116101ba57829003601f168201915b505050505081565b7f000000000000000000000000000000000000000000000000000000000000000081565b60008061020e610254565b90939092509050565b670de0b6b3a764000081565b6000805461015e906109c7565b7f000000000000000000000000000000000000000000000000000000000000000081565b6000806000806103786001805461026a906109c7565b80601f0160208091040260200160405190810160405280929190818152602001828054610296906109c7565b80156102e35780601f106102b8576101008083540402835291602001916102e3565b820191906000526020600020905b8154815290600101906020018083116102c657829003601f168201915b5050505050600380546102f5906109c7565b80601f0160208091040260200160405190810160405280929190818152602001828054610321906109c7565b801561036e5780601f106103435761010080835404028352916020019161036e565b820191906000526020600020905b81548152906001019060200180831161035157829003601f168201915b5050505050610476565b9150915060008061041a6000805461038f906109c7565b80601f01602080910402602001604051908101604052809291908181526020018280546103bb906109c7565b80156104085780601f106103dd57610100808354040283529160200191610408565b820191906000526020600020905b8154815290600101906020018083116103eb57829003601f168201915b5050505050600280546102f5906109c7565b909250905081610432670de0b6b3a764000086610935565b61043c91906108fc565b95506104488382610725565b9450505050509091565b6003805461015e906109c7565b6002805461015e906109c7565b6509184e72a00081565b6000806000807f000000000000000000000000000000000000000000000000000000000000000073ffffffffffffffffffffffffffffffffffffffff1663e1221400876040518263ffffffff1660e01b81526004016104d59190610894565b60006040518083038186803b1580156104ed57600080fd5b505afa158015610501573d6000803e3d6000fd5b505050506040513d6000823e601f3d9081017fffffffffffffffffffffffffffffffffffffffffffffffffffffffffffffffe01682016040526105479190810190610795565b5092505091506000807f000000000000000000000000000000000000000000000000000000000000000073ffffffffffffffffffffffffffffffffffffffff1663960384a0886040518263ffffffff1660e01b81526004016105a99190610894565b604080518083038186803b1580156105c057600080fd5b505afa1580156105d4573d6000803e3d6000fd5b505050506040513d601f19601f820116820180604052508101906105f89190610763565b6fffffffffffffffffffffffffffffffff1691506fffffffffffffffffffffffffffffffff1691506000807f000000000000000000000000000000000000000000000000000000000000000073ffffffffffffffffffffffffffffffffffffffff1663960384a08a6040518263ffffffff1660e01b815260040161067c9190610894565b604080518083038186803b15801561069357600080fd5b505afa1580156106a7573d6000803e3d6000fd5b505050506040513d601f19601f820116820180604052508101906106cb9190610763565b6fffffffffffffffffffffffffffffffff918216935016905083861182851187841180831461070e5781151583151514610706578484610709565b86865b610711565b88885b909e909d509b505050505050505050505050565b6000818310156107355781610737565b825b9392505050565b80516fffffffffffffffffffffffffffffffff8116811461075e57600080fd5b919050565b60008060408385031215610775578182fd5b61077e8361073e565b915061078c6020840161073e565b90509250929050565b600080600080608085870312156107aa578182fd5b845193506020850151925060408501519150606085015167ffffffffffffffff808211156107d6578283fd5b818701915087601f8301126107e9578283fd5b8151818111156107fb576107fb610a1b565b60405160207fffffffffffffffffffffffffffffffffffffffffffffffffffffffffffffffe0601f840116820101818110848211171561083d5761083d610a1b565b6040528181528382016020018a1015610854578485fd5b610865826020830160208701610997565b969995985093965050505050565b73ffffffffffffffffffffffffffffffffffffffff91909116815260200190565b60006020825282518060208401526108b3816040850160208701610997565b601f017fffffffffffffffffffffffffffffffffffffffffffffffffffffffffffffffe0169190910160400192915050565b90815260200190565b918252602082015260400190565b600082610930577f4e487b710000000000000000000000000000000000000000000000000000000081526012600452602481fd5b500490565b6000817fffffffffffffffffffffffffffffffffffffffffffffffffffffffffffffffff0483118215151615610992577f4e487b710000000000000000000000000000000000000000000000000000000081526011600452602481fd5b500290565b60005b838110156109b257818101518382015260200161099a565b838111156109c1576000848401525b50505050565b6002810460018216806109db57607f821691505b60208210811415610a15577f4e487b7100000000000000000000000000000000000000000000000000000000600052602260045260246000fd5b50919050565b7f4e487b7100000000000000000000000000000000000000000000000000000000600052604160045260246000fdfea2646970667358221220c17b0dbcbf80e9bbca9172184a352ce30cf41bc40e9a0f63e30e370e2c0010d164736f6c63430008000033",
  "devdoc": {
    "kind": "dev",
    "methods": {
      "latestPrice()": {
        "returns": {
          "price": "price"
        }
      }
    },
    "title": "DiaOracleAdapter",
    "version": 1
  },
  "userdoc": {
    "kind": "user",
    "methods": {
      "latestPrice()": {
        "notice": "Retrieve the latest price of the price diaOracle."
      }
    },
    "version": 1
  },
  "storageLayout": {
    "storage": [
      {
        "astId": 8665,
        "contract": "contracts/oracles/DiaOracleAdapter_Two.sol:DiaOracleAdapter_Two",
        "label": "syntheticDiaFeed",
        "offset": 0,
        "slot": "0",
        "type": "t_string_storage"
      },
      {
        "astId": 8667,
        "contract": "contracts/oracles/DiaOracleAdapter_Two.sol:DiaOracleAdapter_Two",
        "label": "collateralDiaFeed",
        "offset": 0,
        "slot": "1",
        "type": "t_string_storage"
      },
      {
        "astId": 8669,
        "contract": "contracts/oracles/DiaOracleAdapter_Two.sol:DiaOracleAdapter_Two",
        "label": "syntheticCoinGeckoFeed",
        "offset": 0,
        "slot": "2",
        "type": "t_string_storage"
      },
      {
        "astId": 8671,
        "contract": "contracts/oracles/DiaOracleAdapter_Two.sol:DiaOracleAdapter_Two",
        "label": "collateralCoinGeckoFeed",
        "offset": 0,
        "slot": "3",
        "type": "t_string_storage"
      }
    ],
    "types": {
      "t_string_storage": {
        "encoding": "bytes",
        "label": "string",
        "numberOfBytes": "32"
      }
    }
  }
}