{
  "address": "0xFFC7F646644B90a3fba3E6a90334F346DA4D5c19",
  "abi": [
    {
      "inputs": [
        {
          "internalType": "contract IDiaOracle_old",
          "name": "oracle_",
          "type": "address"
        },
        {
          "internalType": "string",
          "name": "syntheticFeed_",
          "type": "string"
        },
        {
          "internalType": "string",
          "name": "collateralFeed_",
          "type": "string"
        }
      ],
      "stateMutability": "nonpayable",
      "type": "constructor"
    },
    {
      "inputs": [],
      "name": "DECIMAL_CORRECTION",
      "outputs": [
        {
          "internalType": "uint256",
          "name": "",
          "type": "uint256"
        }
      ],
      "stateMutability": "view",
      "type": "function"
    },
    {
      "inputs": [],
      "name": "WAD",
      "outputs": [
        {
          "internalType": "uint256",
          "name": "",
          "type": "uint256"
        }
      ],
      "stateMutability": "view",
      "type": "function"
    },
    {
      "inputs": [],
      "name": "collateralFeed",
      "outputs": [
        {
          "internalType": "string",
          "name": "",
          "type": "string"
        }
      ],
      "stateMutability": "view",
      "type": "function"
    },
    {
      "inputs": [],
      "name": "latestPrice",
      "outputs": [
        {
          "internalType": "uint256",
          "name": "price",
          "type": "uint256"
        },
        {
          "internalType": "uint256",
          "name": "updateTime",
          "type": "uint256"
        }
      ],
      "stateMutability": "view",
      "type": "function"
    },
    {
      "inputs": [],
      "name": "oracle",
      "outputs": [
        {
          "internalType": "contract IDiaOracle_old",
          "name": "",
          "type": "address"
        }
      ],
      "stateMutability": "view",
      "type": "function"
    },
    {
      "inputs": [],
      "name": "refreshPrice",
      "outputs": [
        {
          "internalType": "uint256",
          "name": "price",
          "type": "uint256"
        },
        {
          "internalType": "uint256",
          "name": "updateTime",
          "type": "uint256"
        }
      ],
      "stateMutability": "nonpayable",
      "type": "function"
    },
    {
      "inputs": [],
      "name": "syntheticFeed",
      "outputs": [
        {
          "internalType": "string",
          "name": "",
          "type": "string"
        }
      ],
      "stateMutability": "view",
      "type": "function"
    }
  ],
  "transactionHash": "0x5f0344224646e56b4f6866a029b8658d894a9cb7f4006b1afdf8c7cedec8cf50",
  "args": [
    "0xb73db1A6a85219742fbd0fC7cc275c62209aA660",
    "Bitcoin",
    "Ethereum"
  ],
  "solcInputHash": "e6f8aa63829f140f9c8ffd82d60127db",
  "bytecode": "0x60a06040523480156200001157600080fd5b50604051620009ae380380620009ae8339810160408190526200003491620001cc565b6001600160601b0319606084901b1660805281516200005b9060009060208501906200007b565b508051620000719060019060208401906200007b565b50505050620002a5565b828054620000899062000252565b90600052602060002090601f016020900481019282620000ad5760008555620000f8565b82601f10620000c857805160ff1916838001178555620000f8565b82800160010185558215620000f8579182015b82811115620000f8578251825591602001919060010190620000db565b50620001069291506200010a565b5090565b5b808211156200010657600081556001016200010b565b600082601f83011262000132578081fd5b81516001600160401b03808211156200014f576200014f6200028f565b6040516020601f8401601f19168201810183811183821017156200017757620001776200028f565b60405283825285840181018710156200018e578485fd5b8492505b83831015620001b1578583018101518284018201529182019162000192565b83831115620001c257848185840101525b5095945050505050565b600080600060608486031215620001e1578283fd5b83516001600160a01b0381168114620001f8578384fd5b60208501519093506001600160401b038082111562000215578384fd5b620002238783880162000121565b9350604086015191508082111562000239578283fd5b50620002488682870162000121565b9150509250925092565b6002810460018216806200026757607f821691505b602082108114156200028957634e487b7160e01b600052602260045260246000fd5b50919050565b634e487b7160e01b600052604160045260246000fd5b60805160601c6106e3620002cb600039600081816101a801526102d001526106e36000f3fe608060405234801561001057600080fd5b506004361061007d5760003560e01c80637dc0d1d01161005b5780637dc0d1d0146100cb578063a3e6ba94146100e0578063c8aa4d05146100e8578063dd645127146100f05761007d565b806314139c62146100825780633c67a5b2146100a05780636a146024146100b6575b600080fd5b61008a6100f8565b60405161009791906104f7565b60405180910390f35b6100a8610186565b604051610097929190610551565b6100be61019a565b6040516100979190610548565b6100d36101a6565b60405161009791906104d6565b6100a86101ca565b61008a6102b1565b6100be6102be565b600180546101059061062a565b80601f01602080910402602001604051908101604052809291908181526020018280546101319061062a565b801561017e5780601f106101535761010080835404028352916020019161017e565b820191906000526020600020905b81548152906001019060200180831161016157829003601f168201915b505050505081565b6000806101916101ca565b90939092509050565b670de0b6b3a764000081565b7f000000000000000000000000000000000000000000000000000000000000000081565b600080600080610263600180546101e09061062a565b80601f016020809104026020016040519081016040528092919081815260200182805461020c9061062a565b80156102595780601f1061022e57610100808354040283529160200191610259565b820191906000526020600020905b81548152906001019060200180831161023c57829003601f168201915b50505050506102c8565b9150915060008061027a600080546101e09061062a565b909250905061029b8261029586670de0b6b3a76400006103c2565b906103d5565b95506102a783826103e1565b9450505050509091565b600080546101059061062a565b6509184e72a00081565b6000806000807f000000000000000000000000000000000000000000000000000000000000000073ffffffffffffffffffffffffffffffffffffffff1663e1221400866040518263ffffffff1660e01b815260040161032791906104f7565b60006040518083038186803b15801561033f57600080fd5b505afa158015610353573d6000803e3d6000fd5b505050506040513d6000823e601f3d9081017fffffffffffffffffffffffffffffffffffffffffffffffffffffffffffffffe016820160405261039991908101906103f8565b5092505091506103b86509184e72a000836103c290919063ffffffff16565b9350915050915091565b60006103ce8284610598565b9392505050565b60006103ce828461055f565b6000818310156103f157816103ce565b5090919050565b6000806000806080858703121561040d578384fd5b845193506020850151925060408501519150606085015167ffffffffffffffff80821115610439578283fd5b818701915087601f83011261044c578283fd5b81518181111561045e5761045e61067e565b60405160207fffffffffffffffffffffffffffffffffffffffffffffffffffffffffffffffe0601f84011682010181811084821117156104a0576104a061067e565b6040528181528382016020018a10156104b7578485fd5b6104c88260208301602087016105fa565b969995985093965050505050565b73ffffffffffffffffffffffffffffffffffffffff91909116815260200190565b60006020825282518060208401526105168160408501602087016105fa565b601f017fffffffffffffffffffffffffffffffffffffffffffffffffffffffffffffffe0169190910160400192915050565b90815260200190565b918252602082015260400190565b600082610593577f4e487b710000000000000000000000000000000000000000000000000000000081526012600452602481fd5b500490565b6000817fffffffffffffffffffffffffffffffffffffffffffffffffffffffffffffffff04831182151516156105f5577f4e487b710000000000000000000000000000000000000000000000000000000081526011600452602481fd5b500290565b60005b838110156106155781810151838201526020016105fd565b83811115610624576000848401525b50505050565b60028104600182168061063e57607f821691505b60208210811415610678577f4e487b7100000000000000000000000000000000000000000000000000000000600052602260045260246000fd5b50919050565b7f4e487b7100000000000000000000000000000000000000000000000000000000600052604160045260246000fdfea2646970667358221220cbf086b22a5ac75cf490be139bd3db148f4ceece01f74cfade5db8f2bf64d05964736f6c63430008000033",
  "devdoc": {
    "kind": "dev",
    "methods": {
      "latestPrice()": {
        "returns": {
          "price": "price"
        }
      }
    },
    "title": "DiaOracleAdapter",
    "version": 1
  },
  "userdoc": {
    "kind": "user",
    "methods": {
      "latestPrice()": {
        "notice": "Retrieve the latest price of the price oracle."
      }
    },
    "version": 1
  },
  "storageLayout": {
    "storage": [
      {
        "astId": 8561,
        "contract": "contracts/oracles/DiaOracleAdapter_old.sol:DiaOracleAdapter_old",
        "label": "syntheticFeed",
        "offset": 0,
        "slot": "0",
        "type": "t_string_storage"
      },
      {
        "astId": 8563,
        "contract": "contracts/oracles/DiaOracleAdapter_old.sol:DiaOracleAdapter_old",
        "label": "collateralFeed",
        "offset": 0,
        "slot": "1",
        "type": "t_string_storage"
      }
    ],
    "types": {
      "t_string_storage": {
        "encoding": "bytes",
        "label": "string",
        "numberOfBytes": "32"
      }
    }
  }
}