{
  "address": "0x3C824F2aa457e1d9a2be54e5DD62058A08e06aB7",
  "abi": [
    {
      "inputs": [
        {
          "internalType": "contract IUSM",
          "name": "usm_",
          "type": "address"
        },
        {
          "internalType": "address[]",
          "name": "optedOut_",
          "type": "address[]"
        },
        {
          "internalType": "string",
          "name": "name",
          "type": "string"
        },
        {
          "internalType": "string",
          "name": "symbol",
          "type": "string"
        }
      ],
      "stateMutability": "nonpayable",
      "type": "constructor"
    },
    {
      "anonymous": false,
      "inputs": [
        {
          "indexed": true,
          "internalType": "address",
          "name": "owner",
          "type": "address"
        },
        {
          "indexed": true,
          "internalType": "address",
          "name": "spender",
          "type": "address"
        },
        {
          "indexed": false,
          "internalType": "uint256",
          "name": "value",
          "type": "uint256"
        }
      ],
      "name": "Approval",
      "type": "event"
    },
    {
      "anonymous": false,
      "inputs": [
        {
          "indexed": true,
          "internalType": "address",
          "name": "previousOwner",
          "type": "address"
        },
        {
          "indexed": true,
          "internalType": "address",
          "name": "newOwner",
          "type": "address"
        }
      ],
      "name": "OwnershipTransferred",
      "type": "event"
    },
    {
      "anonymous": false,
      "inputs": [
        {
          "indexed": true,
          "internalType": "address",
          "name": "from",
          "type": "address"
        },
        {
          "indexed": true,
          "internalType": "address",
          "name": "to",
          "type": "address"
        },
        {
          "indexed": false,
          "internalType": "uint256",
          "name": "value",
          "type": "uint256"
        }
      ],
      "name": "Transfer",
      "type": "event"
    },
    {
      "inputs": [],
      "name": "DOMAIN_SEPARATOR",
      "outputs": [
        {
          "internalType": "bytes32",
          "name": "",
          "type": "bytes32"
        }
      ],
      "stateMutability": "view",
      "type": "function"
    },
    {
      "inputs": [],
      "name": "PERMIT_TYPEHASH",
      "outputs": [
        {
          "internalType": "bytes32",
          "name": "",
          "type": "bytes32"
        }
      ],
      "stateMutability": "view",
      "type": "function"
    },
    {
      "inputs": [
        {
          "internalType": "address",
          "name": "owner",
          "type": "address"
        },
        {
          "internalType": "address",
          "name": "spender",
          "type": "address"
        }
      ],
      "name": "allowance",
      "outputs": [
        {
          "internalType": "uint256",
          "name": "",
          "type": "uint256"
        }
      ],
      "stateMutability": "view",
      "type": "function"
    },
    {
      "inputs": [
        {
          "internalType": "address",
          "name": "spender",
          "type": "address"
        },
        {
          "internalType": "uint256",
          "name": "wad",
          "type": "uint256"
        }
      ],
      "name": "approve",
      "outputs": [
        {
          "internalType": "bool",
          "name": "",
          "type": "bool"
        }
      ],
      "stateMutability": "nonpayable",
      "type": "function"
    },
    {
      "inputs": [
        {
          "internalType": "address",
          "name": "guy",
          "type": "address"
        }
      ],
      "name": "balanceOf",
      "outputs": [
        {
          "internalType": "uint256",
          "name": "",
          "type": "uint256"
        }
      ],
      "stateMutability": "view",
      "type": "function"
    },
    {
      "inputs": [
        {
          "internalType": "address",
          "name": "_holder",
          "type": "address"
        },
        {
          "internalType": "uint256",
          "name": "_amount",
          "type": "uint256"
        }
      ],
      "name": "burn",
      "outputs": [],
      "stateMutability": "nonpayable",
      "type": "function"
    },
    {
      "inputs": [],
      "name": "decimals",
      "outputs": [
        {
          "internalType": "uint256",
          "name": "",
          "type": "uint256"
        }
      ],
      "stateMutability": "view",
      "type": "function"
    },
    {
      "inputs": [
        {
          "internalType": "address",
          "name": "_recipient",
          "type": "address"
        },
        {
          "internalType": "uint256",
          "name": "_amount",
          "type": "uint256"
        }
      ],
      "name": "mint",
      "outputs": [],
      "stateMutability": "nonpayable",
      "type": "function"
    },
    {
      "inputs": [],
      "name": "name",
      "outputs": [
        {
          "internalType": "string",
          "name": "",
          "type": "string"
        }
      ],
      "stateMutability": "view",
      "type": "function"
    },
    {
      "inputs": [
        {
          "internalType": "address",
          "name": "",
          "type": "address"
        }
      ],
      "name": "nonces",
      "outputs": [
        {
          "internalType": "uint256",
          "name": "",
          "type": "uint256"
        }
      ],
      "stateMutability": "view",
      "type": "function"
    },
    {
      "inputs": [],
      "name": "optBackIn",
      "outputs": [],
      "stateMutability": "nonpayable",
      "type": "function"
    },
    {
      "inputs": [],
      "name": "optOut",
      "outputs": [],
      "stateMutability": "nonpayable",
      "type": "function"
    },
    {
      "inputs": [
        {
          "internalType": "address",
          "name": "",
          "type": "address"
        }
      ],
      "name": "optedOut",
      "outputs": [
        {
          "internalType": "bool",
          "name": "",
          "type": "bool"
        }
      ],
      "stateMutability": "view",
      "type": "function"
    },
    {
      "inputs": [],
      "name": "owner",
      "outputs": [
        {
          "internalType": "address",
          "name": "",
          "type": "address"
        }
      ],
      "stateMutability": "view",
      "type": "function"
    },
    {
      "inputs": [
        {
          "internalType": "address",
          "name": "owner",
          "type": "address"
        },
        {
          "internalType": "address",
          "name": "spender",
          "type": "address"
        },
        {
          "internalType": "uint256",
          "name": "amount",
          "type": "uint256"
        },
        {
          "internalType": "uint256",
          "name": "deadline",
          "type": "uint256"
        },
        {
          "internalType": "uint8",
          "name": "v",
          "type": "uint8"
        },
        {
          "internalType": "bytes32",
          "name": "r",
          "type": "bytes32"
        },
        {
          "internalType": "bytes32",
          "name": "s",
          "type": "bytes32"
        }
      ],
      "name": "permit",
      "outputs": [],
      "stateMutability": "nonpayable",
      "type": "function"
    },
    {
      "inputs": [],
      "name": "renounceOwnership",
      "outputs": [],
      "stateMutability": "nonpayable",
      "type": "function"
    },
    {
      "inputs": [],
      "name": "symbol",
      "outputs": [
        {
          "internalType": "string",
          "name": "",
          "type": "string"
        }
      ],
      "stateMutability": "view",
      "type": "function"
    },
    {
      "inputs": [],
      "name": "totalSupply",
      "outputs": [
        {
          "internalType": "uint256",
          "name": "",
          "type": "uint256"
        }
      ],
      "stateMutability": "view",
      "type": "function"
    },
    {
      "inputs": [
        {
          "internalType": "address",
          "name": "dst",
          "type": "address"
        },
        {
          "internalType": "uint256",
          "name": "wad",
          "type": "uint256"
        }
      ],
      "name": "transfer",
      "outputs": [
        {
          "internalType": "bool",
          "name": "",
          "type": "bool"
        }
      ],
      "stateMutability": "nonpayable",
      "type": "function"
    },
    {
      "inputs": [
        {
          "internalType": "address",
          "name": "src",
          "type": "address"
        },
        {
          "internalType": "address",
          "name": "dst",
          "type": "address"
        },
        {
          "internalType": "uint256",
          "name": "wad",
          "type": "uint256"
        }
      ],
      "name": "transferFrom",
      "outputs": [
        {
          "internalType": "bool",
          "name": "",
          "type": "bool"
        }
      ],
      "stateMutability": "nonpayable",
      "type": "function"
    },
    {
      "inputs": [
        {
          "internalType": "address",
          "name": "newOwner",
          "type": "address"
        }
      ],
      "name": "transferOwnership",
      "outputs": [],
      "stateMutability": "nonpayable",
      "type": "function"
    },
    {
      "inputs": [],
      "name": "usm",
      "outputs": [
        {
          "internalType": "contract IUSM",
          "name": "",
          "type": "address"
        }
      ],
      "stateMutability": "view",
      "type": "function"
    },
    {
      "inputs": [],
      "name": "version",
      "outputs": [
        {
          "internalType": "string",
          "name": "",
          "type": "string"
        }
      ],
      "stateMutability": "pure",
      "type": "function"
    },
    {
      "stateMutability": "payable",
      "type": "receive"
    }
  ],
  "bytecode": "0x60126004556101006040819052600060e081905262000021916005916200022d565b507f6e71edae12b1b97f4d1f60370fef10105fa2faae0126114a169c64845d6126c96080523480156200005357600080fd5b5060405162001f6438038062001f64833981016040819052620000769162000364565b82828281818160059080519060200190620000939291906200022d565b508051620000a99060039060208401906200022d565b5050825160208401204691507f8b73c3c69bb8fe3d512ecc4cf759cc79239f7b179b0ffacaa9a75d522b39400f90620000e16200020e565b8051602091820120604051620000fe949392869130910162000487565b60408051601f19818403018152919052805160209091012060a0525060009150505b815181101562000198576001600760008484815181106200015157634e487b7160e01b600052603260045260246000fd5b6020908102919091018101516001600160a01b03168252810191909152604001600020805460ff1916911515919091179055806200018f816200051c565b91505062000120565b5060009050620001a762000229565b600880546001600160a01b0319166001600160a01b038316908117909155604051919250906000907f8be0079c531659141344cd1fd0a4f28419497f9722a3daafe3b4186f6b6457e0908290a35050505060601b6001600160601b03191660c05262000573565b6040805180820190915260018152603160f81b602082015290565b3390565b8280546200023b90620004df565b90600052602060002090601f0160209004810192826200025f5760008555620002aa565b82601f106200027a57805160ff1916838001178555620002aa565b82800160010185558215620002aa579182015b82811115620002aa5782518255916020019190600101906200028d565b50620002b8929150620002bc565b5090565b5b80821115620002b85760008155600101620002bd565b600082601f830112620002e4578081fd5b81516001600160401b0381111562000300576200030062000544565b602062000316601f8301601f19168201620004b3565b82815285828487010111156200032a578384fd5b835b83811015620003495785810183015182820184015282016200032c565b838111156200035a57848385840101525b5095945050505050565b600080600080608085870312156200037a578384fd5b845162000387816200055a565b602086810151919550906001600160401b0380821115620003a6578586fd5b818801915088601f830112620003ba578586fd5b815181811115620003cf57620003cf62000544565b838102620003df858201620004b3565b8281528581019085870183870188018e1015620003fa578a8bfd5b8a96505b848710156200042c578051935062000416846200055a565b83835260019690960195918701918701620003fe565b5060408c015190995095505050508083111562000447578485fd5b6200045589848a01620002d3565b945060608801519250808311156200046b578384fd5b50506200047b87828801620002d3565b91505092959194509250565b9485526020850193909352604084019190915260608301526001600160a01b0316608082015260a00190565b6040518181016001600160401b0381118282101715620004d757620004d762000544565b604052919050565b600281046001821680620004f457607f821691505b602082108114156200051657634e487b7160e01b600052602260045260246000fd5b50919050565b60006000198214156200053d57634e487b7160e01b81526011600452602481fd5b5060010190565b634e487b7160e01b600052604160045260246000fd5b6001600160a01b03811681146200057057600080fd5b50565b60805160a05160c05160601c61199b620005c96000396000818161018b015281816109c001528181610ed20152610f460152600081816106d20152610af30152600081816106a80152610a8c015261199b6000f3fe6080604052600436106101845760003560e01c8063715018a6116100d6578063a4800a751161007f578063d505accf11610059578063d505accf14610482578063dd62ed3e146104a2578063f2fde38b146104c257610242565b8063a4800a7514610438578063a9059cbb1461044d578063d4eec5a61461046d57610242565b80638da5cb5b116100b05780638da5cb5b146103e157806395d89b41146104035780639dc29fac1461041857610242565b8063715018a6146103975780637ecebe00146103ac57806382cf2145146103cc57610242565b8063313ce5671161013857806354fd4d501161011257806354fd4d50146103425780636cae7d0f1461035757806370a082311461037757610242565b8063313ce567146102f65780633644e5151461030b57806340c10f191461032057610242565b806318160ddd1161016957806318160ddd1461029f57806323b872dd146102c157806330adf81f146102e157610242565b806306fdde0314610247578063095ea7b31461027257610242565b36610242577f000000000000000000000000000000000000000000000000000000000000000073ffffffffffffffffffffffffffffffffffffffff16637b1837de34336101d0346104e2565b6040518463ffffffff1660e01b81526004016101ed92919061153d565b6020604051808303818588803b15801561020657600080fd5b505af115801561021a573d6000803e3d6000fd5b50505050506040513d601f19601f8201168201806040525081019061023f9190611498565b50005b600080fd5b34801561025357600080fd5b5061025c61052b565b60405161026991906115d6565b60405180910390f35b34801561027e57600080fd5b5061029261028d36600461146f565b6105b9565b6040516102699190611563565b3480156102ab57600080fd5b506102b46105cd565b604051610269919061156e565b3480156102cd57600080fd5b506102926102dc3660046113c3565b6105d3565b3480156102ed57600080fd5b506102b46106a6565b34801561030257600080fd5b506102b46106ca565b34801561031757600080fd5b506102b46106d0565b34801561032c57600080fd5b5061034061033b36600461146f565b6106f4565b005b34801561034e57600080fd5b5061025c610775565b34801561036357600080fd5b50610292610372366004611377565b6107ac565b34801561038357600080fd5b506102b4610392366004611377565b6107c1565b3480156103a357600080fd5b506103406107ed565b3480156103b857600080fd5b506102b46103c7366004611377565b6108cf565b3480156103d857600080fd5b506103406108e1565b3480156103ed57600080fd5b506103f6610918565b60405161026991906114e6565b34801561040f57600080fd5b5061025c610934565b34801561042457600080fd5b5061034061043336600461146f565b610941565b34801561044457600080fd5b506103f66109be565b34801561045957600080fd5b5061029261046836600461146f565b6109e2565b34801561047957600080fd5b506103406109ef565b34801561048e57600080fd5b5061034061049d3660046113fe565b610a29565b3480156104ae57600080fd5b506102b46104bd366004611391565b610c4c565b3480156104ce57600080fd5b506103406104dd366004611377565b610c84565b6000806104f464174876e800846118f3565b9050801580159061050757506298968081105b156105255760646105188285611818565b6105229190611804565b91505b50919050565b600580546105389061186c565b80601f01602080910402602001604051908101604052809291908181526020018280546105649061186c565b80156105b15780601f10610586576101008083540402835291602001916105b1565b820191906000526020600020905b81548152906001019060200180831161059457829003601f168201915b505050505081565b60006105c6338484610dd2565b9392505050565b60005490565b73ffffffffffffffffffffffffffffffffffffffff8316600081815260026020908152604080832033808552925282205491921480159061063457507fffffffffffffffffffffffffffffffffffffffffffffffffffffffffffffffff8114155b15610692578281101561067c576040517f08c379a0000000000000000000000000000000000000000000000000000000008152600401610673906116db565b60405180910390fd5b610690853361068b8685611855565b610dd2565b505b61069d858585610e4f565b95945050505050565b7f000000000000000000000000000000000000000000000000000000000000000081565b60045481565b7f000000000000000000000000000000000000000000000000000000000000000081565b6106fc61101b565b73ffffffffffffffffffffffffffffffffffffffff1661071a610918565b73ffffffffffffffffffffffffffffffffffffffff1614610767576040517f08c379a0000000000000000000000000000000000000000000000000000000008152600401610673906117b7565b610771828261101f565b5050565b60408051808201909152600181527f3100000000000000000000000000000000000000000000000000000000000000602082015290565b60076020526000908152604090205460ff1681565b73ffffffffffffffffffffffffffffffffffffffff81166000908152600160205260409020545b919050565b6107f561101b565b73ffffffffffffffffffffffffffffffffffffffff16610813610918565b73ffffffffffffffffffffffffffffffffffffffff1614610860576040517f08c379a0000000000000000000000000000000000000000000000000000000008152600401610673906117b7565b60085460405160009173ffffffffffffffffffffffffffffffffffffffff16907f8be0079c531659141344cd1fd0a4f28419497f9722a3daafe3b4186f6b6457e0908390a3600880547fffffffffffffffffffffffff0000000000000000000000000000000000000000169055565b60066020526000908152604090205481565b33600090815260076020526040902080547fffffffffffffffffffffffffffffffffffffffffffffffffffffffffffffff00169055565b60085473ffffffffffffffffffffffffffffffffffffffff1690565b600380546105389061186c565b61094961101b565b73ffffffffffffffffffffffffffffffffffffffff16610967610918565b73ffffffffffffffffffffffffffffffffffffffff16146109b4576040517f08c379a0000000000000000000000000000000000000000000000000000000008152600401610673906117b7565b61077182826110df565b7f000000000000000000000000000000000000000000000000000000000000000081565b60006105c6338484610e4f565b33600090815260076020526040902080547fffffffffffffffffffffffffffffffffffffffffffffffffffffffffffffff00166001179055565b42841015610a63576040517f08c379a0000000000000000000000000000000000000000000000000000000008152600401610673906116a4565b73ffffffffffffffffffffffffffffffffffffffff8716600090815260066020526040812080547f0000000000000000000000000000000000000000000000000000000000000000918a918a918a919086610abd836118ba565b9190505589604051602001610ad796959493929190611577565b60405160208183030381529060405280519060200120905060007f000000000000000000000000000000000000000000000000000000000000000082604051602001610b249291906114b0565b604051602081830303815290604052805190602001209050600060018287878760405160008152602001604052604051610b6194939291906115b8565b6020604051602081039080840390855afa158015610b83573d6000803e3d6000fd5b50506040517fffffffffffffffffffffffffffffffffffffffffffffffffffffffffffffffe0015191505073ffffffffffffffffffffffffffffffffffffffff811615801590610bfe57508973ffffffffffffffffffffffffffffffffffffffff168173ffffffffffffffffffffffffffffffffffffffff16145b610c34576040517f08c379a000000000000000000000000000000000000000000000000000000000815260040161067390611780565b610c3f8a8a8a610dd2565b5050505050505050505050565b73ffffffffffffffffffffffffffffffffffffffff918216600090815260026020908152604080832093909416825291909152205490565b610c8c61101b565b73ffffffffffffffffffffffffffffffffffffffff16610caa610918565b73ffffffffffffffffffffffffffffffffffffffff1614610cf7576040517f08c379a0000000000000000000000000000000000000000000000000000000008152600401610673906117b7565b73ffffffffffffffffffffffffffffffffffffffff8116610d44576040517f08c379a000000000000000000000000000000000000000000000000000000000815260040161067390611647565b60085460405173ffffffffffffffffffffffffffffffffffffffff8084169216907f8be0079c531659141344cd1fd0a4f28419497f9722a3daafe3b4186f6b6457e090600090a3600880547fffffffffffffffffffffffff00000000000000000000000000000000000000001673ffffffffffffffffffffffffffffffffffffffff92909216919091179055565b73ffffffffffffffffffffffffffffffffffffffff80841660008181526002602090815260408083209487168084529490915280822085905551909291907f8c5be1e5ebec7d5bd14f71427d1e84f3dd0314c0f7b2291e5b200ac8c7c3b92590610e3d90869061156e565b60405180910390a35060019392505050565b73ffffffffffffffffffffffffffffffffffffffff8216600090815260076020526040812054839060ff1615610eb1576040517f08c379a000000000000000000000000000000000000000000000000000000000815260040161067390611712565b73ffffffffffffffffffffffffffffffffffffffff8416301480610f2057507f000000000000000000000000000000000000000000000000000000000000000073ffffffffffffffffffffffffffffffffffffffff168473ffffffffffffffffffffffffffffffffffffffff16145b80610f3f575073ffffffffffffffffffffffffffffffffffffffff8416155b15611003577f000000000000000000000000000000000000000000000000000000000000000073ffffffffffffffffffffffffffffffffffffffff16639a4c6a9a868786610f8c886111f1565b6040518563ffffffff1660e01b8152600401610fab9493929190611507565b602060405180830381600087803b158015610fc557600080fd5b505af1158015610fd9573d6000803e3d6000fd5b505050506040513d601f19601f82011682018060405250810190610ffd9190611498565b50611010565b61100e858585611227565b505b506001949350505050565b3390565b73ffffffffffffffffffffffffffffffffffffffff82166000908152600160205260409020546110509082906117ec565b73ffffffffffffffffffffffffffffffffffffffff8316600090815260016020526040812091909155546110859082906117ec565b600090815560405173ffffffffffffffffffffffffffffffffffffffff841691907fddf252ad1be2c89b69c2b068fc378daa952ba7f163c4a11628f55a4df523b3ef906110d390859061156e565b60405180910390a35050565b73ffffffffffffffffffffffffffffffffffffffff821660009081526001602052604090205481111561113e576040517f08c379a000000000000000000000000000000000000000000000000000000000815260040161067390611749565b73ffffffffffffffffffffffffffffffffffffffff821660009081526001602052604090205461116f908290611855565b73ffffffffffffffffffffffffffffffffffffffff8316600090815260016020526040812091909155546111a4908290611855565b600090815560405173ffffffffffffffffffffffffffffffffffffffff8416907fddf252ad1be2c89b69c2b068fc378daa952ba7f163c4a11628f55a4df523b3ef906110d390859061156e565b60008061120364174876e800846118f3565b9050801580159061121657506298968081105b156105255780610518846064611818565b73ffffffffffffffffffffffffffffffffffffffff8316600090815260016020526040812054821115611286576040517f08c379a000000000000000000000000000000000000000000000000000000000815260040161067390611749565b73ffffffffffffffffffffffffffffffffffffffff84166000908152600160205260409020546112b7908390611855565b73ffffffffffffffffffffffffffffffffffffffff80861660009081526001602052604080822093909355908516815220546112f49083906117ec565b73ffffffffffffffffffffffffffffffffffffffff80851660008181526001602052604090819020939093559151908616907fddf252ad1be2c89b69c2b068fc378daa952ba7f163c4a11628f55a4df523b3ef90610e3d90869061156e565b803573ffffffffffffffffffffffffffffffffffffffff811681146107e857600080fd5b600060208284031215611388578081fd5b6105c682611353565b600080604083850312156113a3578081fd5b6113ac83611353565b91506113ba60208401611353565b90509250929050565b6000806000606084860312156113d7578081fd5b6113e084611353565b92506113ee60208501611353565b9150604084013590509250925092565b600080600080600080600060e0888a031215611418578283fd5b61142188611353565b965061142f60208901611353565b95506040880135945060608801359350608088013560ff81168114611452578384fd5b9699959850939692959460a0840135945060c09093013592915050565b60008060408385031215611481578182fd5b61148a83611353565b946020939093013593505050565b6000602082840312156114a9578081fd5b5051919050565b7f190100000000000000000000000000000000000000000000000000000000000081526002810192909252602282015260420190565b73ffffffffffffffffffffffffffffffffffffffff91909116815260200190565b73ffffffffffffffffffffffffffffffffffffffff94851681529290931660208301526040820152606081019190915260800190565b73ffffffffffffffffffffffffffffffffffffffff929092168252602082015260400190565b901515815260200190565b90815260200190565b95865273ffffffffffffffffffffffffffffffffffffffff94851660208701529290931660408501526060840152608083019190915260a082015260c00190565b93845260ff9290921660208401526040830152606082015260800190565b6000602080835283518082850152825b81811015611602578581018301518582016040015282016115e6565b818111156116135783604083870101525b50601f017fffffffffffffffffffffffffffffffffffffffffffffffffffffffffffffffe016929092016040019392505050565b60208082526026908201527f4f776e61626c653a206e6577206f776e657220697320746865207a65726f206160408201527f6464726573730000000000000000000000000000000000000000000000000000606082015260800190565b6020808252601d908201527f45524332305065726d69743a206578706972656420646561646c696e65000000604082015260600190565b6020808252601c908201527f45524332303a20496e73756666696369656e7420617070726f76616c00000000604082015260600190565b60208082526010908201527f546172676574206f70746564206f757400000000000000000000000000000000604082015260600190565b6020808252601b908201527f45524332303a20496e73756666696369656e742062616c616e63650000000000604082015260600190565b6020808252601e908201527f45524332305065726d69743a20696e76616c6964207369676e61747572650000604082015260600190565b6020808252818101527f4f776e61626c653a2063616c6c6572206973206e6f7420746865206f776e6572604082015260600190565b600082198211156117ff576117ff611907565b500190565b60008261181357611813611936565b500490565b6000817fffffffffffffffffffffffffffffffffffffffffffffffffffffffffffffffff048311821515161561185057611850611907565b500290565b60008282101561186757611867611907565b500390565b60028104600182168061188057607f821691505b60208210811415610525577f4e487b7100000000000000000000000000000000000000000000000000000000600052602260045260246000fd5b60007fffffffffffffffffffffffffffffffffffffffffffffffffffffffffffffffff8214156118ec576118ec611907565b5060010190565b60008261190257611902611936565b500690565b7f4e487b7100000000000000000000000000000000000000000000000000000000600052601160045260246000fd5b7f4e487b7100000000000000000000000000000000000000000000000000000000600052601260045260246000fdfea2646970667358221220804d1a328cd19cd12dfa5e9e0ec08d1e75328b2c44766e43d5e9c1bfcf245c2864736f6c63430008000033"
}