{
    "address": "0xB03ddd933E8e5114a0c3FbD9a0F4d26569A05FA1",
    "abi": [
        {
            "inputs": [
                {
                    "internalType": "string",
                    "name": "name",
                    "type": "string"
                },
                {
                    "internalType": "string",
                    "name": "symbol",
                    "type": "string"
                }
            ],
            "stateMutability": "nonpayable",
            "type": "constructor"
        },
        {
            "anonymous": false,
            "inputs": [
                {
                    "indexed": true,
                    "internalType": "address",
                    "name": "owner",
                    "type": "address"
                },
                {
                    "indexed": true,
                    "internalType": "address",
                    "name": "spender",
                    "type": "address"
                },
                {
                    "indexed": false,
                    "internalType": "uint256",
                    "name": "value",
                    "type": "uint256"
                }
            ],
            "name": "Approval",
            "type": "event"
        },
        {
            "anonymous": false,
            "inputs": [
                {
                    "indexed": true,
                    "internalType": "address",
                    "name": "previousOwner",
                    "type": "address"
                },
                {
                    "indexed": true,
                    "internalType": "address",
                    "name": "newOwner",
                    "type": "address"
                }
            ],
            "name": "OwnershipTransferred",
            "type": "event"
        },
        {
            "anonymous": false,
            "inputs": [
                {
                    "indexed": true,
                    "internalType": "address",
                    "name": "from",
                    "type": "address"
                },
                {
                    "indexed": true,
                    "internalType": "address",
                    "name": "to",
                    "type": "address"
                },
                {
                    "indexed": false,
                    "internalType": "uint256",
                    "name": "value",
                    "type": "uint256"
                }
            ],
            "name": "Transfer",
            "type": "event"
        },
        {
            "inputs": [
                {
                    "internalType": "address",
                    "name": "owner",
                    "type": "address"
                },
                {
                    "internalType": "address",
                    "name": "spender",
                    "type": "address"
                }
            ],
            "name": "allowance",
            "outputs": [
                {
                    "internalType": "uint256",
                    "name": "",
                    "type": "uint256"
                }
            ],
            "stateMutability": "view",
            "type": "function"
        },
        {
            "inputs": [
                {
                    "internalType": "address",
                    "name": "spender",
                    "type": "address"
                },
                {
                    "internalType": "uint256",
                    "name": "amount",
                    "type": "uint256"
                }
            ],
            "name": "approve",
            "outputs": [
                {
                    "internalType": "bool",
                    "name": "",
                    "type": "bool"
                }
            ],
            "stateMutability": "nonpayable",
            "type": "function"
        },
        {
            "inputs": [
                {
                    "internalType": "address",
                    "name": "account",
                    "type": "address"
                }
            ],
            "name": "balanceOf",
            "outputs": [
                {
                    "internalType": "uint256",
                    "name": "",
                    "type": "uint256"
                }
            ],
            "stateMutability": "view",
            "type": "function"
        },
        {
            "inputs": [],
            "name": "decimals",
            "outputs": [
                {
                    "internalType": "uint8",
                    "name": "",
                    "type": "uint8"
                }
            ],
            "stateMutability": "view",
            "type": "function"
        },
        {
            "inputs": [
                {
                    "internalType": "address",
                    "name": "spender",
                    "type": "address"
                },
                {
                    "internalType": "uint256",
                    "name": "subtractedValue",
                    "type": "uint256"
                }
            ],
            "name": "decreaseAllowance",
            "outputs": [
                {
                    "internalType": "bool",
                    "name": "",
                    "type": "bool"
                }
            ],
            "stateMutability": "nonpayable",
            "type": "function"
        },
        {
            "inputs": [
                {
                    "internalType": "address",
                    "name": "spender",
                    "type": "address"
                },
                {
                    "internalType": "uint256",
                    "name": "addedValue",
                    "type": "uint256"
                }
            ],
            "name": "increaseAllowance",
            "outputs": [
                {
                    "internalType": "bool",
                    "name": "",
                    "type": "bool"
                }
            ],
            "stateMutability": "nonpayable",
            "type": "function"
        },
        {
            "inputs": [
                {
                    "internalType": "address",
                    "name": "_to",
                    "type": "address"
                },
                {
                    "internalType": "uint256",
                    "name": "_amount",
                    "type": "uint256"
                }
            ],
            "name": "mint",
            "outputs": [],
            "stateMutability": "nonpayable",
            "type": "function"
        },
        {
            "inputs": [
                {
                    "internalType": "uint256",
                    "name": "_amount",
                    "type": "uint256"
                }
            ],
            "name": "mint",
            "outputs": [],
            "stateMutability": "nonpayable",
            "type": "function"
        },
        {
            "inputs": [],
            "name": "name",
            "outputs": [
                {
                    "internalType": "string",
                    "name": "",
                    "type": "string"
                }
            ],
            "stateMutability": "view",
            "type": "function"
        },
        {
            "inputs": [],
            "name": "owner",
            "outputs": [
                {
                    "internalType": "address",
                    "name": "",
                    "type": "address"
                }
            ],
            "stateMutability": "view",
            "type": "function"
        },
        {
            "inputs": [],
            "name": "renounceOwnership",
            "outputs": [],
            "stateMutability": "nonpayable",
            "type": "function"
        },
        {
            "inputs": [],
            "name": "symbol",
            "outputs": [
                {
                    "internalType": "string",
                    "name": "",
                    "type": "string"
                }
            ],
            "stateMutability": "view",
            "type": "function"
        },
        {
            "inputs": [],
            "name": "totalSupply",
            "outputs": [
                {
                    "internalType": "uint256",
                    "name": "",
                    "type": "uint256"
                }
            ],
            "stateMutability": "view",
            "type": "function"
        },
        {
            "inputs": [
                {
                    "internalType": "address",
                    "name": "recipient",
                    "type": "address"
                },
                {
                    "internalType": "uint256",
                    "name": "amount",
                    "type": "uint256"
                }
            ],
            "name": "transfer",
            "outputs": [
                {
                    "internalType": "bool",
                    "name": "",
                    "type": "bool"
                }
            ],
            "stateMutability": "nonpayable",
            "type": "function"
        },
        {
            "inputs": [
                {
                    "internalType": "address",
                    "name": "sender",
                    "type": "address"
                },
                {
                    "internalType": "address",
                    "name": "recipient",
                    "type": "address"
                },
                {
                    "internalType": "uint256",
                    "name": "amount",
                    "type": "uint256"
                }
            ],
            "name": "transferFrom",
            "outputs": [
                {
                    "internalType": "bool",
                    "name": "",
                    "type": "bool"
                }
            ],
            "stateMutability": "nonpayable",
            "type": "function"
        },
        {
            "inputs": [
                {
                    "internalType": "address",
                    "name": "newOwner",
                    "type": "address"
                }
            ],
            "name": "transferOwnership",
            "outputs": [],
            "stateMutability": "nonpayable",
            "type": "function"
        }
    ],
    "transactionHash": "0x59ab30ebe313408aeca3d9e20cfc537b605c640e09d839d0da524172718d8f48",
    "args": [
        "Tether",
        "USDT"
    ],
    "solcInputHash": "bae24d8ddd46bde1c9aecba3c2b57f70",
    "bytecode": "0x60806040523480156200001157600080fd5b506040516200155938038062001559833981016040819052620000349162000223565b8151829082906200004d906003906020850190620000d2565b50805162000063906004906020840190620000d2565b505050600062000078620000ce60201b60201c565b600580546001600160a01b0319166001600160a01b038316908117909155604051919250906000907f8be0079c531659141344cd1fd0a4f28419497f9722a3daafe3b4186f6b6457e0908290a3505050620002dd565b3390565b828054620000e0906200028a565b90600052602060002090601f0160209004810192826200010457600085556200014f565b82601f106200011f57805160ff19168380011785556200014f565b828001600101855582156200014f579182015b828111156200014f57825182559160200191906001019062000132565b506200015d92915062000161565b5090565b5b808211156200015d576000815560010162000162565b600082601f83011262000189578081fd5b81516001600160401b0380821115620001a657620001a6620002c7565b6040516020601f8401601f1916820181018381118382101715620001ce57620001ce620002c7565b6040528382528584018101871015620001e5578485fd5b8492505b83831015620002085785830181015182840182015291820191620001e9565b838311156200021957848185840101525b5095945050505050565b6000806040838503121562000236578182fd5b82516001600160401b03808211156200024d578384fd5b6200025b8683870162000178565b9350602085015191508082111562000271578283fd5b50620002808582860162000178565b9150509250929050565b6002810460018216806200029f57607f821691505b60208210811415620002c157634e487b7160e01b600052602260045260246000fd5b50919050565b634e487b7160e01b600052604160045260246000fd5b61126c80620002ed6000396000f3fe608060405234801561001057600080fd5b50600436106101005760003560e01c8063715018a611610097578063a457c2d711610066578063a457c2d7146101f3578063a9059cbb14610206578063dd62ed3e14610219578063f2fde38b1461022c57610100565b8063715018a6146101bb5780638da5cb5b146101c357806395d89b41146101d8578063a0712d68146101e057610100565b8063313ce567116100d3578063313ce5671461016b578063395093511461018057806340c10f191461019357806370a08231146101a857610100565b806306fdde0314610105578063095ea7b31461012357806318160ddd1461014357806323b872dd14610158575b600080fd5b61010d61023f565b60405161011a9190610da8565b60405180910390f35b610136610131366004610d3b565b6102d1565b60405161011a9190610d9d565b61014b6102ee565b60405161011a919061116d565b610136610166366004610d00565b6102f4565b6101736103d5565b60405161011a9190611176565b61013661018e366004610d3b565b6103da565b6101a66101a1366004610d3b565b610436565b005b61014b6101b6366004610cad565b6104b7565b6101a66104e3565b6101cb6105c5565b60405161011a9190610d7c565b61010d6105e1565b6101a66101ee366004610d64565b6105f0565b610136610201366004610d3b565b610670565b610136610214366004610d3b565b610712565b61014b610227366004610cce565b610726565b6101a661023a366004610cad565b61075e565b60606003805461024e906111b3565b80601f016020809104026020016040519081016040528092919081815260200182805461027a906111b3565b80156102c75780601f1061029c576101008083540402835291602001916102c7565b820191906000526020600020905b8154815290600101906020018083116102aa57829003601f168201915b5050505050905090565b60006102e56102de6108ac565b84846108b0565b50600192915050565b60025490565b60006103018484846109bf565b73ffffffffffffffffffffffffffffffffffffffff841660009081526001602052604081208161032f6108ac565b73ffffffffffffffffffffffffffffffffffffffff1673ffffffffffffffffffffffffffffffffffffffff168152602001908152602001600020549050828110156103af576040517f08c379a00000000000000000000000000000000000000000000000000000000081526004016103a690610f8d565b60405180910390fd5b6103ca856103bb6108ac565b6103c5868561119c565b6108b0565b506001949350505050565b601290565b60006102e56103e76108ac565b8484600160006103f56108ac565b73ffffffffffffffffffffffffffffffffffffffff908116825260208083019390935260409182016000908120918b16815292529020546103c59190611184565b61043e6108ac565b73ffffffffffffffffffffffffffffffffffffffff1661045c6105c5565b73ffffffffffffffffffffffffffffffffffffffff16146104a9576040517f08c379a00000000000000000000000000000000000000000000000000000000081526004016103a690610fea565b6104b38282610b83565b5050565b73ffffffffffffffffffffffffffffffffffffffff81166000908152602081905260409020545b919050565b6104eb6108ac565b73ffffffffffffffffffffffffffffffffffffffff166105096105c5565b73ffffffffffffffffffffffffffffffffffffffff1614610556576040517f08c379a00000000000000000000000000000000000000000000000000000000081526004016103a690610fea565b60055460405160009173ffffffffffffffffffffffffffffffffffffffff16907f8be0079c531659141344cd1fd0a4f28419497f9722a3daafe3b4186f6b6457e0908390a3600580547fffffffffffffffffffffffff0000000000000000000000000000000000000000169055565b60055473ffffffffffffffffffffffffffffffffffffffff1690565b60606004805461024e906111b3565b6105f86108ac565b73ffffffffffffffffffffffffffffffffffffffff166106166105c5565b73ffffffffffffffffffffffffffffffffffffffff1614610663576040517f08c379a00000000000000000000000000000000000000000000000000000000081526004016103a690610fea565b61066d3382610b83565b50565b6000806001600061067f6108ac565b73ffffffffffffffffffffffffffffffffffffffff908116825260208083019390935260409182016000908120918816815292529020549050828110156106f2576040517f08c379a00000000000000000000000000000000000000000000000000000000081526004016103a6906110d9565b6107086106fd6108ac565b856103c5868561119c565b5060019392505050565b60006102e561071f6108ac565b84846109bf565b73ffffffffffffffffffffffffffffffffffffffff918216600090815260016020908152604080832093909416825291909152205490565b6107666108ac565b73ffffffffffffffffffffffffffffffffffffffff166107846105c5565b73ffffffffffffffffffffffffffffffffffffffff16146107d1576040517f08c379a00000000000000000000000000000000000000000000000000000000081526004016103a690610fea565b73ffffffffffffffffffffffffffffffffffffffff811661081e576040517f08c379a00000000000000000000000000000000000000000000000000000000081526004016103a690610e76565b60055460405173ffffffffffffffffffffffffffffffffffffffff8084169216907f8be0079c531659141344cd1fd0a4f28419497f9722a3daafe3b4186f6b6457e090600090a3600580547fffffffffffffffffffffffff00000000000000000000000000000000000000001673ffffffffffffffffffffffffffffffffffffffff92909216919091179055565b3390565b73ffffffffffffffffffffffffffffffffffffffff83166108fd576040517f08c379a00000000000000000000000000000000000000000000000000000000081526004016103a69061107c565b73ffffffffffffffffffffffffffffffffffffffff821661094a576040517f08c379a00000000000000000000000000000000000000000000000000000000081526004016103a690610ed3565b73ffffffffffffffffffffffffffffffffffffffff80841660008181526001602090815260408083209487168084529490915290819020849055517f8c5be1e5ebec7d5bd14f71427d1e84f3dd0314c0f7b2291e5b200ac8c7c3b925906109b290859061116d565b60405180910390a3505050565b73ffffffffffffffffffffffffffffffffffffffff8316610a0c576040517f08c379a00000000000000000000000000000000000000000000000000000000081526004016103a69061101f565b73ffffffffffffffffffffffffffffffffffffffff8216610a59576040517f08c379a00000000000000000000000000000000000000000000000000000000081526004016103a690610e19565b610a64838383610c84565b73ffffffffffffffffffffffffffffffffffffffff831660009081526020819052604090205481811015610ac4576040517f08c379a00000000000000000000000000000000000000000000000000000000081526004016103a690610f30565b610ace828261119c565b73ffffffffffffffffffffffffffffffffffffffff8086166000908152602081905260408082209390935590851681529081208054849290610b11908490611184565b925050819055508273ffffffffffffffffffffffffffffffffffffffff168473ffffffffffffffffffffffffffffffffffffffff167fddf252ad1be2c89b69c2b068fc378daa952ba7f163c4a11628f55a4df523b3ef84604051610b75919061116d565b60405180910390a350505050565b73ffffffffffffffffffffffffffffffffffffffff8216610bd0576040517f08c379a00000000000000000000000000000000000000000000000000000000081526004016103a690611136565b610bdc60008383610c84565b8060026000828254610bee9190611184565b909155505073ffffffffffffffffffffffffffffffffffffffff821660009081526020819052604081208054839290610c28908490611184565b909155505060405173ffffffffffffffffffffffffffffffffffffffff8316906000907fddf252ad1be2c89b69c2b068fc378daa952ba7f163c4a11628f55a4df523b3ef90610c7890859061116d565b60405180910390a35050565b505050565b803573ffffffffffffffffffffffffffffffffffffffff811681146104de57600080fd5b600060208284031215610cbe578081fd5b610cc782610c89565b9392505050565b60008060408385031215610ce0578081fd5b610ce983610c89565b9150610cf760208401610c89565b90509250929050565b600080600060608486031215610d14578081fd5b610d1d84610c89565b9250610d2b60208501610c89565b9150604084013590509250925092565b60008060408385031215610d4d578182fd5b610d5683610c89565b946020939093013593505050565b600060208284031215610d75578081fd5b5035919050565b73ffffffffffffffffffffffffffffffffffffffff91909116815260200190565b901515815260200190565b6000602080835283518082850152825b81811015610dd457858101830151858201604001528201610db8565b81811115610de55783604083870101525b50601f017fffffffffffffffffffffffffffffffffffffffffffffffffffffffffffffffe016929092016040019392505050565b60208082526023908201527f45524332303a207472616e7366657220746f20746865207a65726f206164647260408201527f6573730000000000000000000000000000000000000000000000000000000000606082015260800190565b60208082526026908201527f4f776e61626c653a206e6577206f776e657220697320746865207a65726f206160408201527f6464726573730000000000000000000000000000000000000000000000000000606082015260800190565b60208082526022908201527f45524332303a20617070726f766520746f20746865207a65726f20616464726560408201527f7373000000000000000000000000000000000000000000000000000000000000606082015260800190565b60208082526026908201527f45524332303a207472616e7366657220616d6f756e742065786365656473206260408201527f616c616e63650000000000000000000000000000000000000000000000000000606082015260800190565b60208082526028908201527f45524332303a207472616e7366657220616d6f756e742065786365656473206160408201527f6c6c6f77616e6365000000000000000000000000000000000000000000000000606082015260800190565b6020808252818101527f4f776e61626c653a2063616c6c6572206973206e6f7420746865206f776e6572604082015260600190565b60208082526025908201527f45524332303a207472616e736665722066726f6d20746865207a65726f20616460408201527f6472657373000000000000000000000000000000000000000000000000000000606082015260800190565b60208082526024908201527f45524332303a20617070726f76652066726f6d20746865207a65726f2061646460408201527f7265737300000000000000000000000000000000000000000000000000000000606082015260800190565b60208082526025908201527f45524332303a2064656372656173656420616c6c6f77616e63652062656c6f7760408201527f207a65726f000000000000000000000000000000000000000000000000000000606082015260800190565b6020808252601f908201527f45524332303a206d696e7420746f20746865207a65726f206164647265737300604082015260600190565b90815260200190565b60ff91909116815260200190565b6000821982111561119757611197611207565b500190565b6000828210156111ae576111ae611207565b500390565b6002810460018216806111c757607f821691505b60208210811415611201577f4e487b7100000000000000000000000000000000000000000000000000000000600052602260045260246000fd5b50919050565b7f4e487b7100000000000000000000000000000000000000000000000000000000600052601160045260246000fdfea264697066735822122055cfab65e3f83bd869a076a82091b7c73063890e5a47a1fb27b615f32b2294b664736f6c63430008000033",
    "devdoc": {
        "kind": "dev",
        "methods": {
            "allowance(address,address)": {
                "details": "See {IERC20-allowance}."
            },
            "approve(address,uint256)": {
                "details": "See {IERC20-approve}. Requirements: - `spender` cannot be the zero address."
            },
            "balanceOf(address)": {
                "details": "See {IERC20-balanceOf}."
            },
            "decimals()": {
                "details": "Returns the number of decimals used to get its user representation. For example, if `decimals` equals `2`, a balance of `505` tokens should be displayed to a user as `5,05` (`505 / 10 ** 2`). Tokens usually opt for a value of 18, imitating the relationship between Ether and Wei. This is the value {ERC20} uses, unless this function is overloaded; NOTE: This information is only used for _display_ purposes: it in no way affects any of the arithmetic of the contract, including {IERC20-balanceOf} and {IERC20-transfer}."
            },
            "decreaseAllowance(address,uint256)": {
                "details": "Atomically decreases the allowance granted to `spender` by the caller. This is an alternative to {approve} that can be used as a mitigation for problems described in {IERC20-approve}. Emits an {Approval} event indicating the updated allowance. Requirements: - `spender` cannot be the zero address. - `spender` must have allowance for the caller of at least `subtractedValue`."
            },
            "increaseAllowance(address,uint256)": {
                "details": "Atomically increases the allowance granted to `spender` by the caller. This is an alternative to {approve} that can be used as a mitigation for problems described in {IERC20-approve}. Emits an {Approval} event indicating the updated allowance. Requirements: - `spender` cannot be the zero address."
            },
            "name()": {
                "details": "Returns the name of the token."
            },
            "owner()": {
                "details": "Returns the address of the current owner."
            },
            "renounceOwnership()": {
                "details": "Leaves the contract without owner. It will not be possible to call `onlyOwner` functions anymore. Can only be called by the current owner. NOTE: Renouncing ownership will leave the contract without an owner, thereby removing any functionality that is only available to the owner."
            },
            "symbol()": {
                "details": "Returns the symbol of the token, usually a shorter version of the name."
            },
            "totalSupply()": {
                "details": "See {IERC20-totalSupply}."
            },
            "transfer(address,uint256)": {
                "details": "See {IERC20-transfer}. Requirements: - `recipient` cannot be the zero address. - the caller must have a balance of at least `amount`."
            },
            "transferFrom(address,address,uint256)": {
                "details": "See {IERC20-transferFrom}. Emits an {Approval} event indicating the updated allowance. This is not required by the EIP. See the note at the beginning of {ERC20}. Requirements: - `sender` and `recipient` cannot be the zero address. - `sender` must have a balance of at least `amount`. - the caller must have allowance for ``sender``'s tokens of at least `amount`."
            },
            "transferOwnership(address)": {
                "details": "Transfers ownership of the contract to a new account (`newOwner`). Can only be called by the current owner."
            }
        },
        "version": 1
    },
    "userdoc": {
        "kind": "user",
        "methods": {},
        "version": 1
    },
    "storageLayout": {
        "storage": [
            {
                "astId": 168,
                "contract": "contracts/mocks/MockToken.sol:MockToken",
                "label": "_balances",
                "offset": 0,
                "slot": "0",
                "type": "t_mapping(t_address,t_uint256)"
            },
            {
                "astId": 174,
                "contract": "contracts/mocks/MockToken.sol:MockToken",
                "label": "_allowances",
                "offset": 0,
                "slot": "1",
                "type": "t_mapping(t_address,t_mapping(t_address,t_uint256))"
            },
            {
                "astId": 176,
                "contract": "contracts/mocks/MockToken.sol:MockToken",
                "label": "_totalSupply",
                "offset": 0,
                "slot": "2",
                "type": "t_uint256"
            },
            {
                "astId": 178,
                "contract": "contracts/mocks/MockToken.sol:MockToken",
                "label": "_name",
                "offset": 0,
                "slot": "3",
                "type": "t_string_storage"
            },
            {
                "astId": 180,
                "contract": "contracts/mocks/MockToken.sol:MockToken",
                "label": "_symbol",
                "offset": 0,
                "slot": "4",
                "type": "t_string_storage"
            },
            {
                "astId": 53,
                "contract": "contracts/mocks/MockToken.sol:MockToken",
                "label": "_owner",
                "offset": 0,
                "slot": "5",
                "type": "t_address"
            }
        ],
        "types": {
            "t_address": {
                "encoding": "inplace",
                "label": "address",
                "numberOfBytes": "20"
            },
            "t_mapping(t_address,t_mapping(t_address,t_uint256))": {
                "encoding": "mapping",
                "key": "t_address",
                "label": "mapping(address => mapping(address => uint256))",
                "numberOfBytes": "32",
                "value": "t_mapping(t_address,t_uint256)"
            },
            "t_mapping(t_address,t_uint256)": {
                "encoding": "mapping",
                "key": "t_address",
                "label": "mapping(address => uint256)",
                "numberOfBytes": "32",
                "value": "t_uint256"
            },
            "t_string_storage": {
                "encoding": "bytes",
                "label": "string",
                "numberOfBytes": "32"
            },
            "t_uint256": {
                "encoding": "inplace",
                "label": "uint256",
                "numberOfBytes": "32"
            }
        }
    }
}