{
  "address": "0x790A0e77EF04ccEc4c79E10cbf5e8810F756C017",
  "abi": [
    {
      "inputs": [
        {
          "internalType": "contract DiaOracleAdapter",
          "name": "oracle_",
          "type": "address"
        },
        {
          "internalType": "address[]",
          "name": "optOut_",
          "type": "address[]"
        },
        {
          "internalType": "string",
          "name": "syntheticFeed_",
          "type": "string"
        }
      ],
      "stateMutability": "nonpayable",
      "type": "constructor"
    },
    {
      "anonymous": false,
      "inputs": [
        {
          "indexed": true,
          "internalType": "address",
          "name": "owner",
          "type": "address"
        },
        {
          "indexed": true,
          "internalType": "address",
          "name": "spender",
          "type": "address"
        },
        {
          "indexed": false,
          "internalType": "uint256",
          "name": "value",
          "type": "uint256"
        }
      ],
      "name": "Approval",
      "type": "event"
    },
    {
      "anonymous": false,
      "inputs": [
        {
          "indexed": false,
          "internalType": "uint256",
          "name": "adjustment",
          "type": "uint256"
        }
      ],
      "name": "BidAskAdjustmentChanged",
      "type": "event"
    },
    {
      "anonymous": false,
      "inputs": [
        {
          "indexed": true,
          "internalType": "address",
          "name": "user",
          "type": "address"
        },
        {
          "indexed": true,
          "internalType": "address",
          "name": "delegate",
          "type": "address"
        },
        {
          "indexed": false,
          "internalType": "bool",
          "name": "enabled",
          "type": "bool"
        }
      ],
      "name": "Delegate",
      "type": "event"
    },
    {
      "anonymous": false,
      "inputs": [
        {
          "indexed": false,
          "internalType": "uint256",
          "name": "timestamp",
          "type": "uint256"
        },
        {
          "indexed": false,
          "internalType": "uint256",
          "name": "price",
          "type": "uint256"
        }
      ],
      "name": "PriceChanged",
      "type": "event"
    },
    {
      "anonymous": false,
      "inputs": [
        {
          "indexed": true,
          "internalType": "address",
          "name": "from",
          "type": "address"
        },
        {
          "indexed": true,
          "internalType": "address",
          "name": "to",
          "type": "address"
        },
        {
          "indexed": false,
          "internalType": "uint256",
          "name": "value",
          "type": "uint256"
        }
      ],
      "name": "Transfer",
      "type": "event"
    },
    {
      "anonymous": false,
      "inputs": [
        {
          "indexed": false,
          "internalType": "bool",
          "name": "underwater",
          "type": "bool"
        }
      ],
      "name": "UnderwaterStatusChanged",
      "type": "event"
    },
    {
      "inputs": [],
      "name": "BID_ASK_ADJUSTMENT_DECAY_PER_SECOND",
      "outputs": [
        {
          "internalType": "uint256",
          "name": "",
          "type": "uint256"
        }
      ],
      "stateMutability": "view",
      "type": "function"
    },
    {
      "inputs": [],
      "name": "BID_ASK_ADJUSTMENT_ZERO_OUT_PERIOD",
      "outputs": [
        {
          "internalType": "uint256",
          "name": "",
          "type": "uint256"
        }
      ],
      "stateMutability": "view",
      "type": "function"
    },
    {
      "inputs": [],
      "name": "BILLION",
      "outputs": [
        {
          "internalType": "uint256",
          "name": "",
          "type": "uint256"
        }
      ],
      "stateMutability": "view",
      "type": "function"
    },
    {
      "inputs": [],
      "name": "DELEGABLE_DOMAIN",
      "outputs": [
        {
          "internalType": "bytes32",
          "name": "",
          "type": "bytes32"
        }
      ],
      "stateMutability": "view",
      "type": "function"
    },
    {
      "inputs": [],
      "name": "DOMAIN_SEPARATOR",
      "outputs": [
        {
          "internalType": "bytes32",
          "name": "",
          "type": "bytes32"
        }
      ],
      "stateMutability": "view",
      "type": "function"
    },
    {
      "inputs": [],
      "name": "FOUR_WAD",
      "outputs": [
        {
          "internalType": "uint256",
          "name": "",
          "type": "uint256"
        }
      ],
      "stateMutability": "view",
      "type": "function"
    },
    {
      "inputs": [],
      "name": "HALF_BILLION",
      "outputs": [
        {
          "internalType": "uint256",
          "name": "",
          "type": "uint256"
        }
      ],
      "stateMutability": "view",
      "type": "function"
    },
    {
      "inputs": [],
      "name": "MAX_DEBT_RATIO",
      "outputs": [
        {
          "internalType": "uint256",
          "name": "",
          "type": "uint256"
        }
      ],
      "stateMutability": "view",
      "type": "function"
    },
    {
      "inputs": [],
      "name": "MIN_FUM_BUY_PRICE_DECAY_PER_SECOND",
      "outputs": [
        {
          "internalType": "uint256",
          "name": "",
          "type": "uint256"
        }
      ],
      "stateMutability": "view",
      "type": "function"
    },
    {
      "inputs": [],
      "name": "PERMIT_TYPEHASH",
      "outputs": [
        {
          "internalType": "bytes32",
          "name": "",
          "type": "bytes32"
        }
      ],
      "stateMutability": "view",
      "type": "function"
    },
    {
      "inputs": [],
      "name": "SIGNATURE_TYPEHASH",
      "outputs": [
        {
          "internalType": "bytes32",
          "name": "",
          "type": "bytes32"
        }
      ],
      "stateMutability": "view",
      "type": "function"
    },
    {
      "inputs": [],
      "name": "WAD",
      "outputs": [
        {
          "internalType": "uint256",
          "name": "",
          "type": "uint256"
        }
      ],
      "stateMutability": "view",
      "type": "function"
    },
    {
      "inputs": [
        {
          "internalType": "address",
          "name": "delegate",
          "type": "address"
        }
      ],
      "name": "addDelegate",
      "outputs": [],
      "stateMutability": "nonpayable",
      "type": "function"
    },
    {
      "inputs": [
        {
          "internalType": "address",
          "name": "user",
          "type": "address"
        },
        {
          "internalType": "address",
          "name": "delegate",
          "type": "address"
        },
        {
          "internalType": "uint256",
          "name": "deadline",
          "type": "uint256"
        },
        {
          "internalType": "uint8",
          "name": "v",
          "type": "uint8"
        },
        {
          "internalType": "bytes32",
          "name": "r",
          "type": "bytes32"
        },
        {
          "internalType": "bytes32",
          "name": "s",
          "type": "bytes32"
        }
      ],
      "name": "addDelegateBySignature",
      "outputs": [],
      "stateMutability": "nonpayable",
      "type": "function"
    },
    {
      "inputs": [
        {
          "internalType": "enum IUSM.Side",
          "name": "side",
          "type": "uint8"
        },
        {
          "internalType": "uint256",
          "name": "ethUsdPrice",
          "type": "uint256"
        },
        {
          "internalType": "uint256",
          "name": "adjustment",
          "type": "uint256"
        }
      ],
      "name": "adjustedEthUsdPrice",
      "outputs": [
        {
          "internalType": "uint256",
          "name": "price",
          "type": "uint256"
        }
      ],
      "stateMutability": "pure",
      "type": "function"
    },
    {
      "inputs": [
        {
          "internalType": "address",
          "name": "owner",
          "type": "address"
        },
        {
          "internalType": "address",
          "name": "spender",
          "type": "address"
        }
      ],
      "name": "allowance",
      "outputs": [
        {
          "internalType": "uint256",
          "name": "",
          "type": "uint256"
        }
      ],
      "stateMutability": "view",
      "type": "function"
    },
    {
      "inputs": [
        {
          "internalType": "address",
          "name": "spender",
          "type": "address"
        },
        {
          "internalType": "uint256",
          "name": "wad",
          "type": "uint256"
        }
      ],
      "name": "approve",
      "outputs": [
        {
          "internalType": "bool",
          "name": "",
          "type": "bool"
        }
      ],
      "stateMutability": "nonpayable",
      "type": "function"
    },
    {
      "inputs": [
        {
          "internalType": "address",
          "name": "guy",
          "type": "address"
        }
      ],
      "name": "balanceOf",
      "outputs": [
        {
          "internalType": "uint256",
          "name": "",
          "type": "uint256"
        }
      ],
      "stateMutability": "view",
      "type": "function"
    },
    {
      "inputs": [
        {
          "internalType": "uint256",
          "name": "storedTime",
          "type": "uint256"
        },
        {
          "internalType": "uint256",
          "name": "storedAdjustment",
          "type": "uint256"
        },
        {
          "internalType": "uint256",
          "name": "currentTime",
          "type": "uint256"
        }
      ],
      "name": "bidAskAdjustment",
      "outputs": [
        {
          "internalType": "uint256",
          "name": "adjustment",
          "type": "uint256"
        }
      ],
      "stateMutability": "pure",
      "type": "function"
    },
    {
      "inputs": [],
      "name": "bidAskAdjustment",
      "outputs": [
        {
          "internalType": "uint256",
          "name": "adjustment",
          "type": "uint256"
        }
      ],
      "stateMutability": "view",
      "type": "function"
    },
    {
      "inputs": [
        {
          "internalType": "address",
          "name": "from",
          "type": "address"
        },
        {
          "internalType": "address payable",
          "name": "to",
          "type": "address"
        },
        {
          "internalType": "uint256",
          "name": "usmToBurn",
          "type": "uint256"
        },
        {
          "internalType": "uint256",
          "name": "minEthOut",
          "type": "uint256"
        }
      ],
      "name": "burn",
      "outputs": [
        {
          "internalType": "uint256",
          "name": "ethOut",
          "type": "uint256"
        }
      ],
      "stateMutability": "nonpayable",
      "type": "function"
    },
    {
      "inputs": [
        {
          "internalType": "uint256",
          "name": "usmActualSupply",
          "type": "uint256"
        },
        {
          "internalType": "uint256",
          "name": "ethPool_",
          "type": "uint256"
        },
        {
          "internalType": "uint256",
          "name": "ethUsdPrice",
          "type": "uint256"
        },
        {
          "internalType": "uint256",
          "name": "oldTimeUnderwater",
          "type": "uint256"
        },
        {
          "internalType": "uint256",
          "name": "currentTime",
          "type": "uint256"
        }
      ],
      "name": "checkIfUnderwater",
      "outputs": [
        {
          "internalType": "uint256",
          "name": "timeSystemWentUnderwater_",
          "type": "uint256"
        },
        {
          "internalType": "uint256",
          "name": "usmSupplyForFumBuys",
          "type": "uint256"
        },
        {
          "internalType": "uint256",
          "name": "debtRatio_",
          "type": "uint256"
        }
      ],
      "stateMutability": "pure",
      "type": "function"
    },
    {
      "inputs": [
        {
          "internalType": "uint256",
          "name": "ethUsdPrice",
          "type": "uint256"
        },
        {
          "internalType": "uint256",
          "name": "ethInPool",
          "type": "uint256"
        },
        {
          "internalType": "uint256",
          "name": "usmSupply",
          "type": "uint256"
        }
      ],
      "name": "debtRatio",
      "outputs": [
        {
          "internalType": "uint256",
          "name": "ratio",
          "type": "uint256"
        }
      ],
      "stateMutability": "pure",
      "type": "function"
    },
    {
      "inputs": [],
      "name": "decimals",
      "outputs": [
        {
          "internalType": "uint256",
          "name": "",
          "type": "uint256"
        }
      ],
      "stateMutability": "view",
      "type": "function"
    },
    {
      "inputs": [
        {
          "internalType": "address",
          "name": "from",
          "type": "address"
        },
        {
          "internalType": "address payable",
          "name": "to",
          "type": "address"
        },
        {
          "internalType": "uint256",
          "name": "fumToBurn",
          "type": "uint256"
        },
        {
          "internalType": "uint256",
          "name": "minEthOut",
          "type": "uint256"
        }
      ],
      "name": "defund",
      "outputs": [
        {
          "internalType": "uint256",
          "name": "ethOut",
          "type": "uint256"
        }
      ],
      "stateMutability": "nonpayable",
      "type": "function"
    },
    {
      "inputs": [
        {
          "internalType": "address",
          "name": "",
          "type": "address"
        },
        {
          "internalType": "address",
          "name": "",
          "type": "address"
        }
      ],
      "name": "delegated",
      "outputs": [
        {
          "internalType": "bool",
          "name": "",
          "type": "bool"
        }
      ],
      "stateMutability": "view",
      "type": "function"
    },
    {
      "inputs": [
        {
          "internalType": "uint256",
          "name": "ethUsdPrice",
          "type": "uint256"
        },
        {
          "internalType": "uint256",
          "name": "ethInPool",
          "type": "uint256"
        },
        {
          "internalType": "uint256",
          "name": "usmSupply",
          "type": "uint256"
        },
        {
          "internalType": "bool",
          "name": "roundUp",
          "type": "bool"
        }
      ],
      "name": "ethBuffer",
      "outputs": [
        {
          "internalType": "int256",
          "name": "buffer",
          "type": "int256"
        }
      ],
      "stateMutability": "pure",
      "type": "function"
    },
    {
      "inputs": [
        {
          "components": [
            {
              "internalType": "uint256",
              "name": "timeSystemWentUnderwater",
              "type": "uint256"
            },
            {
              "internalType": "uint256",
              "name": "ethUsdPriceTimestamp",
              "type": "uint256"
            },
            {
              "internalType": "uint256",
              "name": "ethUsdPrice",
              "type": "uint256"
            },
            {
              "internalType": "uint256",
              "name": "bidAskAdjustmentTimestamp",
              "type": "uint256"
            },
            {
              "internalType": "uint256",
              "name": "bidAskAdjustment",
              "type": "uint256"
            },
            {
              "internalType": "uint256",
              "name": "ethPool",
              "type": "uint256"
            },
            {
              "internalType": "uint256",
              "name": "usmTotalSupply",
              "type": "uint256"
            }
          ],
          "internalType": "struct USMTemplate.LoadedState",
          "name": "ls",
          "type": "tuple"
        },
        {
          "internalType": "uint256",
          "name": "usmIn",
          "type": "uint256"
        }
      ],
      "name": "ethFromBurn",
      "outputs": [
        {
          "internalType": "uint256",
          "name": "ethOut",
          "type": "uint256"
        },
        {
          "internalType": "uint256",
          "name": "adjGrowthFactor",
          "type": "uint256"
        }
      ],
      "stateMutability": "pure",
      "type": "function"
    },
    {
      "inputs": [
        {
          "components": [
            {
              "internalType": "uint256",
              "name": "timeSystemWentUnderwater",
              "type": "uint256"
            },
            {
              "internalType": "uint256",
              "name": "ethUsdPriceTimestamp",
              "type": "uint256"
            },
            {
              "internalType": "uint256",
              "name": "ethUsdPrice",
              "type": "uint256"
            },
            {
              "internalType": "uint256",
              "name": "bidAskAdjustmentTimestamp",
              "type": "uint256"
            },
            {
              "internalType": "uint256",
              "name": "bidAskAdjustment",
              "type": "uint256"
            },
            {
              "internalType": "uint256",
              "name": "ethPool",
              "type": "uint256"
            },
            {
              "internalType": "uint256",
              "name": "usmTotalSupply",
              "type": "uint256"
            }
          ],
          "internalType": "struct USMTemplate.LoadedState",
          "name": "ls",
          "type": "tuple"
        },
        {
          "internalType": "uint256",
          "name": "fumSupply",
          "type": "uint256"
        },
        {
          "internalType": "uint256",
          "name": "fumIn",
          "type": "uint256"
        }
      ],
      "name": "ethFromDefund",
      "outputs": [
        {
          "internalType": "uint256",
          "name": "ethOut",
          "type": "uint256"
        },
        {
          "internalType": "uint256",
          "name": "adjShrinkFactor",
          "type": "uint256"
        }
      ],
      "stateMutability": "pure",
      "type": "function"
    },
    {
      "inputs": [],
      "name": "ethPool",
      "outputs": [
        {
          "internalType": "uint256",
          "name": "pool",
          "type": "uint256"
        }
      ],
      "stateMutability": "view",
      "type": "function"
    },
    {
      "inputs": [
        {
          "internalType": "uint256",
          "name": "ethUsdPrice",
          "type": "uint256"
        },
        {
          "internalType": "uint256",
          "name": "ethAmount",
          "type": "uint256"
        }
      ],
      "name": "ethToFum",
      "outputs": [
        {
          "internalType": "uint256",
          "name": "fumOut",
          "type": "uint256"
        }
      ],
      "stateMutability": "view",
      "type": "function"
    },
    {
      "inputs": [
        {
          "internalType": "uint256",
          "name": "ethUsdPrice",
          "type": "uint256"
        },
        {
          "internalType": "uint256",
          "name": "ethAmount",
          "type": "uint256"
        },
        {
          "internalType": "bool",
          "name": "roundUp",
          "type": "bool"
        }
      ],
      "name": "ethToUsm",
      "outputs": [
        {
          "internalType": "uint256",
          "name": "usmOut",
          "type": "uint256"
        }
      ],
      "stateMutability": "pure",
      "type": "function"
    },
    {
      "inputs": [],
      "name": "fum",
      "outputs": [
        {
          "internalType": "contract FUM",
          "name": "",
          "type": "address"
        }
      ],
      "stateMutability": "view",
      "type": "function"
    },
    {
      "inputs": [
        {
          "components": [
            {
              "internalType": "uint256",
              "name": "timeSystemWentUnderwater",
              "type": "uint256"
            },
            {
              "internalType": "uint256",
              "name": "ethUsdPriceTimestamp",
              "type": "uint256"
            },
            {
              "internalType": "uint256",
              "name": "ethUsdPrice",
              "type": "uint256"
            },
            {
              "internalType": "uint256",
              "name": "bidAskAdjustmentTimestamp",
              "type": "uint256"
            },
            {
              "internalType": "uint256",
              "name": "bidAskAdjustment",
              "type": "uint256"
            },
            {
              "internalType": "uint256",
              "name": "ethPool",
              "type": "uint256"
            },
            {
              "internalType": "uint256",
              "name": "usmTotalSupply",
              "type": "uint256"
            }
          ],
          "internalType": "struct USMTemplate.LoadedState",
          "name": "ls",
          "type": "tuple"
        },
        {
          "internalType": "uint256",
          "name": "fumSupply",
          "type": "uint256"
        },
        {
          "internalType": "uint256",
          "name": "ethIn",
          "type": "uint256"
        },
        {
          "internalType": "uint256",
          "name": "debtRatio_",
          "type": "uint256"
        }
      ],
      "name": "fumFromFund",
      "outputs": [
        {
          "internalType": "uint256",
          "name": "fumOut",
          "type": "uint256"
        },
        {
          "internalType": "uint256",
          "name": "adjGrowthFactor",
          "type": "uint256"
        }
      ],
      "stateMutability": "pure",
      "type": "function"
    },
    {
      "inputs": [
        {
          "internalType": "enum IUSM.Side",
          "name": "side",
          "type": "uint8"
        },
        {
          "internalType": "uint256",
          "name": "ethUsdPrice",
          "type": "uint256"
        },
        {
          "internalType": "uint256",
          "name": "ethInPool",
          "type": "uint256"
        },
        {
          "internalType": "uint256",
          "name": "usmEffectiveSupply",
          "type": "uint256"
        },
        {
          "internalType": "uint256",
          "name": "fumSupply",
          "type": "uint256"
        }
      ],
      "name": "fumPrice",
      "outputs": [
        {
          "internalType": "uint256",
          "name": "price",
          "type": "uint256"
        }
      ],
      "stateMutability": "pure",
      "type": "function"
    },
    {
      "inputs": [
        {
          "internalType": "uint256",
          "name": "fumAmount",
          "type": "uint256"
        }
      ],
      "name": "fumToEth",
      "outputs": [
        {
          "internalType": "uint256",
          "name": "ethOut",
          "type": "uint256"
        }
      ],
      "stateMutability": "view",
      "type": "function"
    },
    {
      "inputs": [],
      "name": "fumTotalSupply",
      "outputs": [
        {
          "internalType": "uint256",
          "name": "supply",
          "type": "uint256"
        }
      ],
      "stateMutability": "view",
      "type": "function"
    },
    {
      "inputs": [
        {
          "internalType": "address",
          "name": "to",
          "type": "address"
        },
        {
          "internalType": "uint256",
          "name": "minFumOut",
          "type": "uint256"
        }
      ],
      "name": "fund",
      "outputs": [
        {
          "internalType": "uint256",
          "name": "fumOut",
          "type": "uint256"
        }
      ],
      "stateMutability": "payable",
      "type": "function"
    },
    {
      "inputs": [],
      "name": "latestOraclePrice",
      "outputs": [
        {
          "internalType": "uint256",
          "name": "price",
          "type": "uint256"
        },
        {
          "internalType": "uint256",
          "name": "updateTime",
          "type": "uint256"
        }
      ],
      "stateMutability": "view",
      "type": "function"
    },
    {
      "inputs": [],
      "name": "latestPrice",
      "outputs": [
        {
          "internalType": "uint256",
          "name": "price",
          "type": "uint256"
        },
        {
          "internalType": "uint256",
          "name": "updateTime",
          "type": "uint256"
        }
      ],
      "stateMutability": "view",
      "type": "function"
    },
    {
      "inputs": [],
      "name": "loadState",
      "outputs": [
        {
          "components": [
            {
              "internalType": "uint256",
              "name": "timeSystemWentUnderwater",
              "type": "uint256"
            },
            {
              "internalType": "uint256",
              "name": "ethUsdPriceTimestamp",
              "type": "uint256"
            },
            {
              "internalType": "uint256",
              "name": "ethUsdPrice",
              "type": "uint256"
            },
            {
              "internalType": "uint256",
              "name": "bidAskAdjustmentTimestamp",
              "type": "uint256"
            },
            {
              "internalType": "uint256",
              "name": "bidAskAdjustment",
              "type": "uint256"
            },
            {
              "internalType": "uint256",
              "name": "ethPool",
              "type": "uint256"
            },
            {
              "internalType": "uint256",
              "name": "usmTotalSupply",
              "type": "uint256"
            }
          ],
          "internalType": "struct USMTemplate.LoadedState",
          "name": "ls",
          "type": "tuple"
        }
      ],
      "stateMutability": "view",
      "type": "function"
    },
    {
      "inputs": [
        {
          "internalType": "address",
          "name": "to",
          "type": "address"
        },
        {
          "internalType": "uint256",
          "name": "minUsmOut",
          "type": "uint256"
        }
      ],
      "name": "mint",
      "outputs": [
        {
          "internalType": "uint256",
          "name": "usmOut",
          "type": "uint256"
        }
      ],
      "stateMutability": "payable",
      "type": "function"
    },
    {
      "inputs": [],
      "name": "name",
      "outputs": [
        {
          "internalType": "string",
          "name": "",
          "type": "string"
        }
      ],
      "stateMutability": "view",
      "type": "function"
    },
    {
      "inputs": [
        {
          "internalType": "address",
          "name": "",
          "type": "address"
        }
      ],
      "name": "nonces",
      "outputs": [
        {
          "internalType": "uint256",
          "name": "",
          "type": "uint256"
        }
      ],
      "stateMutability": "view",
      "type": "function"
    },
    {
      "inputs": [],
      "name": "optBackIn",
      "outputs": [],
      "stateMutability": "nonpayable",
      "type": "function"
    },
    {
      "inputs": [],
      "name": "optOut",
      "outputs": [],
      "stateMutability": "nonpayable",
      "type": "function"
    },
    {
      "inputs": [
        {
          "internalType": "address",
          "name": "",
          "type": "address"
        }
      ],
      "name": "optedOut",
      "outputs": [
        {
          "internalType": "bool",
          "name": "",
          "type": "bool"
        }
      ],
      "stateMutability": "view",
      "type": "function"
    },
    {
      "inputs": [],
      "name": "oracle",
      "outputs": [
        {
          "internalType": "contract Oracle",
          "name": "",
          "type": "address"
        }
      ],
      "stateMutability": "view",
      "type": "function"
    },
    {
      "inputs": [
        {
          "internalType": "address",
          "name": "owner",
          "type": "address"
        },
        {
          "internalType": "address",
          "name": "spender",
          "type": "address"
        },
        {
          "internalType": "uint256",
          "name": "amount",
          "type": "uint256"
        },
        {
          "internalType": "uint256",
          "name": "deadline",
          "type": "uint256"
        },
        {
          "internalType": "uint8",
          "name": "v",
          "type": "uint8"
        },
        {
          "internalType": "bytes32",
          "name": "r",
          "type": "bytes32"
        },
        {
          "internalType": "bytes32",
          "name": "s",
          "type": "bytes32"
        }
      ],
      "name": "permit",
      "outputs": [],
      "stateMutability": "nonpayable",
      "type": "function"
    },
    {
      "inputs": [],
      "name": "refreshPrice",
      "outputs": [
        {
          "internalType": "uint256",
          "name": "price",
          "type": "uint256"
        },
        {
          "internalType": "uint256",
          "name": "updateTime",
          "type": "uint256"
        }
      ],
      "stateMutability": "nonpayable",
      "type": "function"
    },
    {
      "inputs": [
        {
          "internalType": "address",
          "name": "delegate",
          "type": "address"
        }
      ],
      "name": "revokeDelegate",
      "outputs": [],
      "stateMutability": "nonpayable",
      "type": "function"
    },
    {
      "inputs": [
        {
          "internalType": "address",
          "name": "",
          "type": "address"
        }
      ],
      "name": "signatureCount",
      "outputs": [
        {
          "internalType": "uint256",
          "name": "",
          "type": "uint256"
        }
      ],
      "stateMutability": "view",
      "type": "function"
    },
    {
      "inputs": [],
      "name": "storedState",
      "outputs": [
        {
          "internalType": "uint32",
          "name": "timeSystemWentUnderwater",
          "type": "uint32"
        },
        {
          "internalType": "uint32",
          "name": "ethUsdPriceTimestamp",
          "type": "uint32"
        },
        {
          "internalType": "uint80",
          "name": "ethUsdPrice",
          "type": "uint80"
        },
        {
          "internalType": "uint32",
          "name": "bidAskAdjustmentTimestamp",
          "type": "uint32"
        },
        {
          "internalType": "uint80",
          "name": "bidAskAdjustment",
          "type": "uint80"
        }
      ],
      "stateMutability": "view",
      "type": "function"
    },
    {
      "inputs": [],
      "name": "symbol",
      "outputs": [
        {
          "internalType": "string",
          "name": "",
          "type": "string"
        }
      ],
      "stateMutability": "view",
      "type": "function"
    },
    {
      "inputs": [],
      "name": "timeSystemWentUnderwater",
      "outputs": [
        {
          "internalType": "uint256",
          "name": "timestamp",
          "type": "uint256"
        }
      ],
      "stateMutability": "view",
      "type": "function"
    },
    {
      "inputs": [],
      "name": "totalSupply",
      "outputs": [
        {
          "internalType": "uint256",
          "name": "",
          "type": "uint256"
        }
      ],
      "stateMutability": "view",
      "type": "function"
    },
    {
      "inputs": [
        {
          "internalType": "address",
          "name": "dst",
          "type": "address"
        },
        {
          "internalType": "uint256",
          "name": "wad",
          "type": "uint256"
        }
      ],
      "name": "transfer",
      "outputs": [
        {
          "internalType": "bool",
          "name": "",
          "type": "bool"
        }
      ],
      "stateMutability": "nonpayable",
      "type": "function"
    },
    {
      "inputs": [
        {
          "internalType": "address",
          "name": "src",
          "type": "address"
        },
        {
          "internalType": "address",
          "name": "dst",
          "type": "address"
        },
        {
          "internalType": "uint256",
          "name": "wad",
          "type": "uint256"
        }
      ],
      "name": "transferFrom",
      "outputs": [
        {
          "internalType": "bool",
          "name": "",
          "type": "bool"
        }
      ],
      "stateMutability": "nonpayable",
      "type": "function"
    },
    {
      "inputs": [
        {
          "components": [
            {
              "internalType": "uint256",
              "name": "timeSystemWentUnderwater",
              "type": "uint256"
            },
            {
              "internalType": "uint256",
              "name": "ethUsdPriceTimestamp",
              "type": "uint256"
            },
            {
              "internalType": "uint256",
              "name": "ethUsdPrice",
              "type": "uint256"
            },
            {
              "internalType": "uint256",
              "name": "bidAskAdjustmentTimestamp",
              "type": "uint256"
            },
            {
              "internalType": "uint256",
              "name": "bidAskAdjustment",
              "type": "uint256"
            },
            {
              "internalType": "uint256",
              "name": "ethPool",
              "type": "uint256"
            },
            {
              "internalType": "uint256",
              "name": "usmTotalSupply",
              "type": "uint256"
            }
          ],
          "internalType": "struct USMTemplate.LoadedState",
          "name": "ls",
          "type": "tuple"
        },
        {
          "internalType": "uint256",
          "name": "ethIn",
          "type": "uint256"
        }
      ],
      "name": "usmFromMint",
      "outputs": [
        {
          "internalType": "uint256",
          "name": "usmOut",
          "type": "uint256"
        },
        {
          "internalType": "uint256",
          "name": "adjShrinkFactor",
          "type": "uint256"
        }
      ],
      "stateMutability": "pure",
      "type": "function"
    },
    {
      "inputs": [
        {
          "internalType": "enum IUSM.Side",
          "name": "side",
          "type": "uint8"
        },
        {
          "internalType": "uint256",
          "name": "ethUsdPrice",
          "type": "uint256"
        }
      ],
      "name": "usmPrice",
      "outputs": [
        {
          "internalType": "uint256",
          "name": "price",
          "type": "uint256"
        }
      ],
      "stateMutability": "pure",
      "type": "function"
    },
    {
      "inputs": [
        {
          "internalType": "uint256",
          "name": "ethUsdPrice",
          "type": "uint256"
        },
        {
          "internalType": "uint256",
          "name": "usmAmount",
          "type": "uint256"
        },
        {
          "internalType": "bool",
          "name": "roundUp",
          "type": "bool"
        }
      ],
      "name": "usmToEth",
      "outputs": [
        {
          "internalType": "uint256",
          "name": "ethOut",
          "type": "uint256"
        }
      ],
      "stateMutability": "pure",
      "type": "function"
    },
    {
      "inputs": [],
      "name": "version",
      "outputs": [
        {
          "internalType": "string",
          "name": "",
          "type": "string"
        }
      ],
      "stateMutability": "pure",
      "type": "function"
    },
    {
      "stateMutability": "payable",
      "type": "receive"
    }
  ],
  "transactionHash": "0x3a68b4c89cd01aa6d1b97cc9e55d2bc92b2e3e93f4e00142e5ef436449ea0cd0",
  "args": [
    "0xf933d3C7aB0839d90EE32A743feBAAb90D69Dc7b",
    [],
    "Bitcoin"
  ],
  "solcInputHash": "27abb232e9b35b8cf898bf6e00d961bf",
  "bytecode": "0x601260045561014060408190526000610120819052620000229160059162000391565b507f6e71edae12b1b97f4d1f60370fef10105fa2faae0126114a169c64845d6126c960809081526040805160a0810182526000808252602082018190529181018290526060810191909152633b9aca00910152621dcd6560b91b600a553480156200008c57600080fd5b50604051620087bc380380620087bc833981016040819052620000af91620004b7565b828282604051602001620000c49190620005e1565b60405160208183030381529060405283604051602001620000e6919062000692565b604051602081830303815290604052846040516020016200010891906200064b565b604051602081830303815290604052856040516020016200012a91906200061d565b604051602081830303815290604052848484818181600590805190602001906200015692919062000391565b5080516200016c90600390602084019062000391565b5050825160208401204691506000805160206200879c833981519152906200019362000376565b8051602091820120604051620001b09493928691309101620006b3565b60408051601f19818403018152919052805160209091012060a0525060009150505b81518110156200024a576001600760008484815181106200020357634e487b7160e01b600052603260045260246000fd5b6020908102919091018101516001600160a01b03168252810191909152604001600020805460ff191691151591909117905580620002418162000805565b915050620001d2565b5050604080518082018252600681526555534d46554d60d01b6020918201528151808301835260018152603160f81b9082015290514691620002e6916000805160206200879c833981519152917f1ffee17c90b10b2d9e9bbd98a237e331a138c1264fe23f3a536813ba5c9e5693917fc89efdaa54c0f20c7adf612882df0950f5a951637e0307cdcb4c672f298b8bc6918691309101620006b3565b60408051601f1981840301815290829052805160209091012060c0526001600160601b0319606089901b1661010052309150869084908490620003299062000420565b620003389493929190620006df565b604051809103906000f08015801562000355573d6000803e3d6000fd5b5060601b6001600160601b03191660e052506200085c975050505050505050565b6040805180820190915260018152603160f81b602082015290565b8280546200039f90620007c8565b90600052602060002090601f016020900481019282620003c357600085556200040e565b82601f10620003de57805160ff19168380011785556200040e565b828001600101855582156200040e579182015b828111156200040e578251825591602001919060010190620003f1565b506200041c9291506200042e565b5090565b611f64806200683883390190565b5b808211156200041c57600081556001016200042f565b600082601f83011262000456578081fd5b81516001600160401b038111156200047257620004726200082d565b62000487601f8201601f191660200162000769565b8181528460208386010111156200049c578283fd5b620004af82602083016020870162000795565b949350505050565b600080600060608486031215620004cc578283fd5b8351620004d98162000843565b602085810151919450906001600160401b0380821115620004f8578485fd5b818701915087601f8301126200050c578485fd5b8151818111156200052157620005216200082d565b8381026200053185820162000769565b8281528581019085870183870188018d10156200054c57898afd5b8996505b848710156200057e5780519350620005688462000843565b8383526001969096019591870191870162000550565b5060408b015190985095505050508083111562000599578384fd5b5050620005a98682870162000445565b9150509250925092565b60008151808452620005cd81602086016020860162000795565b601f01601f19169290920160200192915050565b60007102224a09039bcb73a3432ba34b1903337b9160751b825282516200061081601285016020870162000795565b9190910160120192915050565b60006346554d2d60e01b825282516200063e81600485016020870162000795565b9190910160040192915050565b60007f4449412066756e64696e6720746f6b656e20666f722000000000000000000000825282516200068581601685016020870162000795565b9190910160160192915050565b6000634449412d60e01b825282516200063e81600485016020870162000795565b9485526020850193909352604084019190915260608301526001600160a01b0316608082015260a00190565b6001600160a01b0385811682526080602080840182905286519184018290526000928782019290919060a0860190855b818110156200072f5785518516835294830194918301916001016200070f565b50508581036040870152620007458189620005b3565b935050505082810360608401526200075e8185620005b3565b979650505050505050565b6040518181016001600160401b03811182821017156200078d576200078d6200082d565b604052919050565b60005b83811015620007b257818101518382015260200162000798565b83811115620007c2576000848401525b50505050565b600281046001821680620007dd57607f821691505b60208210811415620007ff57634e487b7160e01b600052602260045260246000fd5b50919050565b60006000198214156200082657634e487b7160e01b81526011600452602481fd5b5060010190565b634e487b7160e01b600052604160045260246000fd5b6001600160a01b03811681146200085957600080fd5b50565b60805160a05160c05160e05160601c6101005160601c615f2f620009096000396000818161158f01528181611d6e015261233b015260008181610bf301528181610d55015281816112d30152818161151e0152818161186901528181612acb01528181612dcd01528181612f0c01528181613009015261317e015260008181610f1a015261138e0152600081816112610152611f330152600081816111080152611ecc0152615f2f6000f3fe6080604052600436106103b15760003560e01c806382cf2145116101e7578063bc3c33431161010d578063e71bdf41116100a0578063f6bcbd311161006f578063f6bcbd3114610a3c578063f87623a114610a5c578063fa352c0014610a71578063fedf096a14610a91576103cb565b8063e71bdf41146109c5578063ee6e35fe146109e5578063f16673a414610a07578063f5fca60b14610a1c576103cb565b8063d4eec5a6116100dc578063d4eec5a614610950578063d505accf14610965578063d7020d0a14610985578063dd62ed3e146109a5576103cb565b8063bc3c3343146108f1578063bf082bce14610911578063c0bd65d714610926578063d439a0121461093b576103cb565b80639a4c6a9a11610185578063a3e6ba9411610154578063a3e6ba941461087c578063a8bfab2514610891578063a9059cbb146108b1578063b5d832fe146108d1576103cb565b80639a4c6a9a146107fc5780639cb461c61461081c5780639e5111f01461083c5780639f45dee01461085c576103cb565b80638aacac55116101c15780638aacac5514610792578063921bbe4c146107b257806395d89b41146107c757806397ebd6a9146107dc576103cb565b806382cf2145146107485780638361b2bb1461075d57806385962e2c14610772576103cb565b806340c10f19116102d75780636cae7d0f1161026a5780637b1837de116102395780637b1837de146106eb5780637dc0d1d0146106fe5780637ecebe00146107135780637eeb1ebe14610733576103cb565b80636cae7d0f146106695780636ea51d081461068957806370a08231146106ab57806378ede709146106cb576103cb565b80634ee1b72d116102a65780634ee1b72d146105fb57806354fd4d501461062a57806361fbccb51461063f5780636a14602414610654576103cb565b806340c10f19146105a957806342685e53146105bc578063459e414f146105d15780634beda18b146105e6576103cb565b806323b872dd1161034f578063346500911161031e578063346500911461053c5780633644e5151461056a5780633c67a5b21461057f5780633ea5b39514610594576103cb565b806323b872dd146104d257806330adf81f146104f2578063313ce56714610507578063338f2fe21461051c576103cb565b80630d0a08bf1161038b5780630d0a08bf146104555780630f4727f61461047557806318160ddd1461049b5780631a28ff05146104b0576103cb565b8063042ea073146103d057806306fdde0314610406578063095ea7b314610428576103cb565b366103cb576103c8336103c334610aa6565b610aef565b50005b600080fd5b3480156103dc57600080fd5b506103f06103eb366004615208565b610bc8565b6040516103fd919061538d565b60405180910390f35b34801561041257600080fd5b5061041b610ca0565b6040516103fd9190615452565b34801561043457600080fd5b50610448610443366004615083565b610d2e565b6040516103fd9190615382565b34801561046157600080fd5b506103f06104703660046151d8565b610d42565b34801561048157600080fd5b5061048a610dff565b6040516103fd959493929190615bf7565b3480156104a757600080fd5b506103f0610e68565b3480156104bc57600080fd5b506104d06104cb366004615021565b610e6e565b005b3480156104de57600080fd5b506104486104ed366004614f74565b611056565b3480156104fe57600080fd5b506103f0611106565b34801561051357600080fd5b506103f061112a565b34801561052857600080fd5b506103f0610537366004615280565b611130565b34801561054857600080fd5b5061055c61055736600461513c565b611198565b6040516103fd929190615bd3565b34801561057657600080fd5b506103f061125f565b34801561058b57600080fd5b5061055c611283565b3480156105a057600080fd5b506103f06112cf565b6103f06105b7366004615083565b611374565b3480156105c857600080fd5b506103f0611380565b3480156105dd57600080fd5b506103f061138c565b3480156105f257600080fd5b506103f06113b0565b34801561060757600080fd5b5061061b6106163660046152e9565b6113b8565b6040516103fd93929190615be1565b34801561063657600080fd5b5061041b6114a2565b34801561064b57600080fd5b506103f06114d9565b34801561066057600080fd5b506103f06114fb565b34801561067557600080fd5b50610448610684366004614edb565b611507565b34801561069557600080fd5b5061069e61151c565b6040516103fd9190615431565b3480156106b757600080fd5b506103f06106c6366004614edb565b611540565b3480156106d757600080fd5b506103f06106e636600461524c565b61156c565b6103f06106f9366004615083565b611581565b34801561070a57600080fd5b5061069e61158d565b34801561071f57600080fd5b506103f061072e366004614edb565b6115b1565b34801561073f57600080fd5b506103f06115c3565b34801561075457600080fd5b506104d06115c9565b34801561076957600080fd5b506103f0611600565b34801561077e57600080fd5b506103f061078d3660046150c9565b61160c565b34801561079e57600080fd5b506103f06107ad3660046150ae565b6116b6565b3480156107be57600080fd5b506103f0611705565b3480156107d357600080fd5b5061041b611714565b3480156107e857600080fd5b506103f06107f73660046152ab565b611721565b34801561080857600080fd5b506103f0610817366004614f2f565b6117a8565b34801561082857600080fd5b5061055c61083736600461519c565b6118c2565b34801561084857600080fd5b506103f0610857366004615280565b611a10565b34801561086857600080fd5b506103f06108773660046150fb565b611a6c565b34801561088857600080fd5b5061055c611b03565b34801561089d57600080fd5b506103f06108ac36600461524c565b611b4c565b3480156108bd57600080fd5b506104486108cc366004615083565b611b59565b3480156108dd57600080fd5b506103f06108ec366004614edb565b611b66565b3480156108fd57600080fd5b5061055c61090c366004615167565b611b78565b34801561091d57600080fd5b5061055c611d69565b34801561093257600080fd5b506103f0611e12565b34801561094757600080fd5b506103f0611e36565b34801561095c57600080fd5b506104d0611e49565b34801561097157600080fd5b506104d0610980366004614fb4565b611e83565b34801561099157600080fd5b506103f06109a0366004614f2f565b612072565b3480156109b157600080fd5b506103f06109c0366004614ef7565b612141565b3480156109d157600080fd5b506104d06109e0366004614edb565b612179565b3480156109f157600080fd5b506109fa612186565b6040516103fd9190615b85565b348015610a1357600080fd5b506103f061225c565b348015610a2857600080fd5b5061055c610a3736600461513c565b612260565b348015610a4857600080fd5b50610448610a57366004614ef7565b6122ea565b348015610a6857600080fd5b506103f061230a565b348015610a7d57600080fd5b506104d0610a8c366004614edb565b61231d565b348015610a9d57600080fd5b506103f0612327565b600080610ab864174876e80084615e65565b90508015801590610acb57506298968081105b15610ae9576064610adc8285615d16565b610ae69190615c4a565b91505b50919050565b600080610afa612186565b9050348160a001818151610b0e9190615dc7565b90525060a0810151610b3b5760405162461bcd60e51b8152600401610b3290615a83565b60405180910390fd5b610b4481612333565b506080840152602083015260408201526000610b608234612260565b909350905083831015610b855760405162461bcd60e51b8152600401610b3290615b4e565b6080820151610b949082612490565b60808301526040820151610ba89082612490565b6040830152610bb6826124ae565b610bc08584612842565b505092915050565b600080610bd3612186565b90506000610beb85610be361225c565b610857610e68565b9050610c96827f000000000000000000000000000000000000000000000000000000000000000073ffffffffffffffffffffffffffffffffffffffff166318160ddd6040518163ffffffff1660e01b815260040160206040518083038186803b158015610c5757600080fd5b505afa158015610c6b573d6000803e3d6000fd5b505050506040513d601f19601f82011682018060405250810190610c8f91906151f0565b86846118c2565b5095945050505050565b60058054610cad90615dde565b80601f0160208091040260200160405190810160405280929190818152602001828054610cd990615dde565b8015610d265780601f10610cfb57610100808354040283529160200191610d26565b820191906000526020600020905b815481529060010190602001808311610d0957829003601f168201915b505050505081565b6000610d3b338484612902565b9392505050565b600080610d4d612186565b9050610df7817f000000000000000000000000000000000000000000000000000000000000000073ffffffffffffffffffffffffffffffffffffffff166318160ddd6040518163ffffffff1660e01b815260040160206040518083038186803b158015610db957600080fd5b505afa158015610dcd573d6000803e3d6000fd5b505050506040513d601f19601f82011682018060405250810190610df191906151f0565b85611b78565b509392505050565b600a5463ffffffff80821691640100000000810482169169ffffffffffffffffffff680100000000000000008304811692720100000000000000000000000000000000000081049092169176010000000000000000000000000000000000000000000090041685565b60005490565b42841015610e8e5760405162461bcd60e51b8152600401610b329061594a565b73ffffffffffffffffffffffffffffffffffffffff8616600090815260086020526040812080547f0d077601844dd17f704bafff948229d27f33b57445915754dfe3d095fda2beb7918991899185610ee583615e2c565b9190505588604051602001610efe959493929190615396565b60405160208183030381529060405280519060200120905060007f000000000000000000000000000000000000000000000000000000000000000082604051602001610f4b929190615323565b604051602081830303815290604052805190602001209050600060018287878760405160008152602001604052604051610f889493929190615413565b6020604051602081039080840390855afa158015610faa573d6000803e3d6000fd5b50506040517fffffffffffffffffffffffffffffffffffffffffffffffffffffffffffffffe0015191505073ffffffffffffffffffffffffffffffffffffffff81161580159061102557508873ffffffffffffffffffffffffffffffffffffffff168173ffffffffffffffffffffffffffffffffffffffff16145b6110415760405162461bcd60e51b8152600401610b32906154c3565b61104b898961297f565b505050505050505050565b73ffffffffffffffffffffffffffffffffffffffff831660008181526002602090815260408083203380855292528220549192148015906110b757507fffffffffffffffffffffffffffffffffffffffffffffffffffffffffffffffff8114155b156110f257828110156110dc5760405162461bcd60e51b8152600401610b32906156d8565b6110f085336110eb8685615dc7565b612902565b505b6110fd858585612a62565b95945050505050565b7f000000000000000000000000000000000000000000000000000000000000000081565b60045481565b60008061113d8584615dc7565b905060006102588210156111625761115d670db7e8439ea0ac8783612b6f565b611165565b60005b9050806111728682612490565b61118490670de0b6b3a7640000615c32565b61118e9190615dc7565b9695505050505050565b60008060006111b160008660400151876080015161160c565b905060006111c06001836116b6565b90506111e76111e08760c001518860a00151612bd290919063ffffffff16565b8290612bf1565b90506000611204828860a0015188612c079092919063ffffffff16565b9050600061121f61121483612c1e565b60a08a015190612ca1565b9050808860a001516112319190615dc7565b955061125261124d828a60a00151612ca190919063ffffffff16565b612cee565b9450505050509250929050565b7f000000000000000000000000000000000000000000000000000000000000000081565b6000806000611290612186565b9050600061129d82612333565b60808601919091529195509350905080156112c95760208201839052604082018490526112c9826124ae565b50509091565b60007f000000000000000000000000000000000000000000000000000000000000000073ffffffffffffffffffffffffffffffffffffffff166318160ddd6040518163ffffffff1660e01b815260040160206040518083038186803b15801561133757600080fd5b505afa15801561134b573d6000803e3d6000fd5b505050506040513d601f19601f8201168201806040525081019061136f91906151f0565b905090565b6000610d3b8383610aef565b670de0af67c4da12ea81565b7f000000000000000000000000000000000000000000000000000000000000000081565b633b9aca0081565b60008060006113c886888a611a10565b9050600a6113df670de0b6b3a76400006008615d16565b6113e99190615c4a565b81116113f757879150611497565b846114025783611404565b845b9250600061141a82670de0b6b3a7640000612bf1565b9050600061143a61142b8688615dc7565b670de0af67c4da12ea90612b6f565b90506000611471600a611456670de0b6b3a76400006008615d16565b6114609190615c4a565b61146a9085615dc7565b8390612d12565b61147b9084615dc7565b905061149161148a8b8b612490565b8290612490565b94505050505b955095509592505050565b60408051808201909152600181527f3100000000000000000000000000000000000000000000000000000000000000602082015290565b600a6114ee670de0b6b3a76400006008615d16565b6114f89190615c4a565b81565b670de0b6b3a764000081565b60076020526000908152604090205460ff1681565b7f000000000000000000000000000000000000000000000000000000000000000081565b73ffffffffffffffffffffffffffffffffffffffff81166000908152600160205260409020545b919050565b6000611579838584612d3b565b949350505050565b6000610d3b8383612d5b565b7f000000000000000000000000000000000000000000000000000000000000000081565b60066020526000908152604090205481565b61025881565b33600090815260076020526040902080547fffffffffffffffffffffffffffffffffffffffffffffffffffffffffffffff00169055565b670db7e8439ea0ac8781565b816000846001811115611648577f4e487b7100000000000000000000000000000000000000000000000000000000600052602160045260246000fd5b1461165d57670de0b6b3a76400008210611669565b670de0b6b3a764000082115b15610d3b576115798260008660018111156116ad577f4e487b7100000000000000000000000000000000000000000000000000000000600052602160045260246000fd5b84929114612f7f565b6000610d3b82670de0b6b3a7640000838660018111156116ff577f4e487b7100000000000000000000000000000000000000000000000000000000600052602160045260246000fd5b1461156c565b6114f86002633b9aca00615c4a565b60038054610cad90615dde565b6000806117308685851561156c565b90507f7fffffffffffffffffffffffffffffffffffffffffffffffffffffffffffffff861115801561178257507f7fffffffffffffffffffffffffffffffffffffffffffffffffffffffffffffff8111155b61179e5760405162461bcd60e51b8152600401610b32906154fa565b61118e8186615d53565b6000846040518060400160405280601e81526020017f4f6e6c7920686f6c646572206f722064656c6567617465206f722046554d00008152508173ffffffffffffffffffffffffffffffffffffffff163373ffffffffffffffffffffffffffffffffffffffff16148061184b575073ffffffffffffffffffffffffffffffffffffffff8216600090815260096020908152604080832033845290915290205460ff165b8061188b57503373ffffffffffffffffffffffffffffffffffffffff7f000000000000000000000000000000000000000000000000000000000000000016145b81906118aa5760405162461bcd60e51b8152600401610b329190615452565b506118b787878787612f9a565b979650505050505050565b60008060006118db60008860400151896080015161160c565b905060006118f56000838a60a001518b60c001518b611a6c565b90508760a0015160001480611908575086155b1561192957670de0b6b3a764000092506119228682612bd2565b9350611a05565b6000611954600a611943670de0b6b3a76400006008615d16565b61194d9190615c4a565b8790612bf1565b9050600061197461196d83670de0b6b3a7640000615dc7565b8390612ca1565b90506000888b60a001516119889190615c32565b90506119ae611998600284615c4a565b60a08d01516119a8908490612ca1565b9061321c565b955050505060006119c86119c18561324a565b8490612d12565b905060006119e26000838c60a001518d60c001518d611a6c565b905060006119f361124d8584612d12565b90506119ff8982612bd2565b96505050505b505094509492505050565b600080611a1d8486612490565b90508215611a61578015611a3a57611a358382612ca1565b611a5c565b7fffffffffffffffffffffffffffffffffffffffffffffffffffffffffffffffff5b6110fd565b600095945050505050565b60008080876001811115611aa9577f4e487b7100000000000000000000000000000000000000000000000000000000600052602160045260246000fd5b14905082611acb57611ac486670de0b6b3a76400008361156c565b9150610c96565b6000611ad987878785611721565b90506000811315611af457611aef818584612d3b565b611af7565b60005b98975050505050505050565b600a546000908190611b3290633b9aca009068010000000000000000900469ffffffffffffffffffff16615d16565b600a54909364010000000090910463ffffffff1692509050565b6000611579838584612f7f565b6000610d3b338484612a62565b60086020526000908152604090205481565b6000806000611b9160018760400151886080015161160c565b90506000611bab6001838960a001518a60c001518a611a6c565b90506127108760c00151611bc06001856116b6565b611bca9190615d16565b611bd6906107d0615d16565b611be09190615c4a565b611bea8688615dc7565b611bf49083615d16565b1015611c125760405162461bcd60e51b8152600401610b3290615aba565b6000611c1e8683612d12565b8860a00151611c2d9190615dc7565b90506000611c488960a0015183612bd290919063ffffffff16565b90506000611c73611c6c611c65670de0b6b3a76400006004615d16565b8490613284565b8690612490565b90506000611c8682858d60c00151611a10565b90506000611cb3600a611ca2670de0b6b3a76400006008615d16565b611cac9190615c4a565b8390612bf1565b90506000670de0b6b3a7640000611cdc611ccd8483615dc7565b670de0b6b3a764000090612ca1565b611ce69190615dc7565b9050611cfd611cf6600283615c4a565b8690613284565b98505050505050506000611d1a611d13856133d4565b8490612490565b90506000611d346001838b60a001518c60c001518c611a6c565b905060006002611d448386615c32565b611d4e9190615c4a565b9050611d5a8882612490565b96505050505050935093915050565b6000807f000000000000000000000000000000000000000000000000000000000000000073ffffffffffffffffffffffffffffffffffffffff1663a3e6ba946040518163ffffffff1660e01b8152600401604080518083038186803b158015611dd157600080fd5b505afa158015611de5573d6000803e3d6000fd5b505050506040513d601f19601f82011682018060405250810190611e099190615229565b90939092509050565b7f0d077601844dd17f704bafff948229d27f33b57445915754dfe3d095fda2beb781565b6114f8670de0b6b3a76400006004615d16565b33600090815260076020526040902080547fffffffffffffffffffffffffffffffffffffffffffffffffffffffffffffff00166001179055565b42841015611ea35760405162461bcd60e51b8152600401610b32906156a1565b73ffffffffffffffffffffffffffffffffffffffff8716600090815260066020526040812080547f0000000000000000000000000000000000000000000000000000000000000000918a918a918a919086611efd83615e2c565b9190505589604051602001611f17969594939291906153d2565b60405160208183030381529060405280519060200120905060007f000000000000000000000000000000000000000000000000000000000000000082604051602001611f64929190615323565b604051602081830303815290604052805190602001209050600060018287878760405160008152602001604052604051611fa19493929190615413565b6020604051602081039080840390855afa158015611fc3573d6000803e3d6000fd5b50506040517fffffffffffffffffffffffffffffffffffffffffffffffffffffffffffffffe0015191505073ffffffffffffffffffffffffffffffffffffffff81161580159061203e57508973ffffffffffffffffffffffffffffffffffffffff168173ffffffffffffffffffffffffffffffffffffffff16145b61205a5760405162461bcd60e51b8152600401610b3290615913565b6120658a8a8a612902565b5050505050505050505050565b6000846040518060400160405280601781526020017f4f6e6c7920686f6c646572206f722064656c65676174650000000000000000008152508173ffffffffffffffffffffffffffffffffffffffff163373ffffffffffffffffffffffffffffffffffffffff161480612115575073ffffffffffffffffffffffffffffffffffffffff8216600090815260096020908152604080832033845290915290205460ff165b81906121345760405162461bcd60e51b8152600401610b329190615452565b506118b7878787876133e0565b73ffffffffffffffffffffffffffffffffffffffff918216600090815260026020908152604080832093909416825291909152205490565b612183338261297f565b50565b61218e614dc6565b600a5463ffffffff808216835264010000000082041660208301526121d090633b9aca009068010000000000000000900469ffffffffffffffffffff16615d16565b6040820152426060820152600a5461223a907201000000000000000000000000000000000000810463ffffffff169061223490633b9aca0090760100000000000000000000000000000000000000000000900469ffffffffffffffffffff16615d16565b42611130565b608082015261224761225c565b60a0820152612254610e68565b60c082015290565b4790565b600080600061227960018660400151876080015161160c565b905060006122886000836116b6565b90506000858760a0015161229c9190615c32565b905060006122b7828960a00151612bd290919063ffffffff16565b90506122c2816134f0565b945060006122d08487612ca1565b90506122dc8882612bd2565b965050505050509250929050565b600960209081526000928352604080842090915290825290205460ff1681565b6000612314612186565b60800151905090565b612183338261350e565b600a5463ffffffff1690565b6000806000807f000000000000000000000000000000000000000000000000000000000000000073ffffffffffffffffffffffffffffffffffffffff16633c67a5b26040518163ffffffff1660e01b81526004016040805180830381600087803b1580156123a057600080fd5b505af11580156123b4573d6000803e3d6000fd5b505050506040513d601f19601f820116820180604052508101906123d89190615229565b608087015160208801519296509094509250831190508061240757604085015160208601519094509250612489565b60408501511561248957670de0b6b3a76400008560800151111561244f576040850151612448906124399084876135e8565b670de0b6b3a76400009061362d565b9150612489565b670de0b6b3a76400008560800151101561248957604085015161248690612477908487612c07565b670de0b6b3a764000090612bf1565b91505b9193509193565b600061249c8284615d16565b670de0b6b3a764000090049392505050565b600a54815163ffffffff9091161461255057805163ffffffff10156124e55760405162461bcd60e51b8152600401610b32906159ef565b8051600a549015159063ffffffff161515808214156125165760405162461bcd60e51b8152600401610b32906158b6565b7ff65636cad8b7e681ef3c22d371d448dfb42c53e3b6e1bf67848f9ccad2d30db2826040516125459190615382565b60405180910390a150505b602081015163ffffffff10156125785760405162461bcd60e51b8152600401610b329061570f565b60006125896002633b9aca00615c4a565b82604001516125989190615c32565b600a54633b9aca00909104915068010000000000000000900469ffffffffffffffffffff1681146126315769ffffffffffffffffffff8111156125ed5760405162461bcd60e51b8152600401610b329061566a565b7f8aa4fa52648a6d15edce8a179c792c86f3719d0cc3c572cf90f91948f0f2cb688260200151633b9aca008302604051612628929190615bd3565b60405180910390a15b606082015163ffffffff10156126595760405162461bcd60e51b8152600401610b3290615531565b600061266a6002633b9aca00615c4a565b83608001516126799190615c32565b600a54633b9aca009091049150760100000000000000000000000000000000000000000000900469ffffffffffffffffffff16811461271a5769ffffffffffffffffffff8111156126dc5760405162461bcd60e51b8152600401610b3290615633565b7fedd65dddb55d0513735f65f5f57d34e2274b2c7bdbef68141a7d7ae99c53c04e633b9aca008202604051612711919061538d565b60405180910390a15b82516020840151606090940151600a805475ffffffffffffffffffffffffffffffffffffffffffff1676010000000000000000000000000000000000000000000069ffffffffffffffffffff95861602177fffffffffffffffffffff00000000ffffffffffffffffffffffffffffffffffff16720100000000000000000000000000000000000063ffffffff93841602177fffffffffffffffffffffffffffff00000000000000000000ffffffffffffffff16680100000000000000009590941694909402929092177fffffffffffffffffffffffffffffffffffffffffffffffff00000000ffffffff1664010000000094831694909402939093177fffffffffffffffffffffffffffffffffffffffffffffffffffffffff00000000169216919091179055565b73ffffffffffffffffffffffffffffffffffffffff8216600090815260016020526040902054612873908290615c32565b73ffffffffffffffffffffffffffffffffffffffff8316600090815260016020526040812091909155546128a8908290615c32565b600090815560405173ffffffffffffffffffffffffffffffffffffffff841691907fddf252ad1be2c89b69c2b068fc378daa952ba7f163c4a11628f55a4df523b3ef906128f690859061538d565b60405180910390a35050565b73ffffffffffffffffffffffffffffffffffffffff80841660008181526002602090815260408083209487168084529490915280822085905551909291907f8c5be1e5ebec7d5bd14f71427d1e84f3dd0314c0f7b2291e5b200ac8c7c3b9259061296d90869061538d565b60405180910390a35060019392505050565b73ffffffffffffffffffffffffffffffffffffffff80831660009081526009602090815260408083209385168352929052205460ff16156129d25760405162461bcd60e51b8152600401610b329061587f565b73ffffffffffffffffffffffffffffffffffffffff8083166000818152600960209081526040808320948616808452949091529081902080547fffffffffffffffffffffffffffffffffffffffffffffffffffffffffffffff0016600190811790915590517f045b0fef01772d2fbba53dbd38c9777806eac0865b00af43abcfbcaf50da9206916128f691615382565b73ffffffffffffffffffffffffffffffffffffffff8216600090815260076020526040812054839060ff1615612aaa5760405162461bcd60e51b8152600401610b3290615746565b73ffffffffffffffffffffffffffffffffffffffff8416301480612b1957507f000000000000000000000000000000000000000000000000000000000000000073ffffffffffffffffffffffffffffffffffffffff168473ffffffffffffffffffffffffffffffffffffffff16145b80612b38575073ffffffffffffffffffffffffffffffffffffffff8416155b15612b5757612b51858685612b4c8761363c565b6133e0565b50612b64565b612b62858585613672565b505b506001949350505050565b600060028206612b8757670de0b6b3a7640000612b89565b825b905060028204915060005b8215612bcb57612ba48485612490565b9350600283061580159150612bc057612bbd8285612490565b91505b600283049250612b94565b5092915050565b600081612be7670de0b6b3a764000085615d16565b610d3b9190615c4a565b6000818310612c005781610d3b565b5090919050565b600081612c148486615d16565b6115799190615c4a565b600080612c3383673539de91cc25e6c9615d16565b612c4d906f7796e3aaa35f7e2f0928baef9bb2eb5b615c32565b90506fffffffffffffffffffffffffffffffff811115612c7f5760405162461bcd60e51b8152600401610b3290615848565b612c8881613784565b6fffffffffffffffffffffffffffffffff169392505050565b600081612cb6670de0b6b3a764000085615d16565b612cc09190615c32565b7fffffffffffffffffffffffffffffffffffffffffffffffffffffffffffffffff019050610d3b8282615c4a565b6000612d0c82612d076002670de0b6b3a7640000615c4a565b61321c565b92915050565b6000612d276001670de0b6b3a7640000615dc7565b612d318385615d16565b61249c9190615c32565b600081612d5157612d4c8484612bd2565b611579565b6115798484612ca1565b600080612d66612186565b9050348160a001818151612d7a9190615dc7565b905250612d8681612333565b50608084015260208301526040820181905260c082015160a08301518351600093612db3939291426113b8565b846000018560c001829550838152508381525050505060007f000000000000000000000000000000000000000000000000000000000000000073ffffffffffffffffffffffffffffffffffffffff166318160ddd6040518163ffffffff1660e01b815260040160206040518083038186803b158015612e3157600080fd5b505afa158015612e45573d6000803e3d6000fd5b505050506040513d601f19601f82011682018060405250810190612e6991906151f0565b90506000612e79848334866118c2565b909550905085851015612e9e5760405162461bcd60e51b8152600401610b3290615b4e565b6080840151612ead9082612d12565b60808501526040840151612ec19082612d12565b6040850152612ecf846124ae565b6040517f40c10f1900000000000000000000000000000000000000000000000000000000815273ffffffffffffffffffffffffffffffffffffffff7f000000000000000000000000000000000000000000000000000000000000000016906340c10f1990612f43908a90899060040161535c565b600060405180830381600087803b158015612f5d57600080fd5b505af1158015612f71573d6000803e3d6000fd5b505050505050505092915050565b600081612f9057612d4c8484612490565b6115798484612d12565b600080612fa5612186565b9050612fb081612333565b50608084015260208084019190915260408084019290925281517f18160ddd000000000000000000000000000000000000000000000000000000008152915160009273ffffffffffffffffffffffffffffffffffffffff7f000000000000000000000000000000000000000000000000000000000000000016926318160ddd92600480840193829003018186803b15801561304a57600080fd5b505afa15801561305e573d6000803e3d6000fd5b505050506040513d601f19601f8201168201806040525081019061308291906151f0565b90506000613091838388611b78565b9094509050848410156130b65760405162461bcd60e51b8152600401610b3290615b4e565b60808301516130c59082612490565b608084015260408301516130d99082612490565b6040840181905260a0840151600091613101916130f7908890615dc7565b8660c00151611a10565b9050600a613118670de0b6b3a76400006008615d16565b6131229190615c4a565b8111156131415760405162461bcd60e51b8152600401610b32906155c5565b6040517f9dc29fac00000000000000000000000000000000000000000000000000000000815273ffffffffffffffffffffffffffffffffffffffff7f00000000000000000000000000000000000000000000000000000000000000001690639dc29fac906131b5908c908b9060040161535c565b600060405180830381600087803b1580156131cf57600080fd5b505af11580156131e3573d6000803e3d6000fd5b505050506131f0846124ae565b61321073ffffffffffffffffffffffffffffffffffffffff89168661411d565b50505050949350505050565b6000610d3b670de0b6b3a764000061324561323f670de0b6b3a764000087612bd2565b85613284565b612ca1565b600061325f6001670de0b6b3a7640000615dc7565b6132698380615d16565b6132739190615c32565b670de0b6b3a7640000900492915050565b60006fffffffffffffffffffffffffffffffff8311156132b65760405162461bcd60e51b8152600401610b32906159b8565b7f7fffffffffffffffffffffffffffffffffffffffffffffffffffffffffffffff8211156132f65760405162461bcd60e51b8152600401610b3290615981565b6000613301846141cb565b6fffffffffffffffffffffffffffffffff167fffffffffffffffffffffffffffffffff88691c555ca081d0f6d74510644d14a40190506133418382615c5e565b670de0b6b3a764000090056f7796e3aaa35f7e2f0928baef9bb2eb5b01905060008112156133815760405162461bcd60e51b8152600401610b32906155fc565b6fffffffffffffffffffffffffffffffff8113156133b15760405162461bcd60e51b8152600401610b3290615848565b6133ba81613784565b6fffffffffffffffffffffffffffffffff16949350505050565b60006132738280615d16565b6000806133eb612186565b90506133f681612333565b5060808401526020830152604082015260006134128286611198565b9093509050838310156134375760405162461bcd60e51b8152600401610b3290615b4e565b60808201516134469082612d12565b6080830152604082015161345a9082612d12565b6040830181905260a083015160009161348891613478908790615dc7565b888660c001516108579190615dc7565b9050670de0b6b3a76400008111156134b25760405162461bcd60e51b8152600401610b3290615b17565b6134bc8887614cce565b6134c5836124ae565b6134e573ffffffffffffffffffffffffffffffffffffffff88168561411d565b505050949350505050565b6000612d0c826135096002670de0b6b3a7640000615c4a565b613284565b73ffffffffffffffffffffffffffffffffffffffff80831660009081526009602090815260408083209385168352929052205460ff166135605760405162461bcd60e51b8152600401610b329061558e565b73ffffffffffffffffffffffffffffffffffffffff80831660008181526009602090815260408083209486168084529490915280822080547fffffffffffffffffffffffffffffffffffffffffffffffffffffffffffffff00169055517f045b0fef01772d2fbba53dbd38c9777806eac0865b00af43abcfbcaf50da9206916128f691615382565b6000816135f58486615d16565b6135ff9190615c32565b7fffffffffffffffffffffffffffffffffffffffffffffffffffffffffffffffff0190506115798282615c4a565b6000818311612c005781610d3b565b60008061364e64174876e80084615e65565b9050801580159061366157506298968081105b15610ae95780610adc846064615d16565b73ffffffffffffffffffffffffffffffffffffffff83166000908152600160205260408120548211156136b75760405162461bcd60e51b8152600401610b3290615811565b73ffffffffffffffffffffffffffffffffffffffff84166000908152600160205260409020546136e8908390615dc7565b73ffffffffffffffffffffffffffffffffffffffff8086166000908152600160205260408082209390935590851681522054613725908390615c32565b73ffffffffffffffffffffffffffffffffffffffff80851660008181526001602052604090819020939093559151908616907fddf252ad1be2c89b69c2b068fc378daa952ba7f163c4a11628f55a4df523b3ef9061296d90869061538d565b60006f800000000000000000000000000000006f010000000000000000000000000000008316156137c5576fb504f333f9de6484597d89b3754abe9f02607f1c5b6e8000000000000000000000000000008316156137f2576f9837f0518db8a96f46ad23182e42f6f602607f1c5b6e40000000000000000000000000000083161561381f576f8b95c1e3ea8bd6e6fbe4628758a53c9002607f1c5b6e20000000000000000000000000000083161561384c576f85aac367cc487b14c5c95b8c2154c1b202607f1c5b6e100000000000000000000000000000831615613879576f82cd8698ac2ba1d73e2a475b46520bff02607f1c5b6e0800000000000000000000000000008316156138a6576f8164d1f3bc0307737be56527bd14def402607f1c5b6e0400000000000000000000000000008316156138d3576f80b1ed4fd999ab6c25335719b6e6fd2002607f1c5b6e020000000000000000000000000000831615613900576f8058d7d2d5e5f6b094d589f608ee4aa202607f1c5b6e01000000000000000000000000000083161561392d576f802c6436d0e04f50ff8ce94a6797b3ce02607f1c5b6d8000000000000000000000000000831615613959576f8016302f174676283690dfe44d11d00802607f1c5b6d4000000000000000000000000000831615613985576f800b179c82028fd0945e54e2ae18f2f002607f1c5b6d20000000000000000000000000008316156139b1576f80058baf7fee3b5d1c718b38e549cb9302607f1c5b6d10000000000000000000000000008316156139dd576f8002c5d00fdcfcb6b6566a58c048be1f02607f1c5b6d0800000000000000000000000000831615613a09576f800162e61bed4a48e84c2e1a463473d902607f1c5b6d0400000000000000000000000000831615613a35576f8000b17292f702a3aa22beacca94901302607f1c5b6d0200000000000000000000000000831615613a61576f800058b92abbae02030c5fa5256f41fe02607f1c5b6d0100000000000000000000000000831615613a8d576f80002c5c8dade4d71776c0f4dbea67d602607f1c5b6c80000000000000000000000000831615613ab8576f8000162e44eaf636526be456600bdbe402607f1c5b6c40000000000000000000000000831615613ae3576f80000b1721fa7c188307016c1cd4e8b602607f1c5b6c20000000000000000000000000831615613b0e576f8000058b90de7e4cecfc487503488bb102607f1c5b6c10000000000000000000000000831615613b39576f800002c5c8678f36cbfce50a6de60b1402607f1c5b6c08000000000000000000000000831615613b64576f80000162e431db9f80b2347b5d62e51602607f1c5b6c04000000000000000000000000831615613b8f576f800000b1721872d0c7b08cf1e011415202607f1c5b6c02000000000000000000000000831615613bba576f80000058b90c1aa8a5c3736cb77e8dff02607f1c5b6c01000000000000000000000000831615613be5576f8000002c5c8605a4635f2efc2362d97802607f1c5b6b800000000000000000000000831615613c0f576f800000162e4300e635cf4a109e3939bd02607f1c5b6b400000000000000000000000831615613c39576f8000000b17217ff81bef9c551590cf8302607f1c5b6b200000000000000000000000831615613c63576f800000058b90bfdd4e39cd52c0cfa27c02607f1c5b6b100000000000000000000000831615613c8d576f80000002c5c85fe6f72d669e0e76e41102607f1c5b6b080000000000000000000000831615613cb7576f8000000162e42ff18f9ad35186d0df2802607f1c5b6b040000000000000000000000831615613ce1576f80000000b17217f84cce71aa0dcfffe702607f1c5b6b020000000000000000000000831615613d0b576f8000000058b90bfc07a77ad56ed22aaa02607f1c5b6b010000000000000000000000831615613d35576f800000002c5c85fdfc23cdead40da8d602607f1c5b6a8000000000000000000000831615613d5e576f80000000162e42fefc25eb1571853a6602607f1c5b6a4000000000000000000000831615613d87576f800000000b17217f7d97f692baacded502607f1c5b6a2000000000000000000000831615613db0576f80000000058b90bfbead3b8b5dd254d702607f1c5b6a1000000000000000000000831615613dd9576f8000000002c5c85fdf4eedd62f084e6702607f1c5b6a0800000000000000000000831615613e02576f800000000162e42fefa58aef378bf58602607f1c5b6a0400000000000000000000831615613e2b576f8000000000b17217f7d24a78a3c7ef0202607f1c5b6a0200000000000000000000831615613e54576f800000000058b90bfbe9067c93e474a602607f1c5b6a0100000000000000000000831615613e7d576f80000000002c5c85fdf47b8e5a72599f02607f1c5b6980000000000000000000831615613ea5576f8000000000162e42fefa3bdb315934a202607f1c5b6940000000000000000000831615613ecd576f80000000000b17217f7d1d7299b49c4602607f1c5b6920000000000000000000831615613ef5576f8000000000058b90bfbe8e9a8d1c4ea002607f1c5b6910000000000000000000831615613f1d576f800000000002c5c85fdf4745969ea76f02607f1c5b6908000000000000000000831615613f45576f80000000000162e42fefa3a0df5373bf02607f1c5b6904000000000000000000831615613f6d576f800000000000b17217f7d1cff4aac1e102607f1c5b6902000000000000000000831615613f95576f80000000000058b90bfbe8e7db95a2f102607f1c5b6901000000000000000000831615613fbd576f8000000000002c5c85fdf473e61ae1f802607f1c5b68800000000000000000831615613fe4576f800000000000162e42fefa39f121751c02607f1c5b6840000000000000000083161561400b576f8000000000000b17217f7d1cf815bb9602607f1c5b68200000000000000000831615614032576f800000000000058b90bfbe8e7bec1e0d02607f1c5b68100000000000000000831615614059576f80000000000002c5c85fdf473dee5f1702607f1c5b68080000000000000000831615614080576f8000000000000162e42fefa39ef5438f02607f1c5b680400000000000000008316156140a7576f80000000000000b17217f7d1cf7a26c802607f1c5b680200000000000000008316156140ce576f8000000000000058b90bfbe8e7bcf4a402607f1c5b680100000000000000008316156140f5576f800000000000002c5c85fdf473de72a202607f1c5b607f60799390931c83169092036fffffffffffffffffffffffffffffffff169190911c919050565b8047101561413d5760405162461bcd60e51b8152600401610b32906157da565b60008273ffffffffffffffffffffffffffffffffffffffff168260405161416390615359565b60006040518083038185875af1925050503d80600081146141a0576040519150601f19603f3d011682016040523d82523d6000602084013e6141a5565b606091505b50509050806141c65760405162461bcd60e51b8152600401610b329061577d565b505050565b60006fffffffffffffffffffffffffffffffff82166141fc5760405162461bcd60e51b8152600401610b3290615a4c565b6fffffffffffffffffffffffffffffffff82166ffe0000000000000000000000000000006801000000000000000082101561425b5760409190911b907fffffffffffffffffffffffffffffffff80000000000000000000000000000000015b6c0100000000000000000000000082101561429a5760209190911b907fffffffffffffffffffffffffffffffffc0000000000000000000000000000000015b6e0100000000000000000000000000008210156142db5760109190911b907fffffffffffffffffffffffffffffffffe0000000000000000000000000000000015b6f0100000000000000000000000000000082101561431d5760089190911b907ffffffffffffffffffffffffffffffffff0000000000000000000000000000000015b6f1000000000000000000000000000000082101561435f5760049190911b907ffffffffffffffffffffffffffffffffff8000000000000000000000000000000015b6f400000000000000000000000000000008210156143a15760029190911b907ffffffffffffffffffffffffffffffffffc000000000000000000000000000000015b6f800000000000000000000000000000008210156143e35760019190911b907ffffffffffffffffffffffffffffffffffe000000000000000000000000000000015b908002607f1c90600160801b821061440f5760019190911c906f01000000000000000000000000000000175b908002607f1c90600160801b821061443a5760019190911c906e800000000000000000000000000000175b908002607f1c90600160801b82106144655760019190911c906e400000000000000000000000000000175b908002607f1c90600160801b82106144905760019190911c906e200000000000000000000000000000175b908002607f1c90600160801b82106144bb5760019190911c906e100000000000000000000000000000175b908002607f1c90600160801b82106144e65760019190911c906e080000000000000000000000000000175b908002607f1c90600160801b82106145115760019190911c906e040000000000000000000000000000175b908002607f1c90600160801b821061453c5760019190911c906e020000000000000000000000000000175b908002607f1c90600160801b82106145675760019190911c906e010000000000000000000000000000175b908002607f1c90600160801b82106145915760019190911c906d8000000000000000000000000000175b908002607f1c90600160801b82106145bb5760019190911c906d4000000000000000000000000000175b908002607f1c90600160801b82106145e55760019190911c906d2000000000000000000000000000175b908002607f1c90600160801b821061460f5760019190911c906d1000000000000000000000000000175b908002607f1c90600160801b82106146395760019190911c906d0800000000000000000000000000175b908002607f1c90600160801b82106146635760019190911c906d0400000000000000000000000000175b908002607f1c90600160801b821061468d5760019190911c906d0200000000000000000000000000175b908002607f1c90600160801b82106146b75760019190911c906d0100000000000000000000000000175b908002607f1c90600160801b82106146e05760019190911c906c80000000000000000000000000175b908002607f1c90600160801b82106147095760019190911c906c40000000000000000000000000175b908002607f1c90600160801b82106147325760019190911c906c20000000000000000000000000175b908002607f1c90600160801b821061475b5760019190911c906c10000000000000000000000000175b908002607f1c90600160801b82106147845760019190911c906c08000000000000000000000000175b908002607f1c90600160801b82106147ad5760019190911c906c04000000000000000000000000175b908002607f1c90600160801b82106147d65760019190911c906c02000000000000000000000000175b908002607f1c90600160801b82106147ff5760019190911c906c01000000000000000000000000175b908002607f1c90600160801b82106148275760019190911c906b800000000000000000000000175b908002607f1c90600160801b821061484f5760019190911c906b400000000000000000000000175b908002607f1c90600160801b82106148775760019190911c906b200000000000000000000000175b908002607f1c90600160801b821061489f5760019190911c906b100000000000000000000000175b908002607f1c90600160801b82106148c75760019190911c906b080000000000000000000000175b908002607f1c90600160801b82106148ef5760019190911c906b040000000000000000000000175b908002607f1c90600160801b82106149175760019190911c906b020000000000000000000000175b908002607f1c90600160801b821061493f5760019190911c906b010000000000000000000000175b908002607f1c90600160801b82106149665760019190911c906a8000000000000000000000175b908002607f1c90600160801b821061498d5760019190911c906a4000000000000000000000175b908002607f1c90600160801b82106149b45760019190911c906a2000000000000000000000175b908002607f1c90600160801b82106149db5760019190911c906a1000000000000000000000175b908002607f1c90600160801b8210614a025760019190911c906a0800000000000000000000175b908002607f1c90600160801b8210614a295760019190911c906a0400000000000000000000175b908002607f1c90600160801b8210614a505760019190911c906a0200000000000000000000175b908002607f1c90600160801b8210614a775760019190911c906a0100000000000000000000175b908002607f1c90600160801b8210614a9d5760019190911c906980000000000000000000175b908002607f1c90600160801b8210614ac35760019190911c906940000000000000000000175b908002607f1c90600160801b8210614ae95760019190911c906920000000000000000000175b908002607f1c90600160801b8210614b0f5760019190911c906910000000000000000000175b908002607f1c90600160801b8210614b355760019190911c906908000000000000000000175b908002607f1c90600160801b8210614b5b5760019190911c906904000000000000000000175b908002607f1c90600160801b8210614b815760019190911c906902000000000000000000175b908002607f1c90600160801b8210614ba75760019190911c906901000000000000000000175b908002607f1c90600160801b8210614bcc5760019190911c9068800000000000000000175b908002607f1c90600160801b8210614bf15760019190911c9068400000000000000000175b908002607f1c90600160801b8210614c165760019190911c9068200000000000000000175b908002607f1c90600160801b8210614c3b5760019190911c9068100000000000000000175b908002607f1c90600160801b8210614c605760019190911c9068080000000000000000175b908002607f1c90600160801b8210614c855760019190911c9068040000000000000000175b908002607f1c90600160801b8210614caa5760019190911c9068020000000000000000175b908002607f1c90600160801b8210610d3b5768010000000000000000179392505050565b73ffffffffffffffffffffffffffffffffffffffff8216600090815260016020526040902054811115614d135760405162461bcd60e51b8152600401610b3290615811565b73ffffffffffffffffffffffffffffffffffffffff8216600090815260016020526040902054614d44908290615dc7565b73ffffffffffffffffffffffffffffffffffffffff831660009081526001602052604081209190915554614d79908290615dc7565b600090815560405173ffffffffffffffffffffffffffffffffffffffff8416907fddf252ad1be2c89b69c2b068fc378daa952ba7f163c4a11628f55a4df523b3ef906128f690859061538d565b6040518060e00160405280600081526020016000815260200160008152602001600081526020016000815260200160008152602001600081525090565b8035801515811461156757600080fd5b80356002811061156757600080fd5b600060e08284031215614e33578081fd5b60405160e0810181811067ffffffffffffffff82111715614e7b577f4e487b710000000000000000000000000000000000000000000000000000000083526041600452602483fd5b8060405250809150823581526020830135602082015260408301356040820152606083013560608201526080830135608082015260a083013560a082015260c083013560c08201525092915050565b803560ff8116811461156757600080fd5b600060208284031215614eec578081fd5b8135610d3b81615ed7565b60008060408385031215614f09578081fd5b8235614f1481615ed7565b91506020830135614f2481615ed7565b809150509250929050565b60008060008060808587031215614f44578182fd5b8435614f4f81615ed7565b93506020850135614f5f81615ed7565b93969395505050506040820135916060013590565b600080600060608486031215614f88578283fd5b8335614f9381615ed7565b92506020840135614fa381615ed7565b929592945050506040919091013590565b600080600080600080600060e0888a031215614fce578283fd5b8735614fd981615ed7565b96506020880135614fe981615ed7565b9550604088013594506060880135935061500560808901614eca565b925060a0880135915060c0880135905092959891949750929550565b60008060008060008060c08789031215615039578182fd5b863561504481615ed7565b9550602087013561505481615ed7565b94506040870135935061506960608801614eca565b92506080870135915060a087013590509295509295509295565b60008060408385031215615095578182fd5b82356150a081615ed7565b946020939093013593505050565b600080604083850312156150c0578182fd5b6150a083614e13565b6000806000606084860312156150dd578283fd5b6150e684614e13565b95602085013595506040909401359392505050565b600080600080600060a08688031215615112578283fd5b61511b86614e13565b97602087013597506040870135966060810135965060800135945092505050565b600080610100838503121561514f578182fd5b6151598484614e22565b9460e0939093013593505050565b6000806000610120848603121561517c578081fd5b6151868585614e22565b9560e08501359550610100909401359392505050565b60008060008061014085870312156151b2578182fd5b6151bc8686614e22565b9660e08601359650610100860135956101200135945092505050565b6000602082840312156151e9578081fd5b5035919050565b600060208284031215615201578081fd5b5051919050565b6000806040838503121561521a578182fd5b50508035926020909101359150565b6000806040838503121561523b578182fd5b505080516020909101519092909150565b600080600060608486031215615260578081fd5b833592506020840135915061527760408501614e03565b90509250925092565b600080600060608486031215615294578081fd5b505081359360208301359350604090920135919050565b600080600080608085870312156152c0578182fd5b8435935060208501359250604085013591506152de60608601614e03565b905092959194509250565b600080600080600060a08688031215615300578283fd5b505083359560208501359550604085013594606081013594506080013592509050565b7f190100000000000000000000000000000000000000000000000000000000000081526002810192909252602282015260420190565b90565b73ffffffffffffffffffffffffffffffffffffffff929092168252602082015260400190565b901515815260200190565b90815260200190565b94855273ffffffffffffffffffffffffffffffffffffffff93841660208601529190921660408401526060830191909152608082015260a00190565b95865273ffffffffffffffffffffffffffffffffffffffff94851660208701529290931660408501526060840152608083019190915260a082015260c00190565b93845260ff9290921660208401526040830152606082015260800190565b73ffffffffffffffffffffffffffffffffffffffff91909116815260200190565b6000602080835283518082850152825b8181101561547e57858101830151858201604001528201615462565b8181111561548f5783604083870101525b50601f017fffffffffffffffffffffffffffffffffffffffffffffffffffffffffffffffe016929092016040019392505050565b6020808252601c908201527f44656c656761626c653a20496e76616c6964207369676e617475726500000000604082015260600190565b6020808252601c908201527f657468427566666572206f766572666c6f772f756e646572666c6f7700000000604082015260600190565b60208082526022908201527f62696441736b41646a7573746d656e7454696d657374616d70206f766572666c60408201527f6f77000000000000000000000000000000000000000000000000000000000000606082015260800190565b6020808252601e908201527f44656c656761626c653a20416c726561647920756e64656c6567617465640000604082015260600190565b60208082526010908201527f4465627420726174696f203e206d617800000000000000000000000000000000604082015260600190565b60208082526012908201527f6578706f6e656e7420756e646572666c6f770000000000000000000000000000604082015260600190565b60208082526019908201527f62696441736b41646a7573746d656e74206f766572666c6f7700000000000000604082015260600190565b60208082526014908201527f6574685573645072696365206f766572666c6f77000000000000000000000000604082015260600190565b6020808252601d908201527f45524332305065726d69743a206578706972656420646561646c696e65000000604082015260600190565b6020808252601c908201527f45524332303a20496e73756666696369656e7420617070726f76616c00000000604082015260600190565b6020808252601d908201527f657468557364507269636554696d657374616d70206f766572666c6f77000000604082015260600190565b60208082526010908201527f546172676574206f70746564206f757400000000000000000000000000000000604082015260600190565b6020808252603a908201527f416464726573733a20756e61626c6520746f2073656e642076616c75652c207260408201527f6563697069656e74206d61792068617665207265766572746564000000000000606082015260800190565b6020808252601d908201527f416464726573733a20696e73756666696369656e742062616c616e6365000000604082015260600190565b6020808252601b908201527f45524332303a20496e73756666696369656e742062616c616e63650000000000604082015260600190565b60208082526011908201527f6578706f6e656e74206f766572666c6f77000000000000000000000000000000604082015260600190565b6020808252601c908201527f44656c656761626c653a20416c72656164792064656c65676174656400000000604082015260600190565b6020808252602a908201527f556e65787065637465642074696d6553797374656d57656e74556e646572776160408201527f746572206368616e676500000000000000000000000000000000000000000000606082015260800190565b6020808252601e908201527f45524332305065726d69743a20696e76616c6964207369676e61747572650000604082015260600190565b6020808252601c908201527f44656c656761626c653a205369676e6174757265206578706972656400000000604082015260600190565b6020808252600a908201527f79206f766572666c6f7700000000000000000000000000000000000000000000604082015260600190565b6020808252600a908201527f78206f766572666c6f7700000000000000000000000000000000000000000000604082015260600190565b60208082526021908201527f74696d6553797374656d57656e74556e6465727761746572206f766572666c6f60408201527f7700000000000000000000000000000000000000000000000000000000000000606082015260800190565b60208082526005908201527f78203d2030000000000000000000000000000000000000000000000000000000604082015260600190565b60208082526013908201527f46756e64206265666f7265206d696e74696e6700000000000000000000000000604082015260600190565b6020808252602d908201527f446566756e64206572726f723a2066756d537570706c7920616674657220646560408201527f66756e6420746f6f206c6f772e00000000000000000000000000000000000000606082015260800190565b60208082526011908201527f4465627420726174696f203e2031303025000000000000000000000000000000604082015260600190565b60208082526011908201527f4c696d6974206e6f742072656163686564000000000000000000000000000000604082015260600190565b600060e082019050825182526020830151602083015260408301516040830152606083015160608301526080830151608083015260a083015160a083015260c083015160c083015292915050565b918252602082015260400190565b9283526020830191909152604082015260600190565b63ffffffff9586168152938516602085015269ffffffffffffffffffff92831660408501529316606083015291909116608082015260a00190565b60008219821115615c4557615c45615e79565b500190565b600082615c5957615c59615ea8565b500490565b60007f7fffffffffffffffffffffffffffffffffffffffffffffffffffffffffffffff81841382841385830485118282161615615c9d57615c9d615e79565b7f800000000000000000000000000000000000000000000000000000000000000084871286820588128184161615615cd757615cd7615e79565b858712925087820587128484161615615cf257615cf2615e79565b87850587128184161615615d0857615d08615e79565b505050929093029392505050565b6000817fffffffffffffffffffffffffffffffffffffffffffffffffffffffffffffffff0483118215151615615d4e57615d4e615e79565b500290565b6000808312837f800000000000000000000000000000000000000000000000000000000000000001831281151615615d8d57615d8d615e79565b837f7fffffffffffffffffffffffffffffffffffffffffffffffffffffffffffffff018313811615615dc157615dc1615e79565b50500390565b600082821015615dd957615dd9615e79565b500390565b600281046001821680615df257607f821691505b60208210811415610ae9577f4e487b7100000000000000000000000000000000000000000000000000000000600052602260045260246000fd5b60007fffffffffffffffffffffffffffffffffffffffffffffffffffffffffffffffff821415615e5e57615e5e615e79565b5060010190565b600082615e7457615e74615ea8565b500690565b7f4e487b7100000000000000000000000000000000000000000000000000000000600052601160045260246000fd5b7f4e487b7100000000000000000000000000000000000000000000000000000000600052601260045260246000fd5b73ffffffffffffffffffffffffffffffffffffffff8116811461218357600080fdfea264697066735822122081d9bfe9011b8a5668871703cd10d70368ed8bb1117343049b2217e14c2c0cc964736f6c6343000800003360126004556101006040819052600060e081905262000021916005916200022d565b507f6e71edae12b1b97f4d1f60370fef10105fa2faae0126114a169c64845d6126c96080523480156200005357600080fd5b5060405162001f6438038062001f64833981016040819052620000769162000364565b82828281818160059080519060200190620000939291906200022d565b508051620000a99060039060208401906200022d565b5050825160208401204691507f8b73c3c69bb8fe3d512ecc4cf759cc79239f7b179b0ffacaa9a75d522b39400f90620000e16200020e565b8051602091820120604051620000fe949392869130910162000487565b60408051601f19818403018152919052805160209091012060a0525060009150505b815181101562000198576001600760008484815181106200015157634e487b7160e01b600052603260045260246000fd5b6020908102919091018101516001600160a01b03168252810191909152604001600020805460ff1916911515919091179055806200018f816200051c565b91505062000120565b5060009050620001a762000229565b600880546001600160a01b0319166001600160a01b038316908117909155604051919250906000907f8be0079c531659141344cd1fd0a4f28419497f9722a3daafe3b4186f6b6457e0908290a35050505060601b6001600160601b03191660c05262000573565b6040805180820190915260018152603160f81b602082015290565b3390565b8280546200023b90620004df565b90600052602060002090601f0160209004810192826200025f5760008555620002aa565b82601f106200027a57805160ff1916838001178555620002aa565b82800160010185558215620002aa579182015b82811115620002aa5782518255916020019190600101906200028d565b50620002b8929150620002bc565b5090565b5b80821115620002b85760008155600101620002bd565b600082601f830112620002e4578081fd5b81516001600160401b0381111562000300576200030062000544565b602062000316601f8301601f19168201620004b3565b82815285828487010111156200032a578384fd5b835b83811015620003495785810183015182820184015282016200032c565b838111156200035a57848385840101525b5095945050505050565b600080600080608085870312156200037a578384fd5b845162000387816200055a565b602086810151919550906001600160401b0380821115620003a6578586fd5b818801915088601f830112620003ba578586fd5b815181811115620003cf57620003cf62000544565b838102620003df858201620004b3565b8281528581019085870183870188018e1015620003fa578a8bfd5b8a96505b848710156200042c578051935062000416846200055a565b83835260019690960195918701918701620003fe565b5060408c015190995095505050508083111562000447578485fd5b6200045589848a01620002d3565b945060608801519250808311156200046b578384fd5b50506200047b87828801620002d3565b91505092959194509250565b9485526020850193909352604084019190915260608301526001600160a01b0316608082015260a00190565b6040518181016001600160401b0381118282101715620004d757620004d762000544565b604052919050565b600281046001821680620004f457607f821691505b602082108114156200051657634e487b7160e01b600052602260045260246000fd5b50919050565b60006000198214156200053d57634e487b7160e01b81526011600452602481fd5b5060010190565b634e487b7160e01b600052604160045260246000fd5b6001600160a01b03811681146200057057600080fd5b50565b60805160a05160c05160601c61199b620005c96000396000818161018b015281816109c001528181610ed20152610f460152600081816106d20152610af30152600081816106a80152610a8c015261199b6000f3fe6080604052600436106101845760003560e01c8063715018a6116100d6578063a4800a751161007f578063d505accf11610059578063d505accf14610482578063dd62ed3e146104a2578063f2fde38b146104c257610242565b8063a4800a7514610438578063a9059cbb1461044d578063d4eec5a61461046d57610242565b80638da5cb5b116100b05780638da5cb5b146103e157806395d89b41146104035780639dc29fac1461041857610242565b8063715018a6146103975780637ecebe00146103ac57806382cf2145146103cc57610242565b8063313ce5671161013857806354fd4d501161011257806354fd4d50146103425780636cae7d0f1461035757806370a082311461037757610242565b8063313ce567146102f65780633644e5151461030b57806340c10f191461032057610242565b806318160ddd1161016957806318160ddd1461029f57806323b872dd146102c157806330adf81f146102e157610242565b806306fdde0314610247578063095ea7b31461027257610242565b36610242577f000000000000000000000000000000000000000000000000000000000000000073ffffffffffffffffffffffffffffffffffffffff16637b1837de34336101d0346104e2565b6040518463ffffffff1660e01b81526004016101ed92919061153d565b6020604051808303818588803b15801561020657600080fd5b505af115801561021a573d6000803e3d6000fd5b50505050506040513d601f19601f8201168201806040525081019061023f9190611498565b50005b600080fd5b34801561025357600080fd5b5061025c61052b565b60405161026991906115d6565b60405180910390f35b34801561027e57600080fd5b5061029261028d36600461146f565b6105b9565b6040516102699190611563565b3480156102ab57600080fd5b506102b46105cd565b604051610269919061156e565b3480156102cd57600080fd5b506102926102dc3660046113c3565b6105d3565b3480156102ed57600080fd5b506102b46106a6565b34801561030257600080fd5b506102b46106ca565b34801561031757600080fd5b506102b46106d0565b34801561032c57600080fd5b5061034061033b36600461146f565b6106f4565b005b34801561034e57600080fd5b5061025c610775565b34801561036357600080fd5b50610292610372366004611377565b6107ac565b34801561038357600080fd5b506102b4610392366004611377565b6107c1565b3480156103a357600080fd5b506103406107ed565b3480156103b857600080fd5b506102b46103c7366004611377565b6108cf565b3480156103d857600080fd5b506103406108e1565b3480156103ed57600080fd5b506103f6610918565b60405161026991906114e6565b34801561040f57600080fd5b5061025c610934565b34801561042457600080fd5b5061034061043336600461146f565b610941565b34801561044457600080fd5b506103f66109be565b34801561045957600080fd5b5061029261046836600461146f565b6109e2565b34801561047957600080fd5b506103406109ef565b34801561048e57600080fd5b5061034061049d3660046113fe565b610a29565b3480156104ae57600080fd5b506102b46104bd366004611391565b610c4c565b3480156104ce57600080fd5b506103406104dd366004611377565b610c84565b6000806104f464174876e800846118f3565b9050801580159061050757506298968081105b156105255760646105188285611818565b6105229190611804565b91505b50919050565b600580546105389061186c565b80601f01602080910402602001604051908101604052809291908181526020018280546105649061186c565b80156105b15780601f10610586576101008083540402835291602001916105b1565b820191906000526020600020905b81548152906001019060200180831161059457829003601f168201915b505050505081565b60006105c6338484610dd2565b9392505050565b60005490565b73ffffffffffffffffffffffffffffffffffffffff8316600081815260026020908152604080832033808552925282205491921480159061063457507fffffffffffffffffffffffffffffffffffffffffffffffffffffffffffffffff8114155b15610692578281101561067c576040517f08c379a0000000000000000000000000000000000000000000000000000000008152600401610673906116db565b60405180910390fd5b610690853361068b8685611855565b610dd2565b505b61069d858585610e4f565b95945050505050565b7f000000000000000000000000000000000000000000000000000000000000000081565b60045481565b7f000000000000000000000000000000000000000000000000000000000000000081565b6106fc61101b565b73ffffffffffffffffffffffffffffffffffffffff1661071a610918565b73ffffffffffffffffffffffffffffffffffffffff1614610767576040517f08c379a0000000000000000000000000000000000000000000000000000000008152600401610673906117b7565b610771828261101f565b5050565b60408051808201909152600181527f3100000000000000000000000000000000000000000000000000000000000000602082015290565b60076020526000908152604090205460ff1681565b73ffffffffffffffffffffffffffffffffffffffff81166000908152600160205260409020545b919050565b6107f561101b565b73ffffffffffffffffffffffffffffffffffffffff16610813610918565b73ffffffffffffffffffffffffffffffffffffffff1614610860576040517f08c379a0000000000000000000000000000000000000000000000000000000008152600401610673906117b7565b60085460405160009173ffffffffffffffffffffffffffffffffffffffff16907f8be0079c531659141344cd1fd0a4f28419497f9722a3daafe3b4186f6b6457e0908390a3600880547fffffffffffffffffffffffff0000000000000000000000000000000000000000169055565b60066020526000908152604090205481565b33600090815260076020526040902080547fffffffffffffffffffffffffffffffffffffffffffffffffffffffffffffff00169055565b60085473ffffffffffffffffffffffffffffffffffffffff1690565b600380546105389061186c565b61094961101b565b73ffffffffffffffffffffffffffffffffffffffff16610967610918565b73ffffffffffffffffffffffffffffffffffffffff16146109b4576040517f08c379a0000000000000000000000000000000000000000000000000000000008152600401610673906117b7565b61077182826110df565b7f000000000000000000000000000000000000000000000000000000000000000081565b60006105c6338484610e4f565b33600090815260076020526040902080547fffffffffffffffffffffffffffffffffffffffffffffffffffffffffffffff00166001179055565b42841015610a63576040517f08c379a0000000000000000000000000000000000000000000000000000000008152600401610673906116a4565b73ffffffffffffffffffffffffffffffffffffffff8716600090815260066020526040812080547f0000000000000000000000000000000000000000000000000000000000000000918a918a918a919086610abd836118ba565b9190505589604051602001610ad796959493929190611577565b60405160208183030381529060405280519060200120905060007f000000000000000000000000000000000000000000000000000000000000000082604051602001610b249291906114b0565b604051602081830303815290604052805190602001209050600060018287878760405160008152602001604052604051610b6194939291906115b8565b6020604051602081039080840390855afa158015610b83573d6000803e3d6000fd5b50506040517fffffffffffffffffffffffffffffffffffffffffffffffffffffffffffffffe0015191505073ffffffffffffffffffffffffffffffffffffffff811615801590610bfe57508973ffffffffffffffffffffffffffffffffffffffff168173ffffffffffffffffffffffffffffffffffffffff16145b610c34576040517f08c379a000000000000000000000000000000000000000000000000000000000815260040161067390611780565b610c3f8a8a8a610dd2565b5050505050505050505050565b73ffffffffffffffffffffffffffffffffffffffff918216600090815260026020908152604080832093909416825291909152205490565b610c8c61101b565b73ffffffffffffffffffffffffffffffffffffffff16610caa610918565b73ffffffffffffffffffffffffffffffffffffffff1614610cf7576040517f08c379a0000000000000000000000000000000000000000000000000000000008152600401610673906117b7565b73ffffffffffffffffffffffffffffffffffffffff8116610d44576040517f08c379a000000000000000000000000000000000000000000000000000000000815260040161067390611647565b60085460405173ffffffffffffffffffffffffffffffffffffffff8084169216907f8be0079c531659141344cd1fd0a4f28419497f9722a3daafe3b4186f6b6457e090600090a3600880547fffffffffffffffffffffffff00000000000000000000000000000000000000001673ffffffffffffffffffffffffffffffffffffffff92909216919091179055565b73ffffffffffffffffffffffffffffffffffffffff80841660008181526002602090815260408083209487168084529490915280822085905551909291907f8c5be1e5ebec7d5bd14f71427d1e84f3dd0314c0f7b2291e5b200ac8c7c3b92590610e3d90869061156e565b60405180910390a35060019392505050565b73ffffffffffffffffffffffffffffffffffffffff8216600090815260076020526040812054839060ff1615610eb1576040517f08c379a000000000000000000000000000000000000000000000000000000000815260040161067390611712565b73ffffffffffffffffffffffffffffffffffffffff8416301480610f2057507f000000000000000000000000000000000000000000000000000000000000000073ffffffffffffffffffffffffffffffffffffffff168473ffffffffffffffffffffffffffffffffffffffff16145b80610f3f575073ffffffffffffffffffffffffffffffffffffffff8416155b15611003577f000000000000000000000000000000000000000000000000000000000000000073ffffffffffffffffffffffffffffffffffffffff16639a4c6a9a868786610f8c886111f1565b6040518563ffffffff1660e01b8152600401610fab9493929190611507565b602060405180830381600087803b158015610fc557600080fd5b505af1158015610fd9573d6000803e3d6000fd5b505050506040513d601f19601f82011682018060405250810190610ffd9190611498565b50611010565b61100e858585611227565b505b506001949350505050565b3390565b73ffffffffffffffffffffffffffffffffffffffff82166000908152600160205260409020546110509082906117ec565b73ffffffffffffffffffffffffffffffffffffffff8316600090815260016020526040812091909155546110859082906117ec565b600090815560405173ffffffffffffffffffffffffffffffffffffffff841691907fddf252ad1be2c89b69c2b068fc378daa952ba7f163c4a11628f55a4df523b3ef906110d390859061156e565b60405180910390a35050565b73ffffffffffffffffffffffffffffffffffffffff821660009081526001602052604090205481111561113e576040517f08c379a000000000000000000000000000000000000000000000000000000000815260040161067390611749565b73ffffffffffffffffffffffffffffffffffffffff821660009081526001602052604090205461116f908290611855565b73ffffffffffffffffffffffffffffffffffffffff8316600090815260016020526040812091909155546111a4908290611855565b600090815560405173ffffffffffffffffffffffffffffffffffffffff8416907fddf252ad1be2c89b69c2b068fc378daa952ba7f163c4a11628f55a4df523b3ef906110d390859061156e565b60008061120364174876e800846118f3565b9050801580159061121657506298968081105b156105255780610518846064611818565b73ffffffffffffffffffffffffffffffffffffffff8316600090815260016020526040812054821115611286576040517f08c379a000000000000000000000000000000000000000000000000000000000815260040161067390611749565b73ffffffffffffffffffffffffffffffffffffffff84166000908152600160205260409020546112b7908390611855565b73ffffffffffffffffffffffffffffffffffffffff80861660009081526001602052604080822093909355908516815220546112f49083906117ec565b73ffffffffffffffffffffffffffffffffffffffff80851660008181526001602052604090819020939093559151908616907fddf252ad1be2c89b69c2b068fc378daa952ba7f163c4a11628f55a4df523b3ef90610e3d90869061156e565b803573ffffffffffffffffffffffffffffffffffffffff811681146107e857600080fd5b600060208284031215611388578081fd5b6105c682611353565b600080604083850312156113a3578081fd5b6113ac83611353565b91506113ba60208401611353565b90509250929050565b6000806000606084860312156113d7578081fd5b6113e084611353565b92506113ee60208501611353565b9150604084013590509250925092565b600080600080600080600060e0888a031215611418578283fd5b61142188611353565b965061142f60208901611353565b95506040880135945060608801359350608088013560ff81168114611452578384fd5b9699959850939692959460a0840135945060c09093013592915050565b60008060408385031215611481578182fd5b61148a83611353565b946020939093013593505050565b6000602082840312156114a9578081fd5b5051919050565b7f190100000000000000000000000000000000000000000000000000000000000081526002810192909252602282015260420190565b73ffffffffffffffffffffffffffffffffffffffff91909116815260200190565b73ffffffffffffffffffffffffffffffffffffffff94851681529290931660208301526040820152606081019190915260800190565b73ffffffffffffffffffffffffffffffffffffffff929092168252602082015260400190565b901515815260200190565b90815260200190565b95865273ffffffffffffffffffffffffffffffffffffffff94851660208701529290931660408501526060840152608083019190915260a082015260c00190565b93845260ff9290921660208401526040830152606082015260800190565b6000602080835283518082850152825b81811015611602578581018301518582016040015282016115e6565b818111156116135783604083870101525b50601f017fffffffffffffffffffffffffffffffffffffffffffffffffffffffffffffffe016929092016040019392505050565b60208082526026908201527f4f776e61626c653a206e6577206f776e657220697320746865207a65726f206160408201527f6464726573730000000000000000000000000000000000000000000000000000606082015260800190565b6020808252601d908201527f45524332305065726d69743a206578706972656420646561646c696e65000000604082015260600190565b6020808252601c908201527f45524332303a20496e73756666696369656e7420617070726f76616c00000000604082015260600190565b60208082526010908201527f546172676574206f70746564206f757400000000000000000000000000000000604082015260600190565b6020808252601b908201527f45524332303a20496e73756666696369656e742062616c616e63650000000000604082015260600190565b6020808252601e908201527f45524332305065726d69743a20696e76616c6964207369676e61747572650000604082015260600190565b6020808252818101527f4f776e61626c653a2063616c6c6572206973206e6f7420746865206f776e6572604082015260600190565b600082198211156117ff576117ff611907565b500190565b60008261181357611813611936565b500490565b6000817fffffffffffffffffffffffffffffffffffffffffffffffffffffffffffffffff048311821515161561185057611850611907565b500290565b60008282101561186757611867611907565b500390565b60028104600182168061188057607f821691505b60208210811415610525577f4e487b7100000000000000000000000000000000000000000000000000000000600052602260045260246000fd5b60007fffffffffffffffffffffffffffffffffffffffffffffffffffffffffffffffff8214156118ec576118ec611907565b5060010190565b60008261190257611902611936565b500690565b7f4e487b7100000000000000000000000000000000000000000000000000000000600052601160045260246000fd5b7f4e487b7100000000000000000000000000000000000000000000000000000000600052601260045260246000fdfea2646970667358221220804d1a328cd19cd12dfa5e9e0ec08d1e75328b2c44766e43d5e9c1bfcf245c2864736f6c634300080000338b73c3c69bb8fe3d512ecc4cf759cc79239f7b179b0ffacaa9a75d522b39400f",
  "devdoc": {
    "kind": "dev",
    "methods": {
      "addDelegate(address)": {
        "details": "Enable a delegate to act on the behalf of caller"
      },
      "addDelegateBySignature(address,address,uint256,uint8,bytes32,bytes32)": {
        "details": "Add a delegate through an encoded signature"
      },
      "adjustedEthUsdPrice(uint8,uint256,uint256)": {
        "returns": {
          "price": "The ETH/USD price, adjusted by the `bidAskAdjustment` (if applicable) for the given buy/sell side."
        }
      },
      "allowance(address,address)": {
        "details": "Returns the remaining number of tokens that `spender` will be allowed to spend on behalf of `owner` through {transferFrom}. This is zero by default. This value changes when {approve} or {transferFrom} are called."
      },
      "bidAskAdjustment()": {
        "returns": {
          "adjustment": "The sliding-price bid/ask adjustment"
        }
      },
      "burn(address,address,uint256,uint256)": {
        "details": "Burn USM in exchange for ETH.",
        "params": {
          "from": "address to deduct the USM from.",
          "minEthOut": "Minimum accepted ETH for a successful burn.",
          "to": "address to send the ETH to.",
          "usmToBurn": "Amount of USM to burn."
        }
      },
      "checkIfUnderwater(uint256,uint256,uint256,uint256,uint256)": {
        "returns": {
          "timeSystemWentUnderwater_": "The time at which we first detected the system was underwater (debt ratio > MAX_DEBT_RATIO), based on the current oracle price and pool ETH and USM; or 0 if we're not currently underwater.",
          "usmSupplyForFumBuys": "The current supply of USM *for purposes of calculating the FUM buy price,* and therefore for `fumFromFund()`.  The \"supply for FUM buys\" is the *lesser* of the actual current USM supply, and the USM amount that would make debt ratio = MAX_DEBT_RATIO.  Example: 1. Suppose the system currently contains 50 ETH at price $1,000 (total pool value: $50,000), with an actual USM supply    of 30,000 USM.  Then debt ratio = 30,000 / $50,000 = 60%: < MAX 80%, so `usmSupplyForFumBuys` = 30,000. 2. Now suppose ETH/USD halves to $500.  Then pool value halves to $25,000, and debt ratio doubles to 120%.  Now    `usmSupplyForFumBuys` instead = 20,000: the USM quantity at which debt ratio would equal 80% (20,000 / $25,000).    (Call this the \"80% supply\".) 3. ...Except, we also gradually increase the supply over time while we remain underwater.  This has the effect of    *reducing* the FUM buy price inferred from that supply (higher JacobUSM supply -> smaller buffer -> lower FUM price).    The math we use gradually increases the supply from its initial \"80% supply\" value, where debt ratio = MAX_DEBT_RATIO    (20,000 above), to a theoretical maximum \"100% supply\" value, where debt ratio = 100% (in the $500 example above,    this would be 25,000).  (Or the actual supply, whichever is lower: we never increase `usmSupplyForFumBuys` above    `usmActualSupply`.)  The climb from the initial 80% supply (20,000) to the 100% supply (25,000) is at a rate that    brings it \"halfway closer per MIN_FUM_BUY_PRICE_HALF_LIFE (eg, 1 day)\": so three days after going underwater, the    supply returned will be 25,000 - 0.5**3 * (25,000 - 20,000) = 24,375."
        }
      },
      "debtRatio(uint256,uint256,uint256)": {
        "returns": {
          "ratio": "Debt ratio (or 0 if there's currently 0 ETH in the pool/price = 0: these should never happen after launch)"
        }
      },
      "defund(address,address,uint256,uint256)": {
        "params": {
          "from": "address to deduct the FUM from.",
          "fumToBurn": "Amount of FUM to burn.",
          "minEthOut": "Minimum accepted ETH for a successful defund.",
          "to": "address to send the ETH to."
        }
      },
      "ethBuffer(uint256,uint256,uint256,bool)": {
        "returns": {
          "buffer": "ETH buffer"
        }
      },
      "ethFromBurn((uint256,uint256,uint256,uint256,uint256,uint256,uint256),uint256)": {
        "params": {
          "usmIn": "The amount of USM passed to burn()"
        },
        "returns": {
          "ethOut": "The amount of ETH to receive in exchange"
        }
      },
      "ethFromDefund((uint256,uint256,uint256,uint256,uint256,uint256,uint256),uint256,uint256)": {
        "params": {
          "fumIn": "The amount of FUM passed to defund()"
        },
        "returns": {
          "ethOut": "The amount of ETH to receive in exchange"
        }
      },
      "ethPool()": {
        "returns": {
          "pool": "ETH pool"
        }
      },
      "ethToFum(uint256,uint256)": {
        "params": {
          "ethAmount": "The amount of ETH to convert"
        },
        "returns": {
          "fumOut": "The amount of FUM"
        }
      },
      "ethToUsm(uint256,uint256,bool)": {
        "params": {
          "ethAmount": "The amount of ETH to convert"
        },
        "returns": {
          "usmOut": "The amount of USM"
        }
      },
      "fumFromFund((uint256,uint256,uint256,uint256,uint256,uint256,uint256),uint256,uint256,uint256)": {
        "params": {
          "ethIn": "The amount of ETH passed to fund()"
        },
        "returns": {
          "fumOut": "The amount of FUM to receive in exchange"
        }
      },
      "fumPrice(uint8,uint256,uint256,uint256,uint256)": {
        "params": {
          "usmEffectiveSupply": "should be either the actual current USM supply, or, when calculating the FUM *buy* price, the return value of `usmSupplyForFumBuys()`."
        },
        "returns": {
          "price": "FUM price in ETH terms"
        }
      },
      "fumToEth(uint256)": {
        "params": {
          "fumAmount": "The amount of FUM to convert"
        },
        "returns": {
          "ethOut": "The amount of ETH"
        }
      },
      "fumTotalSupply()": {
        "returns": {
          "supply": "the total supply of FUM.  Users of this `IUSM` interface, like `USMView`, need to call this rather than `usm.fum().totalSupply()` directly, because `IUSM` doesn't (and shouldn't) know about the `FUM` type."
        }
      },
      "fund(address,uint256)": {
        "params": {
          "minFumOut": "Minimum accepted FUM for a successful fund.",
          "to": "address to send the FUM to."
        }
      },
      "loadState()": {
        "returns": {
          "ls": "A `LoadedState` object packaging the system's current state: `ethUsdPrice`, `bidAskAdjustment`, etc (see `storedState`), plus the ETH and USM balances.  `bidAskAdjustment` is also brought up to date, ie, decayed closer to 1 according to how much time has passed since it was stored: so if `bidAskAdjustment` was 2.0 five minutes ago, and `BID_ASK_ADJUSTMENT_DECAY_PER_SECOND` corresponds to a half-life of 1 minute, `ls.bidAskAdjustment` is set to 1.03125 (see `bidAskAdjustment(storedTime, storedAdjustment, currentTime)`)."
        }
      },
      "mint(address,uint256)": {
        "params": {
          "minUsmOut": "Minimum accepted USM for a successful mint.",
          "to": "address to send the USM to."
        }
      },
      "permit(address,address,uint256,uint256,uint8,bytes32,bytes32)": {
        "details": "See {IERC2612-permit}. In cases where the free option is not a concern, deadline can simply be set to uint(-1), so it should be seen as an optional parameter"
      },
      "revokeDelegate(address)": {
        "details": "Stop a delegate from acting on the behalf of caller"
      },
      "totalSupply()": {
        "details": "Returns the amount of tokens in existence."
      },
      "usmFromMint((uint256,uint256,uint256,uint256,uint256,uint256,uint256),uint256)": {
        "params": {
          "ethIn": "The amount of ETH passed to mint()"
        },
        "returns": {
          "usmOut": "The amount of USM to receive in exchange"
        }
      },
      "usmPrice(uint8,uint256)": {
        "returns": {
          "price": "USM price in ETH terms"
        }
      },
      "usmToEth(uint256,uint256,bool)": {
        "params": {
          "usmAmount": "The amount of USM to convert"
        },
        "returns": {
          "ethOut": "The amount of ETH"
        }
      },
      "version()": {
        "details": "Setting the version as a function so that it can be overriden"
      }
    },
    "version": 1
  },
  "userdoc": {
    "kind": "user",
    "methods": {
      "bidAskAdjustment()": {
        "notice": "The current bid/ask adjustment, equal to the stored value decayed over time towards its stable value, 1.  This adjustment is intended as a measure of \"how long-ETH recent user activity has been\", so that we can slide price accordingly: if recent activity was mostly long-ETH (fund() and burn()), raise FUM buy price/reduce USM sell price; if recent activity was short-ETH (defund() and mint()), reduce FUM sell price/raise USM buy price."
      },
      "bidAskAdjustment(uint256,uint256,uint256)": {
        "notice": "Returns the given stored bidAskAdjustment value, updated (decayed towards 1) to the current time."
      },
      "debtRatio(uint256,uint256,uint256)": {
        "notice": "Calculate debt ratio for a given eth to USM price: ratio of the outstanding USM (amount of USM in total supply), to the current ETH pool value in USD (ETH qty * ETH/USD price)."
      },
      "defund(address,address,uint256,uint256)": {
        "notice": "Defunds the pool by redeeming FUM in exchange for equivalent ETH from the pool."
      },
      "ethBuffer(uint256,uint256,uint256,bool)": {
        "notice": "Calculate the amount of ETH in the buffer."
      },
      "ethFromBurn((uint256,uint256,uint256,uint256,uint256,uint256,uint256),uint256)": {
        "notice": "How much ETH a burner currently gets from burning usmIn USM, accounting for adjustment and sliding prices."
      },
      "ethFromDefund((uint256,uint256,uint256,uint256,uint256,uint256,uint256),uint256,uint256)": {
        "notice": "How much ETH a defunder currently gets back for fumIn FUM, accounting for adjustment and sliding prices."
      },
      "ethPool()": {
        "notice": "Total amount of ETH in the pool (ie, in the contract)."
      },
      "ethToFum(uint256,uint256)": {
        "notice": "Convert ETH amount to FUM using a ETH/USD price."
      },
      "ethToUsm(uint256,uint256,bool)": {
        "notice": "Convert ETH amount to USM using a ETH/USD price."
      },
      "fumFromFund((uint256,uint256,uint256,uint256,uint256,uint256,uint256),uint256,uint256,uint256)": {
        "notice": "How much FUM a funder currently gets back for ethIn ETH, accounting for adjustment and sliding prices.  Note that we expect `ls.usmTotalSupply` of the LoadedState passed in to not necessarily be the actual current total USM supply, but the *effective* USM supply for purposes of this operation - which can be a lower number, artificially increasing the FUM price.  This is our \"minFumBuyPrice\" logic, used to prevent FUM buyers from paying tiny or negative prices when the system is underwater or near it."
      },
      "fumPrice(uint8,uint256,uint256,uint256,uint256)": {
        "notice": "Calculate the *marginal* price of FUM (in ETH terms): that is, of the next unit, before the price starts rising."
      },
      "fumToEth(uint256)": {
        "notice": "Convert FUM amount to ETH using a ETH/USD price."
      },
      "fumTotalSupply()": {
        "notice": "Total amount of ETH in the pool (ie, in the contract)."
      },
      "fund(address,uint256)": {
        "notice": "Funds the pool with ETH, minting new FUM and sending it to the given address, but only if the amount minted >= minFumOut.  The amount of ETH is passed in as msg.value."
      },
      "mint(address,uint256)": {
        "notice": "Mint new USM, sending it to the given address, and only if the amount minted >= minUsmOut.  The amount of ETH is passed in as msg.value."
      },
      "usmFromMint((uint256,uint256,uint256,uint256,uint256,uint256,uint256),uint256)": {
        "notice": "How much USM a minter currently gets back for ethIn ETH, accounting for adjustment and sliding prices."
      },
      "usmPrice(uint8,uint256)": {
        "notice": "Calculate the *marginal* price of USM (in ETH terms): that is, of the next unit, before the price start sliding."
      },
      "usmToEth(uint256,uint256,bool)": {
        "notice": "Convert USM amount to ETH using a ETH/USD price."
      }
    },
    "version": 1
  },
  "storageLayout": {
    "storage": [
      {
        "astId": 796,
        "contract": "contracts/USMDIA.sol:USMDIA",
        "label": "_totalSupply",
        "offset": 0,
        "slot": "0",
        "type": "t_uint256"
      },
      {
        "astId": 800,
        "contract": "contracts/USMDIA.sol:USMDIA",
        "label": "_balanceOf",
        "offset": 0,
        "slot": "1",
        "type": "t_mapping(t_address,t_uint256)"
      },
      {
        "astId": 806,
        "contract": "contracts/USMDIA.sol:USMDIA",
        "label": "_allowance",
        "offset": 0,
        "slot": "2",
        "type": "t_mapping(t_address,t_mapping(t_address,t_uint256))"
      },
      {
        "astId": 808,
        "contract": "contracts/USMDIA.sol:USMDIA",
        "label": "symbol",
        "offset": 0,
        "slot": "3",
        "type": "t_string_storage"
      },
      {
        "astId": 811,
        "contract": "contracts/USMDIA.sol:USMDIA",
        "label": "decimals",
        "offset": 0,
        "slot": "4",
        "type": "t_uint256"
      },
      {
        "astId": 814,
        "contract": "contracts/USMDIA.sol:USMDIA",
        "label": "name",
        "offset": 0,
        "slot": "5",
        "type": "t_string_storage"
      },
      {
        "astId": 9795,
        "contract": "contracts/USMDIA.sol:USMDIA",
        "label": "nonces",
        "offset": 0,
        "slot": "6",
        "type": "t_mapping(t_address,t_uint256)"
      },
      {
        "astId": 7289,
        "contract": "contracts/USMDIA.sol:USMDIA",
        "label": "optedOut",
        "offset": 0,
        "slot": "7",
        "type": "t_mapping(t_address,t_bool)"
      },
      {
        "astId": 1214,
        "contract": "contracts/USMDIA.sol:USMDIA",
        "label": "signatureCount",
        "offset": 0,
        "slot": "8",
        "type": "t_mapping(t_address,t_uint256)"
      },
      {
        "astId": 1220,
        "contract": "contracts/USMDIA.sol:USMDIA",
        "label": "delegated",
        "offset": 0,
        "slot": "9",
        "type": "t_mapping(t_address,t_mapping(t_address,t_bool))"
      },
      {
        "astId": 2106,
        "contract": "contracts/USMDIA.sol:USMDIA",
        "label": "storedState",
        "offset": 0,
        "slot": "10",
        "type": "t_struct(StoredState)2078_storage"
      }
    ],
    "types": {
      "t_address": {
        "encoding": "inplace",
        "label": "address",
        "numberOfBytes": "20"
      },
      "t_bool": {
        "encoding": "inplace",
        "label": "bool",
        "numberOfBytes": "1"
      },
      "t_mapping(t_address,t_bool)": {
        "encoding": "mapping",
        "key": "t_address",
        "label": "mapping(address => bool)",
        "numberOfBytes": "32",
        "value": "t_bool"
      },
      "t_mapping(t_address,t_mapping(t_address,t_bool))": {
        "encoding": "mapping",
        "key": "t_address",
        "label": "mapping(address => mapping(address => bool))",
        "numberOfBytes": "32",
        "value": "t_mapping(t_address,t_bool)"
      },
      "t_mapping(t_address,t_mapping(t_address,t_uint256))": {
        "encoding": "mapping",
        "key": "t_address",
        "label": "mapping(address => mapping(address => uint256))",
        "numberOfBytes": "32",
        "value": "t_mapping(t_address,t_uint256)"
      },
      "t_mapping(t_address,t_uint256)": {
        "encoding": "mapping",
        "key": "t_address",
        "label": "mapping(address => uint256)",
        "numberOfBytes": "32",
        "value": "t_uint256"
      },
      "t_string_storage": {
        "encoding": "bytes",
        "label": "string",
        "numberOfBytes": "32"
      },
      "t_struct(StoredState)2078_storage": {
        "encoding": "inplace",
        "label": "struct USMTemplate.StoredState",
        "members": [
          {
            "astId": 2069,
            "contract": "contracts/USMDIA.sol:USMDIA",
            "label": "timeSystemWentUnderwater",
            "offset": 0,
            "slot": "0",
            "type": "t_uint32"
          },
          {
            "astId": 2071,
            "contract": "contracts/USMDIA.sol:USMDIA",
            "label": "ethUsdPriceTimestamp",
            "offset": 4,
            "slot": "0",
            "type": "t_uint32"
          },
          {
            "astId": 2073,
            "contract": "contracts/USMDIA.sol:USMDIA",
            "label": "ethUsdPrice",
            "offset": 8,
            "slot": "0",
            "type": "t_uint80"
          },
          {
            "astId": 2075,
            "contract": "contracts/USMDIA.sol:USMDIA",
            "label": "bidAskAdjustmentTimestamp",
            "offset": 18,
            "slot": "0",
            "type": "t_uint32"
          },
          {
            "astId": 2077,
            "contract": "contracts/USMDIA.sol:USMDIA",
            "label": "bidAskAdjustment",
            "offset": 22,
            "slot": "0",
            "type": "t_uint80"
          }
        ],
        "numberOfBytes": "32"
      },
      "t_uint256": {
        "encoding": "inplace",
        "label": "uint256",
        "numberOfBytes": "32"
      },
      "t_uint32": {
        "encoding": "inplace",
        "label": "uint32",
        "numberOfBytes": "4"
      },
      "t_uint80": {
        "encoding": "inplace",
        "label": "uint80",
        "numberOfBytes": "10"
      }
    }
  }
}