{
  "address": "0x05D61818Da3a60BDCd831086Bf510c3f04c0b8A2",
  "abi": [
    {
      "inputs": [
        {
          "internalType": "contract DiaOracleAdapter",
          "name": "oracle_",
          "type": "address"
        },
        {
          "internalType": "address[]",
          "name": "optOut_",
          "type": "address[]"
        },
        {
          "internalType": "contract IERC20",
          "name": "collateral_",
          "type": "address"
        },
        {
          "internalType": "string",
          "name": "syntheticFeed_",
          "type": "string"
        }
      ],
      "stateMutability": "nonpayable",
      "type": "constructor"
    },
    {
      "anonymous": false,
      "inputs": [
        {
          "indexed": true,
          "internalType": "address",
          "name": "owner",
          "type": "address"
        },
        {
          "indexed": true,
          "internalType": "address",
          "name": "spender",
          "type": "address"
        },
        {
          "indexed": false,
          "internalType": "uint256",
          "name": "value",
          "type": "uint256"
        }
      ],
      "name": "Approval",
      "type": "event"
    },
    {
      "anonymous": false,
      "inputs": [
        {
          "indexed": false,
          "internalType": "uint256",
          "name": "adjustment",
          "type": "uint256"
        }
      ],
      "name": "BidAskAdjustmentChanged",
      "type": "event"
    },
    {
      "anonymous": false,
      "inputs": [
        {
          "indexed": true,
          "internalType": "address",
          "name": "user",
          "type": "address"
        },
        {
          "indexed": true,
          "internalType": "address",
          "name": "delegate",
          "type": "address"
        },
        {
          "indexed": false,
          "internalType": "bool",
          "name": "enabled",
          "type": "bool"
        }
      ],
      "name": "Delegate",
      "type": "event"
    },
    {
      "anonymous": false,
      "inputs": [
        {
          "indexed": false,
          "internalType": "uint256",
          "name": "timestamp",
          "type": "uint256"
        },
        {
          "indexed": false,
          "internalType": "uint256",
          "name": "price",
          "type": "uint256"
        }
      ],
      "name": "PriceChanged",
      "type": "event"
    },
    {
      "anonymous": false,
      "inputs": [
        {
          "indexed": true,
          "internalType": "address",
          "name": "from",
          "type": "address"
        },
        {
          "indexed": true,
          "internalType": "address",
          "name": "to",
          "type": "address"
        },
        {
          "indexed": false,
          "internalType": "uint256",
          "name": "value",
          "type": "uint256"
        }
      ],
      "name": "Transfer",
      "type": "event"
    },
    {
      "anonymous": false,
      "inputs": [
        {
          "indexed": false,
          "internalType": "bool",
          "name": "underwater",
          "type": "bool"
        }
      ],
      "name": "UnderwaterStatusChanged",
      "type": "event"
    },
    {
      "inputs": [],
      "name": "BID_ASK_ADJUSTMENT_DECAY_PER_SECOND",
      "outputs": [
        {
          "internalType": "uint256",
          "name": "",
          "type": "uint256"
        }
      ],
      "stateMutability": "view",
      "type": "function"
    },
    {
      "inputs": [],
      "name": "BID_ASK_ADJUSTMENT_ZERO_OUT_PERIOD",
      "outputs": [
        {
          "internalType": "uint256",
          "name": "",
          "type": "uint256"
        }
      ],
      "stateMutability": "view",
      "type": "function"
    },
    {
      "inputs": [],
      "name": "BILLION",
      "outputs": [
        {
          "internalType": "uint256",
          "name": "",
          "type": "uint256"
        }
      ],
      "stateMutability": "view",
      "type": "function"
    },
    {
      "inputs": [],
      "name": "DELEGABLE_DOMAIN",
      "outputs": [
        {
          "internalType": "bytes32",
          "name": "",
          "type": "bytes32"
        }
      ],
      "stateMutability": "view",
      "type": "function"
    },
    {
      "inputs": [],
      "name": "DOMAIN_SEPARATOR",
      "outputs": [
        {
          "internalType": "bytes32",
          "name": "",
          "type": "bytes32"
        }
      ],
      "stateMutability": "view",
      "type": "function"
    },
    {
      "inputs": [],
      "name": "FOUR_WAD",
      "outputs": [
        {
          "internalType": "uint256",
          "name": "",
          "type": "uint256"
        }
      ],
      "stateMutability": "view",
      "type": "function"
    },
    {
      "inputs": [],
      "name": "HALF_BILLION",
      "outputs": [
        {
          "internalType": "uint256",
          "name": "",
          "type": "uint256"
        }
      ],
      "stateMutability": "view",
      "type": "function"
    },
    {
      "inputs": [],
      "name": "MAX_DEBT_RATIO",
      "outputs": [
        {
          "internalType": "uint256",
          "name": "",
          "type": "uint256"
        }
      ],
      "stateMutability": "view",
      "type": "function"
    },
    {
      "inputs": [],
      "name": "MIN_FUM_BUY_PRICE_DECAY_PER_SECOND",
      "outputs": [
        {
          "internalType": "uint256",
          "name": "",
          "type": "uint256"
        }
      ],
      "stateMutability": "view",
      "type": "function"
    },
    {
      "inputs": [],
      "name": "PERMIT_TYPEHASH",
      "outputs": [
        {
          "internalType": "bytes32",
          "name": "",
          "type": "bytes32"
        }
      ],
      "stateMutability": "view",
      "type": "function"
    },
    {
      "inputs": [],
      "name": "SIGNATURE_TYPEHASH",
      "outputs": [
        {
          "internalType": "bytes32",
          "name": "",
          "type": "bytes32"
        }
      ],
      "stateMutability": "view",
      "type": "function"
    },
    {
      "inputs": [],
      "name": "WAD",
      "outputs": [
        {
          "internalType": "uint256",
          "name": "",
          "type": "uint256"
        }
      ],
      "stateMutability": "view",
      "type": "function"
    },
    {
      "inputs": [
        {
          "internalType": "address",
          "name": "delegate",
          "type": "address"
        }
      ],
      "name": "addDelegate",
      "outputs": [],
      "stateMutability": "nonpayable",
      "type": "function"
    },
    {
      "inputs": [
        {
          "internalType": "address",
          "name": "user",
          "type": "address"
        },
        {
          "internalType": "address",
          "name": "delegate",
          "type": "address"
        },
        {
          "internalType": "uint256",
          "name": "deadline",
          "type": "uint256"
        },
        {
          "internalType": "uint8",
          "name": "v",
          "type": "uint8"
        },
        {
          "internalType": "bytes32",
          "name": "r",
          "type": "bytes32"
        },
        {
          "internalType": "bytes32",
          "name": "s",
          "type": "bytes32"
        }
      ],
      "name": "addDelegateBySignature",
      "outputs": [],
      "stateMutability": "nonpayable",
      "type": "function"
    },
    {
      "inputs": [
        {
          "internalType": "enum IUSM.Side",
          "name": "side",
          "type": "uint8"
        },
        {
          "internalType": "uint256",
          "name": "ethUsdPrice",
          "type": "uint256"
        },
        {
          "internalType": "uint256",
          "name": "adjustment",
          "type": "uint256"
        }
      ],
      "name": "adjustedEthUsdPrice",
      "outputs": [
        {
          "internalType": "uint256",
          "name": "price",
          "type": "uint256"
        }
      ],
      "stateMutability": "pure",
      "type": "function"
    },
    {
      "inputs": [
        {
          "internalType": "address",
          "name": "owner",
          "type": "address"
        },
        {
          "internalType": "address",
          "name": "spender",
          "type": "address"
        }
      ],
      "name": "allowance",
      "outputs": [
        {
          "internalType": "uint256",
          "name": "",
          "type": "uint256"
        }
      ],
      "stateMutability": "view",
      "type": "function"
    },
    {
      "inputs": [
        {
          "internalType": "address",
          "name": "spender",
          "type": "address"
        },
        {
          "internalType": "uint256",
          "name": "wad",
          "type": "uint256"
        }
      ],
      "name": "approve",
      "outputs": [
        {
          "internalType": "bool",
          "name": "",
          "type": "bool"
        }
      ],
      "stateMutability": "nonpayable",
      "type": "function"
    },
    {
      "inputs": [
        {
          "internalType": "address",
          "name": "guy",
          "type": "address"
        }
      ],
      "name": "balanceOf",
      "outputs": [
        {
          "internalType": "uint256",
          "name": "",
          "type": "uint256"
        }
      ],
      "stateMutability": "view",
      "type": "function"
    },
    {
      "inputs": [
        {
          "internalType": "uint256",
          "name": "storedTime",
          "type": "uint256"
        },
        {
          "internalType": "uint256",
          "name": "storedAdjustment",
          "type": "uint256"
        },
        {
          "internalType": "uint256",
          "name": "currentTime",
          "type": "uint256"
        }
      ],
      "name": "bidAskAdjustment",
      "outputs": [
        {
          "internalType": "uint256",
          "name": "adjustment",
          "type": "uint256"
        }
      ],
      "stateMutability": "pure",
      "type": "function"
    },
    {
      "inputs": [],
      "name": "bidAskAdjustment",
      "outputs": [
        {
          "internalType": "uint256",
          "name": "adjustment",
          "type": "uint256"
        }
      ],
      "stateMutability": "view",
      "type": "function"
    },
    {
      "inputs": [
        {
          "internalType": "address",
          "name": "from",
          "type": "address"
        },
        {
          "internalType": "address",
          "name": "to",
          "type": "address"
        },
        {
          "internalType": "uint256",
          "name": "usmToBurn",
          "type": "uint256"
        },
        {
          "internalType": "uint256",
          "name": "minEthOut",
          "type": "uint256"
        }
      ],
      "name": "burn",
      "outputs": [
        {
          "internalType": "uint256",
          "name": "ethOut",
          "type": "uint256"
        }
      ],
      "stateMutability": "nonpayable",
      "type": "function"
    },
    {
      "inputs": [
        {
          "internalType": "uint256",
          "name": "usmActualSupply",
          "type": "uint256"
        },
        {
          "internalType": "uint256",
          "name": "ethPool_",
          "type": "uint256"
        },
        {
          "internalType": "uint256",
          "name": "ethUsdPrice",
          "type": "uint256"
        },
        {
          "internalType": "uint256",
          "name": "oldTimeUnderwater",
          "type": "uint256"
        },
        {
          "internalType": "uint256",
          "name": "currentTime",
          "type": "uint256"
        }
      ],
      "name": "checkIfUnderwater",
      "outputs": [
        {
          "internalType": "uint256",
          "name": "timeSystemWentUnderwater_",
          "type": "uint256"
        },
        {
          "internalType": "uint256",
          "name": "usmSupplyForFumBuys",
          "type": "uint256"
        },
        {
          "internalType": "uint256",
          "name": "debtRatio_",
          "type": "uint256"
        }
      ],
      "stateMutability": "pure",
      "type": "function"
    },
    {
      "inputs": [],
      "name": "collateral",
      "outputs": [
        {
          "internalType": "contract IERC20",
          "name": "",
          "type": "address"
        }
      ],
      "stateMutability": "view",
      "type": "function"
    },
    {
      "inputs": [
        {
          "internalType": "uint256",
          "name": "ethUsdPrice",
          "type": "uint256"
        },
        {
          "internalType": "uint256",
          "name": "ethInPool",
          "type": "uint256"
        },
        {
          "internalType": "uint256",
          "name": "usmSupply",
          "type": "uint256"
        }
      ],
      "name": "debtRatio",
      "outputs": [
        {
          "internalType": "uint256",
          "name": "ratio",
          "type": "uint256"
        }
      ],
      "stateMutability": "pure",
      "type": "function"
    },
    {
      "inputs": [],
      "name": "decimals",
      "outputs": [
        {
          "internalType": "uint256",
          "name": "",
          "type": "uint256"
        }
      ],
      "stateMutability": "view",
      "type": "function"
    },
    {
      "inputs": [
        {
          "internalType": "address",
          "name": "from",
          "type": "address"
        },
        {
          "internalType": "address",
          "name": "to",
          "type": "address"
        },
        {
          "internalType": "uint256",
          "name": "fumToBurn",
          "type": "uint256"
        },
        {
          "internalType": "uint256",
          "name": "minEthOut",
          "type": "uint256"
        }
      ],
      "name": "defund",
      "outputs": [
        {
          "internalType": "uint256",
          "name": "ethOut",
          "type": "uint256"
        }
      ],
      "stateMutability": "nonpayable",
      "type": "function"
    },
    {
      "inputs": [
        {
          "internalType": "address",
          "name": "",
          "type": "address"
        },
        {
          "internalType": "address",
          "name": "",
          "type": "address"
        }
      ],
      "name": "delegated",
      "outputs": [
        {
          "internalType": "bool",
          "name": "",
          "type": "bool"
        }
      ],
      "stateMutability": "view",
      "type": "function"
    },
    {
      "inputs": [
        {
          "internalType": "uint256",
          "name": "ethUsdPrice",
          "type": "uint256"
        },
        {
          "internalType": "uint256",
          "name": "ethInPool",
          "type": "uint256"
        },
        {
          "internalType": "uint256",
          "name": "usmSupply",
          "type": "uint256"
        },
        {
          "internalType": "bool",
          "name": "roundUp",
          "type": "bool"
        }
      ],
      "name": "ethBuffer",
      "outputs": [
        {
          "internalType": "int256",
          "name": "buffer",
          "type": "int256"
        }
      ],
      "stateMutability": "pure",
      "type": "function"
    },
    {
      "inputs": [
        {
          "components": [
            {
              "internalType": "uint256",
              "name": "timeSystemWentUnderwater",
              "type": "uint256"
            },
            {
              "internalType": "uint256",
              "name": "ethUsdPriceTimestamp",
              "type": "uint256"
            },
            {
              "internalType": "uint256",
              "name": "ethUsdPrice",
              "type": "uint256"
            },
            {
              "internalType": "uint256",
              "name": "bidAskAdjustmentTimestamp",
              "type": "uint256"
            },
            {
              "internalType": "uint256",
              "name": "bidAskAdjustment",
              "type": "uint256"
            },
            {
              "internalType": "uint256",
              "name": "ethPool",
              "type": "uint256"
            },
            {
              "internalType": "uint256",
              "name": "usmTotalSupply",
              "type": "uint256"
            }
          ],
          "internalType": "struct USMTemplate.LoadedState",
          "name": "ls",
          "type": "tuple"
        },
        {
          "internalType": "uint256",
          "name": "usmIn",
          "type": "uint256"
        }
      ],
      "name": "ethFromBurn",
      "outputs": [
        {
          "internalType": "uint256",
          "name": "ethOut",
          "type": "uint256"
        },
        {
          "internalType": "uint256",
          "name": "adjGrowthFactor",
          "type": "uint256"
        }
      ],
      "stateMutability": "pure",
      "type": "function"
    },
    {
      "inputs": [
        {
          "components": [
            {
              "internalType": "uint256",
              "name": "timeSystemWentUnderwater",
              "type": "uint256"
            },
            {
              "internalType": "uint256",
              "name": "ethUsdPriceTimestamp",
              "type": "uint256"
            },
            {
              "internalType": "uint256",
              "name": "ethUsdPrice",
              "type": "uint256"
            },
            {
              "internalType": "uint256",
              "name": "bidAskAdjustmentTimestamp",
              "type": "uint256"
            },
            {
              "internalType": "uint256",
              "name": "bidAskAdjustment",
              "type": "uint256"
            },
            {
              "internalType": "uint256",
              "name": "ethPool",
              "type": "uint256"
            },
            {
              "internalType": "uint256",
              "name": "usmTotalSupply",
              "type": "uint256"
            }
          ],
          "internalType": "struct USMTemplate.LoadedState",
          "name": "ls",
          "type": "tuple"
        },
        {
          "internalType": "uint256",
          "name": "fumSupply",
          "type": "uint256"
        },
        {
          "internalType": "uint256",
          "name": "fumIn",
          "type": "uint256"
        }
      ],
      "name": "ethFromDefund",
      "outputs": [
        {
          "internalType": "uint256",
          "name": "ethOut",
          "type": "uint256"
        },
        {
          "internalType": "uint256",
          "name": "adjShrinkFactor",
          "type": "uint256"
        }
      ],
      "stateMutability": "pure",
      "type": "function"
    },
    {
      "inputs": [],
      "name": "ethPool",
      "outputs": [
        {
          "internalType": "uint256",
          "name": "pool",
          "type": "uint256"
        }
      ],
      "stateMutability": "view",
      "type": "function"
    },
    {
      "inputs": [
        {
          "internalType": "uint256",
          "name": "ethUsdPrice",
          "type": "uint256"
        },
        {
          "internalType": "uint256",
          "name": "ethAmount",
          "type": "uint256"
        }
      ],
      "name": "ethToFum",
      "outputs": [
        {
          "internalType": "uint256",
          "name": "fumOut",
          "type": "uint256"
        }
      ],
      "stateMutability": "view",
      "type": "function"
    },
    {
      "inputs": [
        {
          "internalType": "uint256",
          "name": "ethUsdPrice",
          "type": "uint256"
        },
        {
          "internalType": "uint256",
          "name": "ethAmount",
          "type": "uint256"
        },
        {
          "internalType": "bool",
          "name": "roundUp",
          "type": "bool"
        }
      ],
      "name": "ethToUsm",
      "outputs": [
        {
          "internalType": "uint256",
          "name": "usmOut",
          "type": "uint256"
        }
      ],
      "stateMutability": "pure",
      "type": "function"
    },
    {
      "inputs": [],
      "name": "fum",
      "outputs": [
        {
          "internalType": "contract FUM",
          "name": "",
          "type": "address"
        }
      ],
      "stateMutability": "view",
      "type": "function"
    },
    {
      "inputs": [
        {
          "components": [
            {
              "internalType": "uint256",
              "name": "timeSystemWentUnderwater",
              "type": "uint256"
            },
            {
              "internalType": "uint256",
              "name": "ethUsdPriceTimestamp",
              "type": "uint256"
            },
            {
              "internalType": "uint256",
              "name": "ethUsdPrice",
              "type": "uint256"
            },
            {
              "internalType": "uint256",
              "name": "bidAskAdjustmentTimestamp",
              "type": "uint256"
            },
            {
              "internalType": "uint256",
              "name": "bidAskAdjustment",
              "type": "uint256"
            },
            {
              "internalType": "uint256",
              "name": "ethPool",
              "type": "uint256"
            },
            {
              "internalType": "uint256",
              "name": "usmTotalSupply",
              "type": "uint256"
            }
          ],
          "internalType": "struct USMTemplate.LoadedState",
          "name": "ls",
          "type": "tuple"
        },
        {
          "internalType": "uint256",
          "name": "fumSupply",
          "type": "uint256"
        },
        {
          "internalType": "uint256",
          "name": "ethIn",
          "type": "uint256"
        },
        {
          "internalType": "uint256",
          "name": "debtRatio_",
          "type": "uint256"
        }
      ],
      "name": "fumFromFund",
      "outputs": [
        {
          "internalType": "uint256",
          "name": "fumOut",
          "type": "uint256"
        },
        {
          "internalType": "uint256",
          "name": "adjGrowthFactor",
          "type": "uint256"
        }
      ],
      "stateMutability": "pure",
      "type": "function"
    },
    {
      "inputs": [
        {
          "internalType": "enum IUSM.Side",
          "name": "side",
          "type": "uint8"
        },
        {
          "internalType": "uint256",
          "name": "ethUsdPrice",
          "type": "uint256"
        },
        {
          "internalType": "uint256",
          "name": "ethInPool",
          "type": "uint256"
        },
        {
          "internalType": "uint256",
          "name": "usmEffectiveSupply",
          "type": "uint256"
        },
        {
          "internalType": "uint256",
          "name": "fumSupply",
          "type": "uint256"
        }
      ],
      "name": "fumPrice",
      "outputs": [
        {
          "internalType": "uint256",
          "name": "price",
          "type": "uint256"
        }
      ],
      "stateMutability": "pure",
      "type": "function"
    },
    {
      "inputs": [
        {
          "internalType": "uint256",
          "name": "fumAmount",
          "type": "uint256"
        }
      ],
      "name": "fumToEth",
      "outputs": [
        {
          "internalType": "uint256",
          "name": "ethOut",
          "type": "uint256"
        }
      ],
      "stateMutability": "view",
      "type": "function"
    },
    {
      "inputs": [],
      "name": "fumTotalSupply",
      "outputs": [
        {
          "internalType": "uint256",
          "name": "supply",
          "type": "uint256"
        }
      ],
      "stateMutability": "view",
      "type": "function"
    },
    {
      "inputs": [
        {
          "internalType": "address",
          "name": "to",
          "type": "address"
        },
        {
          "internalType": "uint256",
          "name": "amount",
          "type": "uint256"
        },
        {
          "internalType": "uint256",
          "name": "minFumOut",
          "type": "uint256"
        }
      ],
      "name": "fund",
      "outputs": [
        {
          "internalType": "uint256",
          "name": "fumOut",
          "type": "uint256"
        }
      ],
      "stateMutability": "nonpayable",
      "type": "function"
    },
    {
      "inputs": [],
      "name": "latestOraclePrice",
      "outputs": [
        {
          "internalType": "uint256",
          "name": "price",
          "type": "uint256"
        },
        {
          "internalType": "uint256",
          "name": "updateTime",
          "type": "uint256"
        }
      ],
      "stateMutability": "view",
      "type": "function"
    },
    {
      "inputs": [],
      "name": "latestPrice",
      "outputs": [
        {
          "internalType": "uint256",
          "name": "price",
          "type": "uint256"
        },
        {
          "internalType": "uint256",
          "name": "updateTime",
          "type": "uint256"
        }
      ],
      "stateMutability": "view",
      "type": "function"
    },
    {
      "inputs": [],
      "name": "loadState",
      "outputs": [
        {
          "components": [
            {
              "internalType": "uint256",
              "name": "timeSystemWentUnderwater",
              "type": "uint256"
            },
            {
              "internalType": "uint256",
              "name": "ethUsdPriceTimestamp",
              "type": "uint256"
            },
            {
              "internalType": "uint256",
              "name": "ethUsdPrice",
              "type": "uint256"
            },
            {
              "internalType": "uint256",
              "name": "bidAskAdjustmentTimestamp",
              "type": "uint256"
            },
            {
              "internalType": "uint256",
              "name": "bidAskAdjustment",
              "type": "uint256"
            },
            {
              "internalType": "uint256",
              "name": "ethPool",
              "type": "uint256"
            },
            {
              "internalType": "uint256",
              "name": "usmTotalSupply",
              "type": "uint256"
            }
          ],
          "internalType": "struct USMTemplate.LoadedState",
          "name": "ls",
          "type": "tuple"
        }
      ],
      "stateMutability": "view",
      "type": "function"
    },
    {
      "inputs": [
        {
          "internalType": "address",
          "name": "to",
          "type": "address"
        },
        {
          "internalType": "uint256",
          "name": "amount",
          "type": "uint256"
        },
        {
          "internalType": "uint256",
          "name": "minUsmOut",
          "type": "uint256"
        }
      ],
      "name": "mint",
      "outputs": [
        {
          "internalType": "uint256",
          "name": "usmOut",
          "type": "uint256"
        }
      ],
      "stateMutability": "nonpayable",
      "type": "function"
    },
    {
      "inputs": [],
      "name": "name",
      "outputs": [
        {
          "internalType": "string",
          "name": "",
          "type": "string"
        }
      ],
      "stateMutability": "view",
      "type": "function"
    },
    {
      "inputs": [
        {
          "internalType": "address",
          "name": "",
          "type": "address"
        }
      ],
      "name": "nonces",
      "outputs": [
        {
          "internalType": "uint256",
          "name": "",
          "type": "uint256"
        }
      ],
      "stateMutability": "view",
      "type": "function"
    },
    {
      "inputs": [],
      "name": "optBackIn",
      "outputs": [],
      "stateMutability": "nonpayable",
      "type": "function"
    },
    {
      "inputs": [],
      "name": "optOut",
      "outputs": [],
      "stateMutability": "nonpayable",
      "type": "function"
    },
    {
      "inputs": [
        {
          "internalType": "address",
          "name": "",
          "type": "address"
        }
      ],
      "name": "optedOut",
      "outputs": [
        {
          "internalType": "bool",
          "name": "",
          "type": "bool"
        }
      ],
      "stateMutability": "view",
      "type": "function"
    },
    {
      "inputs": [],
      "name": "oracle",
      "outputs": [
        {
          "internalType": "contract Oracle",
          "name": "",
          "type": "address"
        }
      ],
      "stateMutability": "view",
      "type": "function"
    },
    {
      "inputs": [
        {
          "internalType": "address",
          "name": "owner",
          "type": "address"
        },
        {
          "internalType": "address",
          "name": "spender",
          "type": "address"
        },
        {
          "internalType": "uint256",
          "name": "amount",
          "type": "uint256"
        },
        {
          "internalType": "uint256",
          "name": "deadline",
          "type": "uint256"
        },
        {
          "internalType": "uint8",
          "name": "v",
          "type": "uint8"
        },
        {
          "internalType": "bytes32",
          "name": "r",
          "type": "bytes32"
        },
        {
          "internalType": "bytes32",
          "name": "s",
          "type": "bytes32"
        }
      ],
      "name": "permit",
      "outputs": [],
      "stateMutability": "nonpayable",
      "type": "function"
    },
    {
      "inputs": [],
      "name": "refreshPrice",
      "outputs": [
        {
          "internalType": "uint256",
          "name": "price",
          "type": "uint256"
        },
        {
          "internalType": "uint256",
          "name": "updateTime",
          "type": "uint256"
        }
      ],
      "stateMutability": "nonpayable",
      "type": "function"
    },
    {
      "inputs": [
        {
          "internalType": "address",
          "name": "delegate",
          "type": "address"
        }
      ],
      "name": "revokeDelegate",
      "outputs": [],
      "stateMutability": "nonpayable",
      "type": "function"
    },
    {
      "inputs": [
        {
          "internalType": "address",
          "name": "",
          "type": "address"
        }
      ],
      "name": "signatureCount",
      "outputs": [
        {
          "internalType": "uint256",
          "name": "",
          "type": "uint256"
        }
      ],
      "stateMutability": "view",
      "type": "function"
    },
    {
      "inputs": [],
      "name": "storedState",
      "outputs": [
        {
          "internalType": "uint32",
          "name": "timeSystemWentUnderwater",
          "type": "uint32"
        },
        {
          "internalType": "uint32",
          "name": "ethUsdPriceTimestamp",
          "type": "uint32"
        },
        {
          "internalType": "uint80",
          "name": "ethUsdPrice",
          "type": "uint80"
        },
        {
          "internalType": "uint32",
          "name": "bidAskAdjustmentTimestamp",
          "type": "uint32"
        },
        {
          "internalType": "uint80",
          "name": "bidAskAdjustment",
          "type": "uint80"
        }
      ],
      "stateMutability": "view",
      "type": "function"
    },
    {
      "inputs": [],
      "name": "symbol",
      "outputs": [
        {
          "internalType": "string",
          "name": "",
          "type": "string"
        }
      ],
      "stateMutability": "view",
      "type": "function"
    },
    {
      "inputs": [],
      "name": "timeSystemWentUnderwater",
      "outputs": [
        {
          "internalType": "uint256",
          "name": "timestamp",
          "type": "uint256"
        }
      ],
      "stateMutability": "view",
      "type": "function"
    },
    {
      "inputs": [],
      "name": "totalSupply",
      "outputs": [
        {
          "internalType": "uint256",
          "name": "",
          "type": "uint256"
        }
      ],
      "stateMutability": "view",
      "type": "function"
    },
    {
      "inputs": [
        {
          "internalType": "address",
          "name": "dst",
          "type": "address"
        },
        {
          "internalType": "uint256",
          "name": "wad",
          "type": "uint256"
        }
      ],
      "name": "transfer",
      "outputs": [
        {
          "internalType": "bool",
          "name": "",
          "type": "bool"
        }
      ],
      "stateMutability": "nonpayable",
      "type": "function"
    },
    {
      "inputs": [
        {
          "internalType": "address",
          "name": "src",
          "type": "address"
        },
        {
          "internalType": "address",
          "name": "dst",
          "type": "address"
        },
        {
          "internalType": "uint256",
          "name": "wad",
          "type": "uint256"
        }
      ],
      "name": "transferFrom",
      "outputs": [
        {
          "internalType": "bool",
          "name": "",
          "type": "bool"
        }
      ],
      "stateMutability": "nonpayable",
      "type": "function"
    },
    {
      "inputs": [
        {
          "components": [
            {
              "internalType": "uint256",
              "name": "timeSystemWentUnderwater",
              "type": "uint256"
            },
            {
              "internalType": "uint256",
              "name": "ethUsdPriceTimestamp",
              "type": "uint256"
            },
            {
              "internalType": "uint256",
              "name": "ethUsdPrice",
              "type": "uint256"
            },
            {
              "internalType": "uint256",
              "name": "bidAskAdjustmentTimestamp",
              "type": "uint256"
            },
            {
              "internalType": "uint256",
              "name": "bidAskAdjustment",
              "type": "uint256"
            },
            {
              "internalType": "uint256",
              "name": "ethPool",
              "type": "uint256"
            },
            {
              "internalType": "uint256",
              "name": "usmTotalSupply",
              "type": "uint256"
            }
          ],
          "internalType": "struct USMTemplate.LoadedState",
          "name": "ls",
          "type": "tuple"
        },
        {
          "internalType": "uint256",
          "name": "ethIn",
          "type": "uint256"
        }
      ],
      "name": "usmFromMint",
      "outputs": [
        {
          "internalType": "uint256",
          "name": "usmOut",
          "type": "uint256"
        },
        {
          "internalType": "uint256",
          "name": "adjShrinkFactor",
          "type": "uint256"
        }
      ],
      "stateMutability": "pure",
      "type": "function"
    },
    {
      "inputs": [
        {
          "internalType": "enum IUSM.Side",
          "name": "side",
          "type": "uint8"
        },
        {
          "internalType": "uint256",
          "name": "ethUsdPrice",
          "type": "uint256"
        }
      ],
      "name": "usmPrice",
      "outputs": [
        {
          "internalType": "uint256",
          "name": "price",
          "type": "uint256"
        }
      ],
      "stateMutability": "pure",
      "type": "function"
    },
    {
      "inputs": [
        {
          "internalType": "uint256",
          "name": "ethUsdPrice",
          "type": "uint256"
        },
        {
          "internalType": "uint256",
          "name": "usmAmount",
          "type": "uint256"
        },
        {
          "internalType": "bool",
          "name": "roundUp",
          "type": "bool"
        }
      ],
      "name": "usmToEth",
      "outputs": [
        {
          "internalType": "uint256",
          "name": "ethOut",
          "type": "uint256"
        }
      ],
      "stateMutability": "pure",
      "type": "function"
    },
    {
      "inputs": [],
      "name": "version",
      "outputs": [
        {
          "internalType": "string",
          "name": "",
          "type": "string"
        }
      ],
      "stateMutability": "pure",
      "type": "function"
    }
  ],
  "transactionHash": "0xf693019cfd0de13b989b4e39aa3f1449a96e614c5b75280014b5c2c6bbd252da",
  "args": [
    "0x834C6bc8b88e1D13CDd1e37992255a7413bdf934",
    [],
    "0xB03ddd933E8e5114a0c3FbD9a0F4d26569A05FA1",
    "Bitcoin"
  ],
  "solcInputHash": "bae24d8ddd46bde1c9aecba3c2b57f70",
  "bytecode": "0x60126004556101606040819052600061014081905262000022916005916200039d565b507f6e71edae12b1b97f4d1f60370fef10105fa2faae0126114a169c64845d6126c960809081526040805160a0810182526000808252602082018190529181018290526060810191909152633b9aca00910152621dcd6560b91b600a553480156200008c57600080fd5b506040516200851538038062008515833981016040819052620000af91620004d5565b83838383604051602001620000c5919062000612565b60405160208183030381529060405284604051602001620000e79190620006c3565b604051602081830303815290604052856040516020016200010991906200067c565b604051602081830303815290604052866040516020016200012b91906200064e565b60405160208183030381529060405285848481818160059080519060200190620001579291906200039d565b5080516200016d9060039060208401906200039d565b505082516020840120469150600080516020620084f5833981519152906200019462000382565b8051602091820120604051620001b19493928691309101620006e4565b60408051601f19818403018152919052805160209091012060a0525060009150505b81518110156200024b576001600760008484815181106200020457634e487b7160e01b600052603260045260246000fd5b6020908102919091018101516001600160a01b03168252810191909152604001600020805460ff191691151591909117905580620002428162000836565b915050620001d3565b5050604080518082018252600681526555534d46554d60d01b6020918201528151808301835260018152603160f81b9082015290514691620002e791600080516020620084f5833981519152917f1ffee17c90b10b2d9e9bbd98a237e331a138c1264fe23f3a536813ba5c9e5693917fc89efdaa54c0f20c7adf612882df0950f5a951637e0307cdcb4c672f298b8bc6918691309101620006e4565b60408051601f1981840301815290829052805160209091012060c0526001600160601b031960608a811b82166101005288901b166101205230915087908490849062000333906200042c565b62000342949392919062000710565b604051809103906000f0801580156200035f573d6000803e3d6000fd5b5060601b6001600160601b03191660e052506200088d9950505050505050505050565b6040805180820190915260018152603160f81b602082015290565b828054620003ab90620007f9565b90600052602060002090601f016020900481019282620003cf57600085556200041a565b82601f10620003ea57805160ff19168380011785556200041a565b828001600101855582156200041a579182015b828111156200041a578251825591602001919060010190620003fd565b50620004289291506200043a565b5090565b611d2180620067d483390190565b5b808211156200042857600081556001016200043b565b80516200045e8162000874565b919050565b600082601f83011262000474578081fd5b81516001600160401b038111156200049057620004906200085e565b620004a5601f8201601f19166020016200079a565b818152846020838601011115620004ba578283fd5b620004cd826020830160208701620007c6565b949350505050565b60008060008060808587031215620004eb578384fd5b8451620004f88162000874565b602086810151919550906001600160401b038082111562000517578586fd5b818801915088601f8301126200052b578586fd5b8151818111156200054057620005406200085e565b838102620005508582016200079a565b8281528581019085870183870188018e10156200056b578a8bfd5b8a96505b848710156200059d5780519350620005878462000874565b838352600196909601959187019187016200056f565b509850620005b2925050506040890162000451565b94506060880151925080831115620005c8578384fd5b5050620005d88782880162000463565b91505092959194509250565b60008151808452620005fe816020860160208601620007c6565b601f01601f19169290920160200192915050565b60007102224a09039bcb73a3432ba34b1903337b9160751b8252825162000641816012850160208701620007c6565b9190910160120192915050565b60006346554d2d60e01b825282516200066f816004850160208701620007c6565b9190910160040192915050565b60007f4449412066756e64696e6720746f6b656e20666f72200000000000000000000082528251620006b6816016850160208701620007c6565b9190910160160192915050565b6000634449412d60e01b825282516200066f816004850160208701620007c6565b9485526020850193909352604084019190915260608301526001600160a01b0316608082015260a00190565b6001600160a01b0385811682526080602080840182905286519184018290526000928782019290919060a0860190855b818110156200076057855185168352948301949183019160010162000740565b50508581036040870152620007768189620005e4565b935050505082810360608401526200078f8185620005e4565b979650505050505050565b6040518181016001600160401b0381118282101715620007be57620007be6200085e565b604052919050565b60005b83811015620007e3578181015183820152602001620007c9565b83811115620007f3576000848401525b50505050565b6002810460018216806200080e57607f821691505b602082108114156200083057634e487b7160e01b600052602260045260246000fd5b50919050565b60006000198214156200085757634e487b7160e01b81526011600452602481fd5b5060010190565b634e487b7160e01b600052604160045260246000fd5b6001600160a01b03811681146200088a57600080fd5b50565b60805160a05160c05160e05160601c6101005160601c6101205160601c615e696200096b60003960008181611d2201528181611e9f0152818161227c015281816124080152818161304201526133be01526000818161116e0152818161194d01526128620152600081816107c70152818161093e01528181610ed2015281816111110152818161144801528181612099015281816121d8015281816125f501528181612e1e0152612f93015260008181610b190152610f81015260008181610e600152611b12015260008181610d070152611aab0152615e696000f3fe608060405234801561001057600080fd5b50600436106103c55760003560e01c806382cf2145116101ff578063bf082bce1161011a578063e71bdf41116100ad578063f6bcbd311161007c578063f6bcbd3114610766578063f87623a114610779578063fa352c0014610781578063fedf096a14610794576103c5565b8063e71bdf4114610723578063ee6e35fe14610736578063f16673a41461074b578063f5fca60b14610753576103c5565b8063d505accf116100e9578063d505accf146106e2578063d7020d0a146106f5578063d8dfeb4514610708578063dd62ed3e14610710576103c5565b8063bf082bce146106c2578063c0bd65d7146106ca578063d439a012146106d2578063d4eec5a6146106da576103c5565b80639cb461c611610192578063a8bfab2511610161578063a8bfab2514610676578063a9059cbb14610689578063b5d832fe1461069c578063bc3c3343146106af576103c5565b80639cb461c6146106355780639e5111f0146106485780639f45dee01461065b578063a3e6ba941461066e576103c5565b8063921bbe4c116101ce578063921bbe4c146105ff57806395d89b411461060757806397ebd6a91461060f5780639a4c6a9a14610622576103c5565b806382cf2145146105c95780638361b2bb146105d157806385962e2c146105d95780638aacac55146105ec576103c5565b80633c67a5b2116102ef5780636a1460241161028257806378ede7091161025157806378ede709146105935780637dc0d1d0146105a65780637ecebe00146105ae5780637eeb1ebe146105c1576103c5565b80636a146024146105505780636cae7d0f146105585780636ea51d081461056b57806370a0823114610580576103c5565b80634beda18b116102be5780634beda18b146105165780634ee1b72d1461051e57806354fd4d501461054057806361fbccb514610548576103c5565b80633c67a5b2146104f65780633ea5b395146104fe57806342685e5314610506578063459e414f1461050e576103c5565b806318160ddd11610367578063313ce56711610336578063313ce567146104b2578063338f2fe2146104ba57806334650091146104cd5780633644e515146104ee576103c5565b806318160ddd1461047a5780631a28ff051461048257806323b872dd1461049757806330adf81f146104aa576103c5565b80630af6ce85116103a35780630af6ce85146104285780630d0a08bf1461043b5780630f4727f61461044e578063156e29f614610467576103c5565b8063042ea073146103ca57806306fdde03146103f3578063095ea7b314610408575b600080fd5b6103dd6103d83660046151b6565b61079c565b6040516103ea9190615390565b60405180910390f35b6103fb610874565b6040516103ea9190615434565b61041b610416366004614ffa565b610902565b6040516103ea9190615385565b6103dd610436366004615023565b610916565b6103dd610449366004615186565b61092b565b6104566109e8565b6040516103ea959493929190615b45565b6103dd610475366004615023565b610a51565b6103dd610a5e565b610495610490366004614f9c565b610a64565b005b61041b6104a5366004614eb7565b610c55565b6103dd610d05565b6103dd610d29565b6103dd6104c8366004615232565b610d2f565b6104e06104db3660046150ea565b610d97565b6040516103ea929190615b21565b6103dd610e5e565b6104e0610e82565b6103dd610ece565b6103dd610f73565b6103dd610f7f565b6103dd610fa3565b61053161052c36600461529d565b610fab565b6040516103ea93929190615b2f565b6103fb611095565b6103dd6110cc565b6103dd6110ee565b61041b610566366004614e6b565b6110fa565b61057361110f565b6040516103ea919061530d565b6103dd61058e366004614e6b565b611133565b6103dd6105a13660046151fa565b61115f565b61057361116c565b6103dd6105bc366004614e6b565b611190565b6103dd6111a2565b6104956111a8565b6103dd6111df565b6103dd6105e736600461508c565b6111eb565b6103dd6105fa366004615071565b611295565b6103dd6112e4565b6103fb6112f3565b6103dd61061d36600461525d565b611300565b6103dd610630366004614ef2565b611387565b6104e061064336600461514a565b6114a1565b6103dd610656366004615232565b6115ef565b6103dd6106693660046150a9565b61164b565b6104e06116e2565b6103dd6106843660046151fa565b61172b565b61041b610697366004614ffa565b611738565b6103dd6106aa366004614e6b565b611745565b6104e06106bd366004615115565b611757565b6104e0611948565b6103dd6119f1565b6103dd611a15565b610495611a28565b6104956106f0366004614f33565b611a62565b6103dd610703366004614ef2565b611c51565b610573611d20565b6103dd61071e366004614e85565b611d44565b610495610731366004614e6b565b611d7c565b61073e611d89565b6040516103ea9190615ad3565b6103dd611e5f565b6104e06107613660046150ea565b611eec565b61041b610774366004614e85565b611f76565b6103dd611f96565b61049561078f366004614e6b565b611fa9565b6103dd611fb3565b6000806107a7611d89565b905060006107bf856107b7611e5f565b610656610a5e565b905061086a827f000000000000000000000000000000000000000000000000000000000000000073ffffffffffffffffffffffffffffffffffffffff166318160ddd6040518163ffffffff1660e01b815260040160206040518083038186803b15801561082b57600080fd5b505afa15801561083f573d6000803e3d6000fd5b505050506040513d601f19601f82011682018060405250810190610863919061519e565b86846114a1565b5095945050505050565b6005805461088190615d2c565b80601f01602080910402602001604051908101604052809291908181526020018280546108ad90615d2c565b80156108fa5780601f106108cf576101008083540402835291602001916108fa565b820191906000526020600020905b8154815290600101906020018083116108dd57829003601f168201915b505050505081565b600061090f338484611fbf565b9392505050565b600061092384848461203c565b949350505050565b600080610936611d89565b90506109e0817f000000000000000000000000000000000000000000000000000000000000000073ffffffffffffffffffffffffffffffffffffffff166318160ddd6040518163ffffffff1660e01b815260040160206040518083038186803b1580156109a257600080fd5b505afa1580156109b6573d6000803e3d6000fd5b505050506040513d601f19601f820116820180604052508101906109da919061519e565b85611757565b509392505050565b600a5463ffffffff80821691640100000000810482169169ffffffffffffffffffff680100000000000000008304811692720100000000000000000000000000000000000081049092169176010000000000000000000000000000000000000000000090041685565b6000610923848484612315565b60005490565b42841015610a8d5760405162461bcd60e51b8152600401610a8490615898565b60405180910390fd5b73ffffffffffffffffffffffffffffffffffffffff8616600090815260086020526040812080547f0d077601844dd17f704bafff948229d27f33b57445915754dfe3d095fda2beb7918991899185610ae483615d7a565b9190505588604051602001610afd959493929190615399565b60405160208183030381529060405280519060200120905060007f000000000000000000000000000000000000000000000000000000000000000082604051602001610b4a9291906152d7565b604051602081830303815290604052805190602001209050600060018287878760405160008152602001604052604051610b879493929190615416565b6020604051602081039080840390855afa158015610ba9573d6000803e3d6000fd5b50506040517fffffffffffffffffffffffffffffffffffffffffffffffffffffffffffffffe0015191505073ffffffffffffffffffffffffffffffffffffffff811615801590610c2457508873ffffffffffffffffffffffffffffffffffffffff168173ffffffffffffffffffffffffffffffffffffffff16145b610c405760405162461bcd60e51b8152600401610a84906154a5565b610c4a898961249d565b505050505050505050565b73ffffffffffffffffffffffffffffffffffffffff83166000818152600260209081526040808320338085529252822054919214801590610cb657507fffffffffffffffffffffffffffffffffffffffffffffffffffffffffffffffff8114155b15610cf15782811015610cdb5760405162461bcd60e51b8152600401610a84906156ba565b610cef8533610cea8685615d15565b611fbf565b505b610cfc85858561258c565b95945050505050565b7f000000000000000000000000000000000000000000000000000000000000000081565b60045481565b600080610d3c8584615d15565b90506000610258821015610d6157610d5c670db7e8439ea0ac8783612699565b610d64565b60005b905080610d7186826126fc565b610d8390670de0b6b3a7640000615b80565b610d8d9190615d15565b9695505050505050565b6000806000610db06000866040015187608001516111eb565b90506000610dbf600183611295565b9050610de6610ddf8760c001518860a0015161271a90919063ffffffff16565b8290612739565b90506000610e03828860a001518861274f9092919063ffffffff16565b90506000610e1e610e1383612766565b60a08a0151906127e9565b9050808860a00151610e309190615d15565b9550610e51610e4c828a60a001516127e990919063ffffffff16565b612836565b9450505050509250929050565b7f000000000000000000000000000000000000000000000000000000000000000081565b6000806000610e8f611d89565b90506000610e9c8261285a565b6080860191909152919550935090508015610ec8576020820183905260408201849052610ec8826129b7565b50509091565b60007f000000000000000000000000000000000000000000000000000000000000000073ffffffffffffffffffffffffffffffffffffffff166318160ddd6040518163ffffffff1660e01b815260040160206040518083038186803b158015610f3657600080fd5b505afa158015610f4a573d6000803e3d6000fd5b505050506040513d601f19601f82011682018060405250810190610f6e919061519e565b905090565b670de0af67c4da12ea81565b7f000000000000000000000000000000000000000000000000000000000000000081565b633b9aca0081565b6000806000610fbb86888a6115ef565b9050600a610fd2670de0b6b3a76400006008615c64565b610fdc9190615b98565b8111610fea5787915061108a565b84610ff55783610ff7565b845b9250600061100d82670de0b6b3a7640000612739565b9050600061102d61101e8688615d15565b670de0af67c4da12ea90612699565b90506000611064600a611049670de0b6b3a76400006008615c64565b6110539190615b98565b61105d9085615d15565b8390612d4b565b61106e9084615d15565b905061108461107d8b8b6126fc565b82906126fc565b94505050505b955095509592505050565b60408051808201909152600181527f3100000000000000000000000000000000000000000000000000000000000000602082015290565b600a6110e1670de0b6b3a76400006008615c64565b6110eb9190615b98565b81565b670de0b6b3a764000081565b60076020526000908152604090205460ff1681565b7f000000000000000000000000000000000000000000000000000000000000000081565b73ffffffffffffffffffffffffffffffffffffffff81166000908152600160205260409020545b919050565b6000610923838584612d74565b7f000000000000000000000000000000000000000000000000000000000000000081565b60066020526000908152604090205481565b61025881565b33600090815260076020526040902080547fffffffffffffffffffffffffffffffffffffffffffffffffffffffffffffff00169055565b670db7e8439ea0ac8781565b816000846001811115611227577f4e487b7100000000000000000000000000000000000000000000000000000000600052602160045260246000fd5b1461123c57670de0b6b3a76400008210611248565b670de0b6b3a764000082115b1561090f5761092382600086600181111561128c577f4e487b7100000000000000000000000000000000000000000000000000000000600052602160045260246000fd5b84929114612d94565b600061090f82670de0b6b3a7640000838660018111156112de577f4e487b7100000000000000000000000000000000000000000000000000000000600052602160045260246000fd5b1461115f565b6110eb6002633b9aca00615b98565b6003805461088190615d2c565b60008061130f8685851561115f565b90507f7fffffffffffffffffffffffffffffffffffffffffffffffffffffffffffffff861115801561136157507f7fffffffffffffffffffffffffffffffffffffffffffffffffffffffffffffff8111155b61137d5760405162461bcd60e51b8152600401610a84906154dc565b610d8d8186615ca1565b6000846040518060400160405280601e81526020017f4f6e6c7920686f6c646572206f722064656c6567617465206f722046554d00008152508173ffffffffffffffffffffffffffffffffffffffff163373ffffffffffffffffffffffffffffffffffffffff16148061142a575073ffffffffffffffffffffffffffffffffffffffff8216600090815260096020908152604080832033845290915290205460ff165b8061146a57503373ffffffffffffffffffffffffffffffffffffffff7f000000000000000000000000000000000000000000000000000000000000000016145b81906114895760405162461bcd60e51b8152600401610a849190615434565b5061149687878787612daf565b979650505050505050565b60008060006114ba6000886040015189608001516111eb565b905060006114d46000838a60a001518b60c001518b61164b565b90508760a00151600014806114e7575086155b1561150857670de0b6b3a76400009250611501868261271a565b93506115e4565b6000611533600a611522670de0b6b3a76400006008615c64565b61152c9190615b98565b8790612739565b9050600061155361154c83670de0b6b3a7640000615d15565b83906127e9565b90506000888b60a001516115679190615b80565b905061158d611577600284615b98565b60a08d01516115879084906127e9565b906130d8565b955050505060006115a76115a085613106565b8490612d4b565b905060006115c16000838c60a001518d60c001518d61164b565b905060006115d2610e4c8584612d4b565b90506115de898261271a565b96505050505b505094509492505050565b6000806115fc84866126fc565b905082156116405780156116195761161483826127e9565b61163b565b7fffffffffffffffffffffffffffffffffffffffffffffffffffffffffffffffff5b610cfc565b600095945050505050565b60008080876001811115611688577f4e487b7100000000000000000000000000000000000000000000000000000000600052602160045260246000fd5b149050826116aa576116a386670de0b6b3a76400008361115f565b915061086a565b60006116b887878785611300565b905060008113156116d3576116ce818584612d74565b6116d6565b60005b98975050505050505050565b600a54600090819061171190633b9aca009068010000000000000000900469ffffffffffffffffffff16615c64565b600a54909364010000000090910463ffffffff1692509050565b6000610923838584612d94565b600061090f33848461258c565b60086020526000908152604090205481565b60008060006117706001876040015188608001516111eb565b9050600061178a6001838960a001518a60c001518a61164b565b90506127108760c0015161179f600185611295565b6117a99190615c64565b6117b5906107d0615c64565b6117bf9190615b98565b6117c98688615d15565b6117d39083615c64565b10156117f15760405162461bcd60e51b8152600401610a8490615a08565b60006117fd8683612d4b565b8860a0015161180c9190615d15565b905060006118278960a001518361271a90919063ffffffff16565b9050600061185261184b611844670de0b6b3a76400006004615c64565b8490613140565b86906126fc565b9050600061186582858d60c001516115ef565b90506000611892600a611881670de0b6b3a76400006008615c64565b61188b9190615b98565b8390612739565b90506000670de0b6b3a76400006118bb6118ac8483615d15565b670de0b6b3a7640000906127e9565b6118c59190615d15565b90506118dc6118d5600283615b98565b8690613140565b985050505050505060006118f96118f285613290565b84906126fc565b905060006119136001838b60a001518c60c001518c61164b565b9050600060026119238386615b80565b61192d9190615b98565b905061193988826126fc565b96505050505050935093915050565b6000807f000000000000000000000000000000000000000000000000000000000000000073ffffffffffffffffffffffffffffffffffffffff1663a3e6ba946040518163ffffffff1660e01b8152600401604080518083038186803b1580156119b057600080fd5b505afa1580156119c4573d6000803e3d6000fd5b505050506040513d601f19601f820116820180604052508101906119e891906151d7565b90939092509050565b7f0d077601844dd17f704bafff948229d27f33b57445915754dfe3d095fda2beb781565b6110eb670de0b6b3a76400006004615c64565b33600090815260076020526040902080547fffffffffffffffffffffffffffffffffffffffffffffffffffffffffffffff00166001179055565b42841015611a825760405162461bcd60e51b8152600401610a8490615683565b73ffffffffffffffffffffffffffffffffffffffff8716600090815260066020526040812080547f0000000000000000000000000000000000000000000000000000000000000000918a918a918a919086611adc83615d7a565b9190505589604051602001611af6969594939291906153d5565b60405160208183030381529060405280519060200120905060007f000000000000000000000000000000000000000000000000000000000000000082604051602001611b439291906152d7565b604051602081830303815290604052805190602001209050600060018287878760405160008152602001604052604051611b809493929190615416565b6020604051602081039080840390855afa158015611ba2573d6000803e3d6000fd5b50506040517fffffffffffffffffffffffffffffffffffffffffffffffffffffffffffffffe0015191505073ffffffffffffffffffffffffffffffffffffffff811615801590611c1d57508973ffffffffffffffffffffffffffffffffffffffff168173ffffffffffffffffffffffffffffffffffffffff16145b611c395760405162461bcd60e51b8152600401610a8490615861565b611c448a8a8a611fbf565b5050505050505050505050565b6000846040518060400160405280601781526020017f4f6e6c7920686f6c646572206f722064656c65676174650000000000000000008152508173ffffffffffffffffffffffffffffffffffffffff163373ffffffffffffffffffffffffffffffffffffffff161480611cf4575073ffffffffffffffffffffffffffffffffffffffff8216600090815260096020908152604080832033845290915290205460ff165b8190611d135760405162461bcd60e51b8152600401610a849190615434565b506114968787878761329c565b7f000000000000000000000000000000000000000000000000000000000000000081565b73ffffffffffffffffffffffffffffffffffffffff918216600090815260026020908152604080832093909416825291909152205490565b611d86338261249d565b50565b611d91614d42565b600a5463ffffffff80821683526401000000008204166020830152611dd390633b9aca009068010000000000000000900469ffffffffffffffffffff16615c64565b6040820152426060820152600a54611e3d907201000000000000000000000000000000000000810463ffffffff1690611e3790633b9aca0090760100000000000000000000000000000000000000000000900469ffffffffffffffffffff16615c64565b42610d2f565b6080820152611e4a611e5f565b60a0820152611e57610a5e565b60c082015290565b6040517f70a0823100000000000000000000000000000000000000000000000000000000815260009073ffffffffffffffffffffffffffffffffffffffff7f000000000000000000000000000000000000000000000000000000000000000016906370a0823190611ed490309060040161530d565b60206040518083038186803b158015610f3657600080fd5b6000806000611f056001866040015187608001516111eb565b90506000611f14600083611295565b90506000858760a00151611f289190615b80565b90506000611f43828960a0015161271a90919063ffffffff16565b9050611f4e81613453565b94506000611f5c84876127e9565b9050611f68888261271a565b965050505050509250929050565b600960209081526000928352604080842090915290825290205460ff1681565b6000611fa0611d89565b60800151905090565b611d863382613471565b600a5463ffffffff1690565b73ffffffffffffffffffffffffffffffffffffffff80841660008181526002602090815260408083209487168084529490915280822085905551909291907f8c5be1e5ebec7d5bd14f71427d1e84f3dd0314c0f7b2291e5b200ac8c7c3b9259061202a908690615390565b60405180910390a35060019392505050565b600080612047611d89565b90506120528161285a565b50608084015260208301526040820181905260c082015160a0830151835160009361207f93929142610fab565b846000018560c001829550838152508381525050505060007f000000000000000000000000000000000000000000000000000000000000000073ffffffffffffffffffffffffffffffffffffffff166318160ddd6040518163ffffffff1660e01b815260040160206040518083038186803b1580156120fd57600080fd5b505afa158015612111573d6000803e3d6000fd5b505050506040513d601f19601f82011682018060405250810190612135919061519e565b90506000612145848389866114a1565b90955090508585101561216a5760405162461bcd60e51b8152600401610a8490615a9c565b60808401516121799082612d4b565b6080850152604084015161218d9082612d4b565b604085015261219b846129b7565b6040517f40c10f1900000000000000000000000000000000000000000000000000000000815273ffffffffffffffffffffffffffffffffffffffff7f000000000000000000000000000000000000000000000000000000000000000016906340c10f199061220f908b90899060040161535f565b600060405180830381600087803b15801561222957600080fd5b505af115801561223d573d6000803e3d6000fd5b50506040517f23b872dd00000000000000000000000000000000000000000000000000000000815273ffffffffffffffffffffffffffffffffffffffff7f00000000000000000000000000000000000000000000000000000000000000001692506323b872dd91506122b790339030908c9060040161532e565b602060405180830381600087803b1580156122d157600080fd5b505af11580156122e5573d6000803e3d6000fd5b505050506040513d601f19601f820116820180604052508101906123099190615055565b50505050509392505050565b600080612320611d89565b905060008160a00151116123465760405162461bcd60e51b8152600401610a84906159d1565b61234f8161285a565b50608084015260208301526040820152600061236b8286611eec565b9093509050838310156123905760405162461bcd60e51b8152600401610a8490615a9c565b608082015161239f90826126fc565b608083015260408201516123b390826126fc565b60408301526123c1826129b7565b6123cb868461354b565b6040517f23b872dd00000000000000000000000000000000000000000000000000000000815273ffffffffffffffffffffffffffffffffffffffff7f000000000000000000000000000000000000000000000000000000000000000016906323b872dd9061244190339030908a9060040161532e565b602060405180830381600087803b15801561245b57600080fd5b505af115801561246f573d6000803e3d6000fd5b505050506040513d601f19601f820116820180604052508101906124939190615055565b5050509392505050565b73ffffffffffffffffffffffffffffffffffffffff80831660009081526009602090815260408083209385168352929052205460ff16156124f05760405162461bcd60e51b8152600401610a84906157cd565b73ffffffffffffffffffffffffffffffffffffffff8083166000818152600960209081526040808320948616808452949091529081902080547fffffffffffffffffffffffffffffffffffffffffffffffffffffffffffffff0016600190811790915590517f045b0fef01772d2fbba53dbd38c9777806eac0865b00af43abcfbcaf50da92069161258091615385565b60405180910390a35050565b73ffffffffffffffffffffffffffffffffffffffff8216600090815260076020526040812054839060ff16156125d45760405162461bcd60e51b8152600401610a8490615728565b73ffffffffffffffffffffffffffffffffffffffff841630148061264357507f000000000000000000000000000000000000000000000000000000000000000073ffffffffffffffffffffffffffffffffffffffff168473ffffffffffffffffffffffffffffffffffffffff16145b80612662575073ffffffffffffffffffffffffffffffffffffffff8416155b156126815761267b858685612676876135ff565b61329c565b5061268e565b61268c858585613648565b505b506001949350505050565b6000600282066126b157670de0b6b3a76400006126b3565b825b905060028204915060005b82156126f5576126ce84856126fc565b93506002830615801591506126ea576126e782856126fc565b91505b6002830492506126be565b5092915050565b60006127088284615c64565b670de0b6b3a764000090049392505050565b60008161272f670de0b6b3a764000085615c64565b61090f9190615b98565b6000818310612748578161090f565b5090919050565b60008161275c8486615c64565b6109239190615b98565b60008061277b83673539de91cc25e6c9615c64565b612795906f7796e3aaa35f7e2f0928baef9bb2eb5b615b80565b90506fffffffffffffffffffffffffffffffff8111156127c75760405162461bcd60e51b8152600401610a8490615796565b6127d08161375a565b6fffffffffffffffffffffffffffffffff169392505050565b6000816127fe670de0b6b3a764000085615c64565b6128089190615b80565b7fffffffffffffffffffffffffffffffffffffffffffffffffffffffffffffffff01905061090f8282615b98565b60006128548261284f6002670de0b6b3a7640000615b98565b6130d8565b92915050565b6000806000807f000000000000000000000000000000000000000000000000000000000000000073ffffffffffffffffffffffffffffffffffffffff16633c67a5b26040518163ffffffff1660e01b81526004016040805180830381600087803b1580156128c757600080fd5b505af11580156128db573d6000803e3d6000fd5b505050506040513d601f19601f820116820180604052508101906128ff91906151d7565b608087015160208801519296509094509250831190508061292e576040850151602086015190945092506129b0565b6040850151156129b057670de0b6b3a76400008560800151111561297657604085015161296f906129609084876140f3565b670de0b6b3a764000090614138565b91506129b0565b670de0b6b3a7640000856080015110156129b05760408501516129ad9061299e90848761274f565b670de0b6b3a764000090612739565b91505b9193509193565b600a54815163ffffffff90911614612a5957805163ffffffff10156129ee5760405162461bcd60e51b8152600401610a849061593d565b8051600a549015159063ffffffff16151580821415612a1f5760405162461bcd60e51b8152600401610a8490615804565b7ff65636cad8b7e681ef3c22d371d448dfb42c53e3b6e1bf67848f9ccad2d30db282604051612a4e9190615385565b60405180910390a150505b602081015163ffffffff1015612a815760405162461bcd60e51b8152600401610a84906156f1565b6000612a926002633b9aca00615b98565b8260400151612aa19190615b80565b600a54633b9aca00909104915068010000000000000000900469ffffffffffffffffffff168114612b3a5769ffffffffffffffffffff811115612af65760405162461bcd60e51b8152600401610a849061564c565b7f8aa4fa52648a6d15edce8a179c792c86f3719d0cc3c572cf90f91948f0f2cb688260200151633b9aca008302604051612b31929190615b21565b60405180910390a15b606082015163ffffffff1015612b625760405162461bcd60e51b8152600401610a8490615513565b6000612b736002633b9aca00615b98565b8360800151612b829190615b80565b600a54633b9aca009091049150760100000000000000000000000000000000000000000000900469ffffffffffffffffffff168114612c235769ffffffffffffffffffff811115612be55760405162461bcd60e51b8152600401610a8490615615565b7fedd65dddb55d0513735f65f5f57d34e2274b2c7bdbef68141a7d7ae99c53c04e633b9aca008202604051612c1a9190615390565b60405180910390a15b82516020840151606090940151600a805475ffffffffffffffffffffffffffffffffffffffffffff1676010000000000000000000000000000000000000000000069ffffffffffffffffffff95861602177fffffffffffffffffffff00000000ffffffffffffffffffffffffffffffffffff16720100000000000000000000000000000000000063ffffffff93841602177fffffffffffffffffffffffffffff00000000000000000000ffffffffffffffff16680100000000000000009590941694909402929092177fffffffffffffffffffffffffffffffffffffffffffffffff00000000ffffffff1664010000000094831694909402939093177fffffffffffffffffffffffffffffffffffffffffffffffffffffffff00000000169216919091179055565b6000612d606001670de0b6b3a7640000615d15565b612d6a8385615c64565b6127089190615b80565b600081612d8a57612d85848461271a565b610923565b61092384846127e9565b600081612da557612d8584846126fc565b6109238484612d4b565b600080612dba611d89565b9050612dc58161285a565b50608084015260208084019190915260408084019290925281517f18160ddd000000000000000000000000000000000000000000000000000000008152915160009273ffffffffffffffffffffffffffffffffffffffff7f000000000000000000000000000000000000000000000000000000000000000016926318160ddd92600480840193829003018186803b158015612e5f57600080fd5b505afa158015612e73573d6000803e3d6000fd5b505050506040513d601f19601f82011682018060405250810190612e97919061519e565b90506000612ea6838388611757565b909450905084841015612ecb5760405162461bcd60e51b8152600401610a8490615a9c565b6080830151612eda90826126fc565b60808401526040830151612eee90826126fc565b6040840181905260a0840151600091612f1691612f0c908890615d15565b8660c001516115ef565b9050600a612f2d670de0b6b3a76400006008615c64565b612f379190615b98565b811115612f565760405162461bcd60e51b8152600401610a84906155a7565b6040517f9dc29fac00000000000000000000000000000000000000000000000000000000815273ffffffffffffffffffffffffffffffffffffffff7f00000000000000000000000000000000000000000000000000000000000000001690639dc29fac90612fca908c908b9060040161535f565b600060405180830381600087803b158015612fe457600080fd5b505af1158015612ff8573d6000803e3d6000fd5b50505050613005846129b7565b6040517fa9059cbb00000000000000000000000000000000000000000000000000000000815273ffffffffffffffffffffffffffffffffffffffff7f0000000000000000000000000000000000000000000000000000000000000000169063a9059cbb90613079908b90899060040161535f565b602060405180830381600087803b15801561309357600080fd5b505af11580156130a7573d6000803e3d6000fd5b505050506040513d601f19601f820116820180604052508101906130cb9190615055565b5050505050949350505050565b600061090f670de0b6b3a76400006131016130fb670de0b6b3a76400008761271a565b85613140565b6127e9565b600061311b6001670de0b6b3a7640000615d15565b6131258380615c64565b61312f9190615b80565b670de0b6b3a7640000900492915050565b60006fffffffffffffffffffffffffffffffff8311156131725760405162461bcd60e51b8152600401610a8490615906565b7f7fffffffffffffffffffffffffffffffffffffffffffffffffffffffffffffff8211156131b25760405162461bcd60e51b8152600401610a84906158cf565b60006131bd84614147565b6fffffffffffffffffffffffffffffffff167fffffffffffffffffffffffffffffffff88691c555ca081d0f6d74510644d14a40190506131fd8382615bac565b670de0b6b3a764000090056f7796e3aaa35f7e2f0928baef9bb2eb5b019050600081121561323d5760405162461bcd60e51b8152600401610a84906155de565b6fffffffffffffffffffffffffffffffff81131561326d5760405162461bcd60e51b8152600401610a8490615796565b6132768161375a565b6fffffffffffffffffffffffffffffffff16949350505050565b600061312f8280615c64565b6000806132a7611d89565b90506132b28161285a565b5060808401526020830152604082015260006132ce8286610d97565b9093509050838310156132f35760405162461bcd60e51b8152600401610a8490615a9c565b60808201516133029082612d4b565b608083015260408201516133169082612d4b565b6040830181905260a083015160009161334491613334908790615d15565b888660c001516106569190615d15565b9050670de0b6b3a764000081111561336e5760405162461bcd60e51b8152600401610a8490615a65565b6133788887614c4a565b613381836129b7565b6040517fa9059cbb00000000000000000000000000000000000000000000000000000000815273ffffffffffffffffffffffffffffffffffffffff7f0000000000000000000000000000000000000000000000000000000000000000169063a9059cbb906133f5908a90889060040161535f565b602060405180830381600087803b15801561340f57600080fd5b505af1158015613423573d6000803e3d6000fd5b505050506040513d601f19601f820116820180604052508101906134479190615055565b50505050949350505050565b60006128548261346c6002670de0b6b3a7640000615b98565b613140565b73ffffffffffffffffffffffffffffffffffffffff80831660009081526009602090815260408083209385168352929052205460ff166134c35760405162461bcd60e51b8152600401610a8490615570565b73ffffffffffffffffffffffffffffffffffffffff80831660008181526009602090815260408083209486168084529490915280822080547fffffffffffffffffffffffffffffffffffffffffffffffffffffffffffffff00169055517f045b0fef01772d2fbba53dbd38c9777806eac0865b00af43abcfbcaf50da92069161258091615385565b73ffffffffffffffffffffffffffffffffffffffff821660009081526001602052604090205461357c908290615b80565b73ffffffffffffffffffffffffffffffffffffffff8316600090815260016020526040812091909155546135b1908290615b80565b600090815560405173ffffffffffffffffffffffffffffffffffffffff841691907fddf252ad1be2c89b69c2b068fc378daa952ba7f163c4a11628f55a4df523b3ef90612580908590615390565b60008061361164174876e80084615db3565b9050801580159061362457506298968081105b156136425780613635846064615c64565b61363f9190615b98565b91505b50919050565b73ffffffffffffffffffffffffffffffffffffffff831660009081526001602052604081205482111561368d5760405162461bcd60e51b8152600401610a849061575f565b73ffffffffffffffffffffffffffffffffffffffff84166000908152600160205260409020546136be908390615d15565b73ffffffffffffffffffffffffffffffffffffffff80861660009081526001602052604080822093909355908516815220546136fb908390615b80565b73ffffffffffffffffffffffffffffffffffffffff80851660008181526001602052604090819020939093559151908616907fddf252ad1be2c89b69c2b068fc378daa952ba7f163c4a11628f55a4df523b3ef9061202a908690615390565b60006f800000000000000000000000000000006f0100000000000000000000000000000083161561379b576fb504f333f9de6484597d89b3754abe9f02607f1c5b6e8000000000000000000000000000008316156137c8576f9837f0518db8a96f46ad23182e42f6f602607f1c5b6e4000000000000000000000000000008316156137f5576f8b95c1e3ea8bd6e6fbe4628758a53c9002607f1c5b6e200000000000000000000000000000831615613822576f85aac367cc487b14c5c95b8c2154c1b202607f1c5b6e10000000000000000000000000000083161561384f576f82cd8698ac2ba1d73e2a475b46520bff02607f1c5b6e08000000000000000000000000000083161561387c576f8164d1f3bc0307737be56527bd14def402607f1c5b6e0400000000000000000000000000008316156138a9576f80b1ed4fd999ab6c25335719b6e6fd2002607f1c5b6e0200000000000000000000000000008316156138d6576f8058d7d2d5e5f6b094d589f608ee4aa202607f1c5b6e010000000000000000000000000000831615613903576f802c6436d0e04f50ff8ce94a6797b3ce02607f1c5b6d800000000000000000000000000083161561392f576f8016302f174676283690dfe44d11d00802607f1c5b6d400000000000000000000000000083161561395b576f800b179c82028fd0945e54e2ae18f2f002607f1c5b6d2000000000000000000000000000831615613987576f80058baf7fee3b5d1c718b38e549cb9302607f1c5b6d10000000000000000000000000008316156139b3576f8002c5d00fdcfcb6b6566a58c048be1f02607f1c5b6d08000000000000000000000000008316156139df576f800162e61bed4a48e84c2e1a463473d902607f1c5b6d0400000000000000000000000000831615613a0b576f8000b17292f702a3aa22beacca94901302607f1c5b6d0200000000000000000000000000831615613a37576f800058b92abbae02030c5fa5256f41fe02607f1c5b6d0100000000000000000000000000831615613a63576f80002c5c8dade4d71776c0f4dbea67d602607f1c5b6c80000000000000000000000000831615613a8e576f8000162e44eaf636526be456600bdbe402607f1c5b6c40000000000000000000000000831615613ab9576f80000b1721fa7c188307016c1cd4e8b602607f1c5b6c20000000000000000000000000831615613ae4576f8000058b90de7e4cecfc487503488bb102607f1c5b6c10000000000000000000000000831615613b0f576f800002c5c8678f36cbfce50a6de60b1402607f1c5b6c08000000000000000000000000831615613b3a576f80000162e431db9f80b2347b5d62e51602607f1c5b6c04000000000000000000000000831615613b65576f800000b1721872d0c7b08cf1e011415202607f1c5b6c02000000000000000000000000831615613b90576f80000058b90c1aa8a5c3736cb77e8dff02607f1c5b6c01000000000000000000000000831615613bbb576f8000002c5c8605a4635f2efc2362d97802607f1c5b6b800000000000000000000000831615613be5576f800000162e4300e635cf4a109e3939bd02607f1c5b6b400000000000000000000000831615613c0f576f8000000b17217ff81bef9c551590cf8302607f1c5b6b200000000000000000000000831615613c39576f800000058b90bfdd4e39cd52c0cfa27c02607f1c5b6b100000000000000000000000831615613c63576f80000002c5c85fe6f72d669e0e76e41102607f1c5b6b080000000000000000000000831615613c8d576f8000000162e42ff18f9ad35186d0df2802607f1c5b6b040000000000000000000000831615613cb7576f80000000b17217f84cce71aa0dcfffe702607f1c5b6b020000000000000000000000831615613ce1576f8000000058b90bfc07a77ad56ed22aaa02607f1c5b6b010000000000000000000000831615613d0b576f800000002c5c85fdfc23cdead40da8d602607f1c5b6a8000000000000000000000831615613d34576f80000000162e42fefc25eb1571853a6602607f1c5b6a4000000000000000000000831615613d5d576f800000000b17217f7d97f692baacded502607f1c5b6a2000000000000000000000831615613d86576f80000000058b90bfbead3b8b5dd254d702607f1c5b6a1000000000000000000000831615613daf576f8000000002c5c85fdf4eedd62f084e6702607f1c5b6a0800000000000000000000831615613dd8576f800000000162e42fefa58aef378bf58602607f1c5b6a0400000000000000000000831615613e01576f8000000000b17217f7d24a78a3c7ef0202607f1c5b6a0200000000000000000000831615613e2a576f800000000058b90bfbe9067c93e474a602607f1c5b6a0100000000000000000000831615613e53576f80000000002c5c85fdf47b8e5a72599f02607f1c5b6980000000000000000000831615613e7b576f8000000000162e42fefa3bdb315934a202607f1c5b6940000000000000000000831615613ea3576f80000000000b17217f7d1d7299b49c4602607f1c5b6920000000000000000000831615613ecb576f8000000000058b90bfbe8e9a8d1c4ea002607f1c5b6910000000000000000000831615613ef3576f800000000002c5c85fdf4745969ea76f02607f1c5b6908000000000000000000831615613f1b576f80000000000162e42fefa3a0df5373bf02607f1c5b6904000000000000000000831615613f43576f800000000000b17217f7d1cff4aac1e102607f1c5b6902000000000000000000831615613f6b576f80000000000058b90bfbe8e7db95a2f102607f1c5b6901000000000000000000831615613f93576f8000000000002c5c85fdf473e61ae1f802607f1c5b68800000000000000000831615613fba576f800000000000162e42fefa39f121751c02607f1c5b68400000000000000000831615613fe1576f8000000000000b17217f7d1cf815bb9602607f1c5b68200000000000000000831615614008576f800000000000058b90bfbe8e7bec1e0d02607f1c5b6810000000000000000083161561402f576f80000000000002c5c85fdf473dee5f1702607f1c5b68080000000000000000831615614056576f8000000000000162e42fefa39ef5438f02607f1c5b6804000000000000000083161561407d576f80000000000000b17217f7d1cf7a26c802607f1c5b680200000000000000008316156140a4576f8000000000000058b90bfbe8e7bcf4a402607f1c5b680100000000000000008316156140cb576f800000000000002c5c85fdf473de72a202607f1c5b607f60799390931c83169092036fffffffffffffffffffffffffffffffff169190911c919050565b6000816141008486615c64565b61410a9190615b80565b7fffffffffffffffffffffffffffffffffffffffffffffffffffffffffffffffff0190506109238282615b98565b6000818311612748578161090f565b60006fffffffffffffffffffffffffffffffff82166141785760405162461bcd60e51b8152600401610a849061599a565b6fffffffffffffffffffffffffffffffff82166ffe000000000000000000000000000000680100000000000000008210156141d75760409190911b907fffffffffffffffffffffffffffffffff80000000000000000000000000000000015b6c010000000000000000000000008210156142165760209190911b907fffffffffffffffffffffffffffffffffc0000000000000000000000000000000015b6e0100000000000000000000000000008210156142575760109190911b907fffffffffffffffffffffffffffffffffe0000000000000000000000000000000015b6f010000000000000000000000000000008210156142995760089190911b907ffffffffffffffffffffffffffffffffff0000000000000000000000000000000015b6f100000000000000000000000000000008210156142db5760049190911b907ffffffffffffffffffffffffffffffffff8000000000000000000000000000000015b6f4000000000000000000000000000000082101561431d5760029190911b907ffffffffffffffffffffffffffffffffffc000000000000000000000000000000015b6f8000000000000000000000000000000082101561435f5760019190911b907ffffffffffffffffffffffffffffffffffe000000000000000000000000000000015b908002607f1c90600160801b821061438b5760019190911c906f01000000000000000000000000000000175b908002607f1c90600160801b82106143b65760019190911c906e800000000000000000000000000000175b908002607f1c90600160801b82106143e15760019190911c906e400000000000000000000000000000175b908002607f1c90600160801b821061440c5760019190911c906e200000000000000000000000000000175b908002607f1c90600160801b82106144375760019190911c906e100000000000000000000000000000175b908002607f1c90600160801b82106144625760019190911c906e080000000000000000000000000000175b908002607f1c90600160801b821061448d5760019190911c906e040000000000000000000000000000175b908002607f1c90600160801b82106144b85760019190911c906e020000000000000000000000000000175b908002607f1c90600160801b82106144e35760019190911c906e010000000000000000000000000000175b908002607f1c90600160801b821061450d5760019190911c906d8000000000000000000000000000175b908002607f1c90600160801b82106145375760019190911c906d4000000000000000000000000000175b908002607f1c90600160801b82106145615760019190911c906d2000000000000000000000000000175b908002607f1c90600160801b821061458b5760019190911c906d1000000000000000000000000000175b908002607f1c90600160801b82106145b55760019190911c906d0800000000000000000000000000175b908002607f1c90600160801b82106145df5760019190911c906d0400000000000000000000000000175b908002607f1c90600160801b82106146095760019190911c906d0200000000000000000000000000175b908002607f1c90600160801b82106146335760019190911c906d0100000000000000000000000000175b908002607f1c90600160801b821061465c5760019190911c906c80000000000000000000000000175b908002607f1c90600160801b82106146855760019190911c906c40000000000000000000000000175b908002607f1c90600160801b82106146ae5760019190911c906c20000000000000000000000000175b908002607f1c90600160801b82106146d75760019190911c906c10000000000000000000000000175b908002607f1c90600160801b82106147005760019190911c906c08000000000000000000000000175b908002607f1c90600160801b82106147295760019190911c906c04000000000000000000000000175b908002607f1c90600160801b82106147525760019190911c906c02000000000000000000000000175b908002607f1c90600160801b821061477b5760019190911c906c01000000000000000000000000175b908002607f1c90600160801b82106147a35760019190911c906b800000000000000000000000175b908002607f1c90600160801b82106147cb5760019190911c906b400000000000000000000000175b908002607f1c90600160801b82106147f35760019190911c906b200000000000000000000000175b908002607f1c90600160801b821061481b5760019190911c906b100000000000000000000000175b908002607f1c90600160801b82106148435760019190911c906b080000000000000000000000175b908002607f1c90600160801b821061486b5760019190911c906b040000000000000000000000175b908002607f1c90600160801b82106148935760019190911c906b020000000000000000000000175b908002607f1c90600160801b82106148bb5760019190911c906b010000000000000000000000175b908002607f1c90600160801b82106148e25760019190911c906a8000000000000000000000175b908002607f1c90600160801b82106149095760019190911c906a4000000000000000000000175b908002607f1c90600160801b82106149305760019190911c906a2000000000000000000000175b908002607f1c90600160801b82106149575760019190911c906a1000000000000000000000175b908002607f1c90600160801b821061497e5760019190911c906a0800000000000000000000175b908002607f1c90600160801b82106149a55760019190911c906a0400000000000000000000175b908002607f1c90600160801b82106149cc5760019190911c906a0200000000000000000000175b908002607f1c90600160801b82106149f35760019190911c906a0100000000000000000000175b908002607f1c90600160801b8210614a195760019190911c906980000000000000000000175b908002607f1c90600160801b8210614a3f5760019190911c906940000000000000000000175b908002607f1c90600160801b8210614a655760019190911c906920000000000000000000175b908002607f1c90600160801b8210614a8b5760019190911c906910000000000000000000175b908002607f1c90600160801b8210614ab15760019190911c906908000000000000000000175b908002607f1c90600160801b8210614ad75760019190911c906904000000000000000000175b908002607f1c90600160801b8210614afd5760019190911c906902000000000000000000175b908002607f1c90600160801b8210614b235760019190911c906901000000000000000000175b908002607f1c90600160801b8210614b485760019190911c9068800000000000000000175b908002607f1c90600160801b8210614b6d5760019190911c9068400000000000000000175b908002607f1c90600160801b8210614b925760019190911c9068200000000000000000175b908002607f1c90600160801b8210614bb75760019190911c9068100000000000000000175b908002607f1c90600160801b8210614bdc5760019190911c9068080000000000000000175b908002607f1c90600160801b8210614c015760019190911c9068040000000000000000175b908002607f1c90600160801b8210614c265760019190911c9068020000000000000000175b908002607f1c90600160801b821061090f5768010000000000000000179392505050565b73ffffffffffffffffffffffffffffffffffffffff8216600090815260016020526040902054811115614c8f5760405162461bcd60e51b8152600401610a849061575f565b73ffffffffffffffffffffffffffffffffffffffff8216600090815260016020526040902054614cc0908290615d15565b73ffffffffffffffffffffffffffffffffffffffff831660009081526001602052604081209190915554614cf5908290615d15565b600090815560405173ffffffffffffffffffffffffffffffffffffffff8416907fddf252ad1be2c89b69c2b068fc378daa952ba7f163c4a11628f55a4df523b3ef90612580908590615390565b6040518060e00160405280600081526020016000815260200160008152602001600081526020016000815260200160008152602001600081525090565b803573ffffffffffffffffffffffffffffffffffffffff8116811461115a57600080fd5b80356002811061115a57600080fd5b600060e08284031215614dc3578081fd5b60405160e0810181811067ffffffffffffffff82111715614e0b577f4e487b710000000000000000000000000000000000000000000000000000000083526041600452602483fd5b8060405250809150823581526020830135602082015260408301356040820152606083013560608201526080830135608082015260a083013560a082015260c083013560c08201525092915050565b803560ff8116811461115a57600080fd5b600060208284031215614e7c578081fd5b61090f82614d7f565b60008060408385031215614e97578081fd5b614ea083614d7f565b9150614eae60208401614d7f565b90509250929050565b600080600060608486031215614ecb578081fd5b614ed484614d7f565b9250614ee260208501614d7f565b9150604084013590509250925092565b60008060008060808587031215614f07578081fd5b614f1085614d7f565b9350614f1e60208601614d7f565b93969395505050506040820135916060013590565b600080600080600080600060e0888a031215614f4d578283fd5b614f5688614d7f565b9650614f6460208901614d7f565b95506040880135945060608801359350614f8060808901614e5a565b925060a0880135915060c0880135905092959891949750929550565b60008060008060008060c08789031215614fb4578182fd5b614fbd87614d7f565b9550614fcb60208801614d7f565b945060408701359350614fe060608801614e5a565b92506080870135915060a087013590509295509295509295565b6000806040838503121561500c578182fd5b61501583614d7f565b946020939093013593505050565b600080600060608486031215615037578283fd5b61504084614d7f565b95602085013595506040909401359392505050565b600060208284031215615066578081fd5b815161090f81615e25565b60008060408385031215615083578182fd5b61501583614da3565b6000806000606084860312156150a0578081fd5b61504084614da3565b600080600080600060a086880312156150c0578283fd5b6150c986614da3565b97602087013597506040870135966060810135965060800135945092505050565b60008061010083850312156150fd578182fd5b6151078484614db2565b9460e0939093013593505050565b6000806000610120848603121561512a578081fd5b6151348585614db2565b9560e08501359550610100909401359392505050565b6000806000806101408587031215615160578182fd5b61516a8686614db2565b9660e08601359650610100860135956101200135945092505050565b600060208284031215615197578081fd5b5035919050565b6000602082840312156151af578081fd5b5051919050565b600080604083850312156151c8578182fd5b50508035926020909101359150565b600080604083850312156151e9578182fd5b505080516020909101519092909150565b60008060006060848603121561520e578081fd5b8335925060208401359150604084013561522781615e25565b809150509250925092565b600080600060608486031215615246578081fd5b505081359360208301359350604090920135919050565b60008060008060808587031215615272578182fd5b843593506020850135925060408501359150606085013561529281615e25565b939692955090935050565b600080600080600060a086880312156152b4578283fd5b505083359560208501359550604085013594606081013594506080013592509050565b7f190100000000000000000000000000000000000000000000000000000000000081526002810192909252602282015260420190565b73ffffffffffffffffffffffffffffffffffffffff91909116815260200190565b73ffffffffffffffffffffffffffffffffffffffff9384168152919092166020820152604081019190915260600190565b73ffffffffffffffffffffffffffffffffffffffff929092168252602082015260400190565b901515815260200190565b90815260200190565b94855273ffffffffffffffffffffffffffffffffffffffff93841660208601529190921660408401526060830191909152608082015260a00190565b95865273ffffffffffffffffffffffffffffffffffffffff94851660208701529290931660408501526060840152608083019190915260a082015260c00190565b93845260ff9290921660208401526040830152606082015260800190565b6000602080835283518082850152825b8181101561546057858101830151858201604001528201615444565b818111156154715783604083870101525b50601f017fffffffffffffffffffffffffffffffffffffffffffffffffffffffffffffffe016929092016040019392505050565b6020808252601c908201527f44656c656761626c653a20496e76616c6964207369676e617475726500000000604082015260600190565b6020808252601c908201527f657468427566666572206f766572666c6f772f756e646572666c6f7700000000604082015260600190565b60208082526022908201527f62696441736b41646a7573746d656e7454696d657374616d70206f766572666c60408201527f6f77000000000000000000000000000000000000000000000000000000000000606082015260800190565b6020808252601e908201527f44656c656761626c653a20416c726561647920756e64656c6567617465640000604082015260600190565b60208082526010908201527f4465627420726174696f203e206d617800000000000000000000000000000000604082015260600190565b60208082526012908201527f6578706f6e656e7420756e646572666c6f770000000000000000000000000000604082015260600190565b60208082526019908201527f62696441736b41646a7573746d656e74206f766572666c6f7700000000000000604082015260600190565b60208082526014908201527f6574685573645072696365206f766572666c6f77000000000000000000000000604082015260600190565b6020808252601d908201527f45524332305065726d69743a206578706972656420646561646c696e65000000604082015260600190565b6020808252601c908201527f45524332303a20496e73756666696369656e7420617070726f76616c00000000604082015260600190565b6020808252601d908201527f657468557364507269636554696d657374616d70206f766572666c6f77000000604082015260600190565b60208082526010908201527f546172676574206f70746564206f757400000000000000000000000000000000604082015260600190565b6020808252601b908201527f45524332303a20496e73756666696369656e742062616c616e63650000000000604082015260600190565b60208082526011908201527f6578706f6e656e74206f766572666c6f77000000000000000000000000000000604082015260600190565b6020808252601c908201527f44656c656761626c653a20416c72656164792064656c65676174656400000000604082015260600190565b6020808252602a908201527f556e65787065637465642074696d6553797374656d57656e74556e646572776160408201527f746572206368616e676500000000000000000000000000000000000000000000606082015260800190565b6020808252601e908201527f45524332305065726d69743a20696e76616c6964207369676e61747572650000604082015260600190565b6020808252601c908201527f44656c656761626c653a205369676e6174757265206578706972656400000000604082015260600190565b6020808252600a908201527f79206f766572666c6f7700000000000000000000000000000000000000000000604082015260600190565b6020808252600a908201527f78206f766572666c6f7700000000000000000000000000000000000000000000604082015260600190565b60208082526021908201527f74696d6553797374656d57656e74556e6465727761746572206f766572666c6f60408201527f7700000000000000000000000000000000000000000000000000000000000000606082015260800190565b60208082526005908201527f78203d2030000000000000000000000000000000000000000000000000000000604082015260600190565b60208082526013908201527f46756e64206265666f7265206d696e74696e6700000000000000000000000000604082015260600190565b6020808252602d908201527f446566756e64206572726f723a2066756d537570706c7920616674657220646560408201527f66756e6420746f6f206c6f772e00000000000000000000000000000000000000606082015260800190565b60208082526011908201527f4465627420726174696f203e2031303025000000000000000000000000000000604082015260600190565b60208082526011908201527f4c696d6974206e6f742072656163686564000000000000000000000000000000604082015260600190565b600060e082019050825182526020830151602083015260408301516040830152606083015160608301526080830151608083015260a083015160a083015260c083015160c083015292915050565b918252602082015260400190565b9283526020830191909152604082015260600190565b63ffffffff9586168152938516602085015269ffffffffffffffffffff92831660408501529316606083015291909116608082015260a00190565b60008219821115615b9357615b93615dc7565b500190565b600082615ba757615ba7615df6565b500490565b60007f7fffffffffffffffffffffffffffffffffffffffffffffffffffffffffffffff81841382841385830485118282161615615beb57615beb615dc7565b7f800000000000000000000000000000000000000000000000000000000000000084871286820588128184161615615c2557615c25615dc7565b858712925087820587128484161615615c4057615c40615dc7565b87850587128184161615615c5657615c56615dc7565b505050929093029392505050565b6000817fffffffffffffffffffffffffffffffffffffffffffffffffffffffffffffffff0483118215151615615c9c57615c9c615dc7565b500290565b6000808312837f800000000000000000000000000000000000000000000000000000000000000001831281151615615cdb57615cdb615dc7565b837f7fffffffffffffffffffffffffffffffffffffffffffffffffffffffffffffff018313811615615d0f57615d0f615dc7565b50500390565b600082821015615d2757615d27615dc7565b500390565b600281046001821680615d4057607f821691505b60208210811415613642577f4e487b7100000000000000000000000000000000000000000000000000000000600052602260045260246000fd5b60007fffffffffffffffffffffffffffffffffffffffffffffffffffffffffffffffff821415615dac57615dac615dc7565b5060010190565b600082615dc257615dc2615df6565b500690565b7f4e487b7100000000000000000000000000000000000000000000000000000000600052601160045260246000fd5b7f4e487b7100000000000000000000000000000000000000000000000000000000600052601260045260246000fd5b8015158114611d8657600080fdfea26469706673582212203bbf31be82d6395b80a2efc34b7b3bd5286b01b882beb661e55254bd9ee806fe64736f6c6343000800003360126004556101006040819052600060e081905262000021916005916200022d565b507f6e71edae12b1b97f4d1f60370fef10105fa2faae0126114a169c64845d6126c96080523480156200005357600080fd5b5060405162001d2138038062001d21833981016040819052620000769162000364565b82828281818160059080519060200190620000939291906200022d565b508051620000a99060039060208401906200022d565b5050825160208401204691507f8b73c3c69bb8fe3d512ecc4cf759cc79239f7b179b0ffacaa9a75d522b39400f90620000e16200020e565b8051602091820120604051620000fe949392869130910162000487565b60408051601f19818403018152919052805160209091012060a0525060009150505b815181101562000198576001600760008484815181106200015157634e487b7160e01b600052603260045260246000fd5b6020908102919091018101516001600160a01b03168252810191909152604001600020805460ff1916911515919091179055806200018f816200051c565b91505062000120565b5060009050620001a762000229565b600880546001600160a01b0319166001600160a01b038316908117909155604051919250906000907f8be0079c531659141344cd1fd0a4f28419497f9722a3daafe3b4186f6b6457e0908290a35050505060601b6001600160601b03191660c05262000573565b6040805180820190915260018152603160f81b602082015290565b3390565b8280546200023b90620004df565b90600052602060002090601f0160209004810192826200025f5760008555620002aa565b82601f106200027a57805160ff1916838001178555620002aa565b82800160010185558215620002aa579182015b82811115620002aa5782518255916020019190600101906200028d565b50620002b8929150620002bc565b5090565b5b80821115620002b85760008155600101620002bd565b600082601f830112620002e4578081fd5b81516001600160401b0381111562000300576200030062000544565b602062000316601f8301601f19168201620004b3565b82815285828487010111156200032a578384fd5b835b83811015620003495785810183015182820184015282016200032c565b838111156200035a57848385840101525b5095945050505050565b600080600080608085870312156200037a578384fd5b845162000387816200055a565b602086810151919550906001600160401b0380821115620003a6578586fd5b818801915088601f830112620003ba578586fd5b815181811115620003cf57620003cf62000544565b838102620003df858201620004b3565b8281528581019085870183870188018e1015620003fa578a8bfd5b8a96505b848710156200042c578051935062000416846200055a565b83835260019690960195918701918701620003fe565b5060408c015190995095505050508083111562000447578485fd5b6200045589848a01620002d3565b945060608801519250808311156200046b578384fd5b50506200047b87828801620002d3565b91505092959194509250565b9485526020850193909352604084019190915260608301526001600160a01b0316608082015260a00190565b6040518181016001600160401b0381118282101715620004d757620004d762000544565b604052919050565b600281046001821680620004f457607f821691505b602082108114156200051657634e487b7160e01b600052602260045260246000fd5b50919050565b60006000198214156200053d57634e487b7160e01b81526011600452602481fd5b5060010190565b634e487b7160e01b600052604160045260246000fd5b6001600160a01b03811681146200057057600080fd5b50565b60805160a05160c05160601c61175f620005c26000396000818161079701528181610ca90152610d1d0152600081816104a901526108ca01526000818161047f0152610863015261175f6000f3fe608060405234801561001057600080fd5b506004361061018d5760003560e01c8063715018a6116100e3578063a4800a751161008c578063d505accf11610066578063d505accf146102c9578063dd62ed3e146102dc578063f2fde38b146102ef5761018d565b8063a4800a75146102a6578063a9059cbb146102ae578063d4eec5a6146102c15761018d565b80638da5cb5b116100bd5780638da5cb5b1461027657806395d89b411461028b5780639dc29fac146102935761018d565b8063715018a6146102535780637ecebe001461025b57806382cf21451461026e5761018d565b8063313ce5671161014557806354fd4d501161011f57806354fd4d50146102255780636cae7d0f1461022d57806370a08231146102405761018d565b8063313ce567146102005780633644e5151461020857806340c10f19146102105761018d565b806318160ddd1161017657806318160ddd146101d057806323b872dd146101e557806330adf81f146101f85761018d565b806306fdde0314610192578063095ea7b3146101b0575b600080fd5b61019a610302565b6040516101a7919061139a565b60405180910390f35b6101c36101be366004611259565b610390565b6040516101a79190611327565b6101d86103a4565b6040516101a79190611332565b6101c36101f33660046111ad565b6103aa565b6101d861047d565b6101d86104a1565b6101d86104a7565b61022361021e366004611259565b6104cb565b005b61019a61054c565b6101c361023b366004611161565b610583565b6101d861024e366004611161565b610598565b6102236105c4565b6101d8610269366004611161565b6106a6565b6102236106b8565b61027e6106ef565b6040516101a791906112d0565b61019a61070b565b6102236102a1366004611259565b610718565b61027e610795565b6101c36102bc366004611259565b6107b9565b6102236107c6565b6102236102d73660046111e8565b610800565b6101d86102ea36600461117b565b610a23565b6102236102fd366004611161565b610a5b565b6005805461030f90611630565b80601f016020809104026020016040519081016040528092919081815260200182805461033b90611630565b80156103885780601f1061035d57610100808354040283529160200191610388565b820191906000526020600020905b81548152906001019060200180831161036b57829003601f168201915b505050505081565b600061039d338484610ba9565b9392505050565b60005490565b73ffffffffffffffffffffffffffffffffffffffff8316600081815260026020908152604080832033808552925282205491921480159061040b57507fffffffffffffffffffffffffffffffffffffffffffffffffffffffffffffffff8114155b156104695782811015610453576040517f08c379a000000000000000000000000000000000000000000000000000000000815260040161044a9061149f565b60405180910390fd5b61046785336104628685611619565b610ba9565b505b610474858585610c26565b95945050505050565b7f000000000000000000000000000000000000000000000000000000000000000081565b60045481565b7f000000000000000000000000000000000000000000000000000000000000000081565b6104d3610df2565b73ffffffffffffffffffffffffffffffffffffffff166104f16106ef565b73ffffffffffffffffffffffffffffffffffffffff161461053e576040517f08c379a000000000000000000000000000000000000000000000000000000000815260040161044a9061157b565b6105488282610df6565b5050565b60408051808201909152600181527f3100000000000000000000000000000000000000000000000000000000000000602082015290565b60076020526000908152604090205460ff1681565b73ffffffffffffffffffffffffffffffffffffffff81166000908152600160205260409020545b919050565b6105cc610df2565b73ffffffffffffffffffffffffffffffffffffffff166105ea6106ef565b73ffffffffffffffffffffffffffffffffffffffff1614610637576040517f08c379a000000000000000000000000000000000000000000000000000000000815260040161044a9061157b565b60085460405160009173ffffffffffffffffffffffffffffffffffffffff16907f8be0079c531659141344cd1fd0a4f28419497f9722a3daafe3b4186f6b6457e0908390a3600880547fffffffffffffffffffffffff0000000000000000000000000000000000000000169055565b60066020526000908152604090205481565b33600090815260076020526040902080547fffffffffffffffffffffffffffffffffffffffffffffffffffffffffffffff00169055565b60085473ffffffffffffffffffffffffffffffffffffffff1690565b6003805461030f90611630565b610720610df2565b73ffffffffffffffffffffffffffffffffffffffff1661073e6106ef565b73ffffffffffffffffffffffffffffffffffffffff161461078b576040517f08c379a000000000000000000000000000000000000000000000000000000000815260040161044a9061157b565b6105488282610eb6565b7f000000000000000000000000000000000000000000000000000000000000000081565b600061039d338484610c26565b33600090815260076020526040902080547fffffffffffffffffffffffffffffffffffffffffffffffffffffffffffffff00166001179055565b4284101561083a576040517f08c379a000000000000000000000000000000000000000000000000000000000815260040161044a90611468565b73ffffffffffffffffffffffffffffffffffffffff8716600090815260066020526040812080547f0000000000000000000000000000000000000000000000000000000000000000918a918a918a9190866108948361167e565b91905055896040516020016108ae9695949392919061133b565b60405160208183030381529060405280519060200120905060007f0000000000000000000000000000000000000000000000000000000000000000826040516020016108fb92919061129a565b604051602081830303815290604052805190602001209050600060018287878760405160008152602001604052604051610938949392919061137c565b6020604051602081039080840390855afa15801561095a573d6000803e3d6000fd5b50506040517fffffffffffffffffffffffffffffffffffffffffffffffffffffffffffffffe0015191505073ffffffffffffffffffffffffffffffffffffffff8116158015906109d557508973ffffffffffffffffffffffffffffffffffffffff168173ffffffffffffffffffffffffffffffffffffffff16145b610a0b576040517f08c379a000000000000000000000000000000000000000000000000000000000815260040161044a90611544565b610a168a8a8a610ba9565b5050505050505050505050565b73ffffffffffffffffffffffffffffffffffffffff918216600090815260026020908152604080832093909416825291909152205490565b610a63610df2565b73ffffffffffffffffffffffffffffffffffffffff16610a816106ef565b73ffffffffffffffffffffffffffffffffffffffff1614610ace576040517f08c379a000000000000000000000000000000000000000000000000000000000815260040161044a9061157b565b73ffffffffffffffffffffffffffffffffffffffff8116610b1b576040517f08c379a000000000000000000000000000000000000000000000000000000000815260040161044a9061140b565b60085460405173ffffffffffffffffffffffffffffffffffffffff8084169216907f8be0079c531659141344cd1fd0a4f28419497f9722a3daafe3b4186f6b6457e090600090a3600880547fffffffffffffffffffffffff00000000000000000000000000000000000000001673ffffffffffffffffffffffffffffffffffffffff92909216919091179055565b73ffffffffffffffffffffffffffffffffffffffff80841660008181526002602090815260408083209487168084529490915280822085905551909291907f8c5be1e5ebec7d5bd14f71427d1e84f3dd0314c0f7b2291e5b200ac8c7c3b92590610c14908690611332565b60405180910390a35060019392505050565b73ffffffffffffffffffffffffffffffffffffffff8216600090815260076020526040812054839060ff1615610c88576040517f08c379a000000000000000000000000000000000000000000000000000000000815260040161044a906114d6565b73ffffffffffffffffffffffffffffffffffffffff8416301480610cf757507f000000000000000000000000000000000000000000000000000000000000000073ffffffffffffffffffffffffffffffffffffffff168473ffffffffffffffffffffffffffffffffffffffff16145b80610d16575073ffffffffffffffffffffffffffffffffffffffff8416155b15610dda577f000000000000000000000000000000000000000000000000000000000000000073ffffffffffffffffffffffffffffffffffffffff16639a4c6a9a868786610d6388610fc8565b6040518563ffffffff1660e01b8152600401610d8294939291906112f1565b602060405180830381600087803b158015610d9c57600080fd5b505af1158015610db0573d6000803e3d6000fd5b505050506040513d601f19601f82011682018060405250810190610dd49190611282565b50610de7565b610de5858585611011565b505b506001949350505050565b3390565b73ffffffffffffffffffffffffffffffffffffffff8216600090815260016020526040902054610e279082906115b0565b73ffffffffffffffffffffffffffffffffffffffff831660009081526001602052604081209190915554610e5c9082906115b0565b600090815560405173ffffffffffffffffffffffffffffffffffffffff841691907fddf252ad1be2c89b69c2b068fc378daa952ba7f163c4a11628f55a4df523b3ef90610eaa908590611332565b60405180910390a35050565b73ffffffffffffffffffffffffffffffffffffffff8216600090815260016020526040902054811115610f15576040517f08c379a000000000000000000000000000000000000000000000000000000000815260040161044a9061150d565b73ffffffffffffffffffffffffffffffffffffffff8216600090815260016020526040902054610f46908290611619565b73ffffffffffffffffffffffffffffffffffffffff831660009081526001602052604081209190915554610f7b908290611619565b600090815560405173ffffffffffffffffffffffffffffffffffffffff8416907fddf252ad1be2c89b69c2b068fc378daa952ba7f163c4a11628f55a4df523b3ef90610eaa908590611332565b600080610fda64174876e800846116b7565b90508015801590610fed57506298968081105b1561100b5780610ffe8460646115dc565b61100891906115c8565b91505b50919050565b73ffffffffffffffffffffffffffffffffffffffff8316600090815260016020526040812054821115611070576040517f08c379a000000000000000000000000000000000000000000000000000000000815260040161044a9061150d565b73ffffffffffffffffffffffffffffffffffffffff84166000908152600160205260409020546110a1908390611619565b73ffffffffffffffffffffffffffffffffffffffff80861660009081526001602052604080822093909355908516815220546110de9083906115b0565b73ffffffffffffffffffffffffffffffffffffffff80851660008181526001602052604090819020939093559151908616907fddf252ad1be2c89b69c2b068fc378daa952ba7f163c4a11628f55a4df523b3ef90610c14908690611332565b803573ffffffffffffffffffffffffffffffffffffffff811681146105bf57600080fd5b600060208284031215611172578081fd5b61039d8261113d565b6000806040838503121561118d578081fd5b6111968361113d565b91506111a46020840161113d565b90509250929050565b6000806000606084860312156111c1578081fd5b6111ca8461113d565b92506111d86020850161113d565b9150604084013590509250925092565b600080600080600080600060e0888a031215611202578283fd5b61120b8861113d565b96506112196020890161113d565b95506040880135945060608801359350608088013560ff8116811461123c578384fd5b9699959850939692959460a0840135945060c09093013592915050565b6000806040838503121561126b578182fd5b6112748361113d565b946020939093013593505050565b600060208284031215611293578081fd5b5051919050565b7f190100000000000000000000000000000000000000000000000000000000000081526002810192909252602282015260420190565b73ffffffffffffffffffffffffffffffffffffffff91909116815260200190565b73ffffffffffffffffffffffffffffffffffffffff94851681529290931660208301526040820152606081019190915260800190565b901515815260200190565b90815260200190565b95865273ffffffffffffffffffffffffffffffffffffffff94851660208701529290931660408501526060840152608083019190915260a082015260c00190565b93845260ff9290921660208401526040830152606082015260800190565b6000602080835283518082850152825b818110156113c6578581018301518582016040015282016113aa565b818111156113d75783604083870101525b50601f017fffffffffffffffffffffffffffffffffffffffffffffffffffffffffffffffe016929092016040019392505050565b60208082526026908201527f4f776e61626c653a206e6577206f776e657220697320746865207a65726f206160408201527f6464726573730000000000000000000000000000000000000000000000000000606082015260800190565b6020808252601d908201527f45524332305065726d69743a206578706972656420646561646c696e65000000604082015260600190565b6020808252601c908201527f45524332303a20496e73756666696369656e7420617070726f76616c00000000604082015260600190565b60208082526010908201527f546172676574206f70746564206f757400000000000000000000000000000000604082015260600190565b6020808252601b908201527f45524332303a20496e73756666696369656e742062616c616e63650000000000604082015260600190565b6020808252601e908201527f45524332305065726d69743a20696e76616c6964207369676e61747572650000604082015260600190565b6020808252818101527f4f776e61626c653a2063616c6c6572206973206e6f7420746865206f776e6572604082015260600190565b600082198211156115c3576115c36116cb565b500190565b6000826115d7576115d76116fa565b500490565b6000817fffffffffffffffffffffffffffffffffffffffffffffffffffffffffffffffff0483118215151615611614576116146116cb565b500290565b60008282101561162b5761162b6116cb565b500390565b60028104600182168061164457607f821691505b6020821081141561100b577f4e487b7100000000000000000000000000000000000000000000000000000000600052602260045260246000fd5b60007fffffffffffffffffffffffffffffffffffffffffffffffffffffffffffffffff8214156116b0576116b06116cb565b5060010190565b6000826116c6576116c66116fa565b500690565b7f4e487b7100000000000000000000000000000000000000000000000000000000600052601160045260246000fd5b7f4e487b7100000000000000000000000000000000000000000000000000000000600052601260045260246000fdfea26469706673582212200aa34814cd876b18946ed9e07d805d409a270686e995f2c669a98e2d8c41976064736f6c634300080000338b73c3c69bb8fe3d512ecc4cf759cc79239f7b179b0ffacaa9a75d522b39400f",
  "devdoc": {
    "kind": "dev",
    "methods": {
      "addDelegate(address)": {
        "details": "Enable a delegate to act on the behalf of caller"
      },
      "addDelegateBySignature(address,address,uint256,uint8,bytes32,bytes32)": {
        "details": "Add a delegate through an encoded signature"
      },
      "adjustedEthUsdPrice(uint8,uint256,uint256)": {
        "returns": {
          "price": "The ETH/USD price, adjusted by the `bidAskAdjustment` (if applicable) for the given buy/sell side."
        }
      },
      "allowance(address,address)": {
        "details": "Returns the remaining number of tokens that `spender` will be allowed to spend on behalf of `owner` through {transferFrom}. This is zero by default. This value changes when {approve} or {transferFrom} are called."
      },
      "bidAskAdjustment()": {
        "returns": {
          "adjustment": "The sliding-price bid/ask adjustment"
        }
      },
      "burn(address,address,uint256,uint256)": {
        "details": "Burn USM in exchange for ETH.",
        "params": {
          "from": "address to deduct the USM from.",
          "minEthOut": "Minimum accepted ETH for a successful burn.",
          "to": "address to send the ETH to.",
          "usmToBurn": "Amount of USM to burn."
        }
      },
      "checkIfUnderwater(uint256,uint256,uint256,uint256,uint256)": {
        "returns": {
          "timeSystemWentUnderwater_": "The time at which we first detected the system was underwater (debt ratio > MAX_DEBT_RATIO), based on the current oracle price and pool ETH and USM; or 0 if we're not currently underwater.",
          "usmSupplyForFumBuys": "The current supply of USM *for purposes of calculating the FUM buy price,* and therefore for `fumFromFund()`.  The \"supply for FUM buys\" is the *lesser* of the actual current USM supply, and the USM amount that would make debt ratio = MAX_DEBT_RATIO.  Example: 1. Suppose the system currently contains 50 ETH at price $1,000 (total pool value: $50,000), with an actual USM supply    of 30,000 USM.  Then debt ratio = 30,000 / $50,000 = 60%: < MAX 80%, so `usmSupplyForFumBuys` = 30,000. 2. Now suppose ETH/USD halves to $500.  Then pool value halves to $25,000, and debt ratio doubles to 120%.  Now    `usmSupplyForFumBuys` instead = 20,000: the USM quantity at which debt ratio would equal 80% (20,000 / $25,000).    (Call this the \"80% supply\".) 3. ...Except, we also gradually increase the supply over time while we remain underwater.  This has the effect of    *reducing* the FUM buy price inferred from that supply (higher JacobUSM supply -> smaller buffer -> lower FUM price).    The math we use gradually increases the supply from its initial \"80% supply\" value, where debt ratio = MAX_DEBT_RATIO    (20,000 above), to a theoretical maximum \"100% supply\" value, where debt ratio = 100% (in the $500 example above,    this would be 25,000).  (Or the actual supply, whichever is lower: we never increase `usmSupplyForFumBuys` above    `usmActualSupply`.)  The climb from the initial 80% supply (20,000) to the 100% supply (25,000) is at a rate that    brings it \"halfway closer per MIN_FUM_BUY_PRICE_HALF_LIFE (eg, 1 day)\": so three days after going underwater, the    supply returned will be 25,000 - 0.5**3 * (25,000 - 20,000) = 24,375."
        }
      },
      "debtRatio(uint256,uint256,uint256)": {
        "returns": {
          "ratio": "Debt ratio (or 0 if there's currently 0 ETH in the pool/price = 0: these should never happen after launch)"
        }
      },
      "defund(address,address,uint256,uint256)": {
        "params": {
          "from": "address to deduct the FUM from.",
          "fumToBurn": "Amount of FUM to burn.",
          "minEthOut": "Minimum accepted ETH for a successful defund.",
          "to": "address to send the ETH to."
        }
      },
      "ethBuffer(uint256,uint256,uint256,bool)": {
        "returns": {
          "buffer": "ETH buffer"
        }
      },
      "ethFromBurn((uint256,uint256,uint256,uint256,uint256,uint256,uint256),uint256)": {
        "params": {
          "usmIn": "The amount of USM passed to burn()"
        },
        "returns": {
          "ethOut": "The amount of ETH to receive in exchange"
        }
      },
      "ethFromDefund((uint256,uint256,uint256,uint256,uint256,uint256,uint256),uint256,uint256)": {
        "params": {
          "fumIn": "The amount of FUM passed to defund()"
        },
        "returns": {
          "ethOut": "The amount of ETH to receive in exchange"
        }
      },
      "ethPool()": {
        "returns": {
          "pool": "ETH pool"
        }
      },
      "ethToFum(uint256,uint256)": {
        "params": {
          "ethAmount": "The amount of ETH to convert"
        },
        "returns": {
          "fumOut": "The amount of FUM"
        }
      },
      "ethToUsm(uint256,uint256,bool)": {
        "params": {
          "ethAmount": "The amount of ETH to convert"
        },
        "returns": {
          "usmOut": "The amount of USM"
        }
      },
      "fumFromFund((uint256,uint256,uint256,uint256,uint256,uint256,uint256),uint256,uint256,uint256)": {
        "params": {
          "ethIn": "The amount of ETH passed to fund()"
        },
        "returns": {
          "fumOut": "The amount of FUM to receive in exchange"
        }
      },
      "fumPrice(uint8,uint256,uint256,uint256,uint256)": {
        "params": {
          "usmEffectiveSupply": "should be either the actual current USM supply, or, when calculating the FUM *buy* price, the return value of `usmSupplyForFumBuys()`."
        },
        "returns": {
          "price": "FUM price in ETH terms"
        }
      },
      "fumToEth(uint256)": {
        "params": {
          "fumAmount": "The amount of FUM to convert"
        },
        "returns": {
          "ethOut": "The amount of ETH"
        }
      },
      "fumTotalSupply()": {
        "returns": {
          "supply": "the total supply of FUM.  Users of this `IUSM` interface, like `USMView`, need to call this rather than `usm.fum().totalSupply()` directly, because `IUSM` doesn't (and shouldn't) know about the `FUM` type."
        }
      },
      "fund(address,uint256,uint256)": {
        "params": {
          "minFumOut": "Minimum accepted FUM for a successful fund.",
          "to": "address to send the FUM to."
        }
      },
      "mint(address,uint256,uint256)": {
        "params": {
          "minUsmOut": "Minimum accepted USM for a successful mint.",
          "to": "address to send the USM to."
        }
      },
      "permit(address,address,uint256,uint256,uint8,bytes32,bytes32)": {
        "details": "See {IERC2612-permit}. In cases where the free option is not a concern, deadline can simply be set to uint(-1), so it should be seen as an optional parameter"
      },
      "revokeDelegate(address)": {
        "details": "Stop a delegate from acting on the behalf of caller"
      },
      "totalSupply()": {
        "details": "Returns the amount of tokens in existence."
      },
      "usmFromMint((uint256,uint256,uint256,uint256,uint256,uint256,uint256),uint256)": {
        "params": {
          "ethIn": "The amount of ETH passed to mint()"
        },
        "returns": {
          "usmOut": "The amount of USM to receive in exchange"
        }
      },
      "usmPrice(uint8,uint256)": {
        "returns": {
          "price": "USM price in ETH terms"
        }
      },
      "usmToEth(uint256,uint256,bool)": {
        "params": {
          "usmAmount": "The amount of USM to convert"
        },
        "returns": {
          "ethOut": "The amount of ETH"
        }
      },
      "version()": {
        "details": "Setting the version as a function so that it can be overriden"
      }
    },
    "version": 1
  },
  "userdoc": {
    "kind": "user",
    "methods": {
      "bidAskAdjustment()": {
        "notice": "The current bid/ask adjustment, equal to the stored value decayed over time towards its stable value, 1.  This adjustment is intended as a measure of \"how long-ETH recent user activity has been\", so that we can slide price accordingly: if recent activity was mostly long-ETH (fund() and burn()), raise FUM buy price/reduce USM sell price; if recent activity was short-ETH (defund() and mint()), reduce FUM sell price/raise USM buy price."
      },
      "bidAskAdjustment(uint256,uint256,uint256)": {
        "notice": "Returns the given stored bidAskAdjustment value, updated (decayed towards 1) to the current time."
      },
      "debtRatio(uint256,uint256,uint256)": {
        "notice": "Calculate debt ratio for a given eth to USM price: ratio of the outstanding USM (amount of USM in total supply), to the current ETH pool value in USD (ETH qty * ETH/USD price)."
      },
      "defund(address,address,uint256,uint256)": {
        "notice": "Defunds the pool by redeeming FUM in exchange for equivalent ETH from the pool."
      },
      "ethBuffer(uint256,uint256,uint256,bool)": {
        "notice": "Calculate the amount of ETH in the buffer."
      },
      "ethFromBurn((uint256,uint256,uint256,uint256,uint256,uint256,uint256),uint256)": {
        "notice": "How much ETH a burner currently gets from burning usmIn USM, accounting for adjustment and sliding prices."
      },
      "ethFromDefund((uint256,uint256,uint256,uint256,uint256,uint256,uint256),uint256,uint256)": {
        "notice": "How much ETH a defunder currently gets back for fumIn FUM, accounting for adjustment and sliding prices."
      },
      "ethPool()": {
        "notice": "Total amount of ETH in the pool (ie, in the contract)."
      },
      "ethToFum(uint256,uint256)": {
        "notice": "Convert ETH amount to FUM using a ETH/USD price."
      },
      "ethToUsm(uint256,uint256,bool)": {
        "notice": "Convert ETH amount to USM using a ETH/USD price."
      },
      "fumFromFund((uint256,uint256,uint256,uint256,uint256,uint256,uint256),uint256,uint256,uint256)": {
        "notice": "How much FUM a funder currently gets back for ethIn ETH, accounting for adjustment and sliding prices.  Note that we expect `ls.usmTotalSupply` of the LoadedState passed in to not necessarily be the actual current total USM supply, but the *effective* USM supply for purposes of this operation - which can be a lower number, artificially increasing the FUM price.  This is our \"minFumBuyPrice\" logic, used to prevent FUM buyers from paying tiny or negative prices when the system is underwater or near it."
      },
      "fumPrice(uint8,uint256,uint256,uint256,uint256)": {
        "notice": "Calculate the *marginal* price of FUM (in ETH terms): that is, of the next unit, before the price starts rising."
      },
      "fumToEth(uint256)": {
        "notice": "Convert FUM amount to ETH using a ETH/USD price."
      },
      "fumTotalSupply()": {
        "notice": "Total amount of ETH in the pool (ie, in the contract)."
      },
      "fund(address,uint256,uint256)": {
        "notice": "Funds the pool with ETH, minting new FUM and sending it to the given address, but only if the amount minted >= minFumOut.  The amount of ETH is passed in as msg.value."
      },
      "mint(address,uint256,uint256)": {
        "notice": "Mint new USM, sending it to the given address, and only if the amount minted >= minUsmOut.  The amount of ETH is passed in as msg.value."
      },
      "usmFromMint((uint256,uint256,uint256,uint256,uint256,uint256,uint256),uint256)": {
        "notice": "How much USM a minter currently gets back for ethIn ETH, accounting for adjustment and sliding prices."
      },
      "usmPrice(uint8,uint256)": {
        "notice": "Calculate the *marginal* price of USM (in ETH terms): that is, of the next unit, before the price start sliding."
      },
      "usmToEth(uint256,uint256,bool)": {
        "notice": "Convert USM amount to ETH using a ETH/USD price."
      }
    },
    "version": 1
  },
  "storageLayout": {
    "storage": [
      {
        "astId": 1375,
        "contract": "contracts/USMDIA.sol:USMDIA",
        "label": "_totalSupply",
        "offset": 0,
        "slot": "0",
        "type": "t_uint256"
      },
      {
        "astId": 1379,
        "contract": "contracts/USMDIA.sol:USMDIA",
        "label": "_balanceOf",
        "offset": 0,
        "slot": "1",
        "type": "t_mapping(t_address,t_uint256)"
      },
      {
        "astId": 1385,
        "contract": "contracts/USMDIA.sol:USMDIA",
        "label": "_allowance",
        "offset": 0,
        "slot": "2",
        "type": "t_mapping(t_address,t_mapping(t_address,t_uint256))"
      },
      {
        "astId": 1387,
        "contract": "contracts/USMDIA.sol:USMDIA",
        "label": "symbol",
        "offset": 0,
        "slot": "3",
        "type": "t_string_storage"
      },
      {
        "astId": 1390,
        "contract": "contracts/USMDIA.sol:USMDIA",
        "label": "decimals",
        "offset": 0,
        "slot": "4",
        "type": "t_uint256"
      },
      {
        "astId": 1393,
        "contract": "contracts/USMDIA.sol:USMDIA",
        "label": "name",
        "offset": 0,
        "slot": "5",
        "type": "t_string_storage"
      },
      {
        "astId": 10027,
        "contract": "contracts/USMDIA.sol:USMDIA",
        "label": "nonces",
        "offset": 0,
        "slot": "6",
        "type": "t_mapping(t_address,t_uint256)"
      },
      {
        "astId": 7843,
        "contract": "contracts/USMDIA.sol:USMDIA",
        "label": "optedOut",
        "offset": 0,
        "slot": "7",
        "type": "t_mapping(t_address,t_bool)"
      },
      {
        "astId": 1793,
        "contract": "contracts/USMDIA.sol:USMDIA",
        "label": "signatureCount",
        "offset": 0,
        "slot": "8",
        "type": "t_mapping(t_address,t_uint256)"
      },
      {
        "astId": 1799,
        "contract": "contracts/USMDIA.sol:USMDIA",
        "label": "delegated",
        "offset": 0,
        "slot": "9",
        "type": "t_mapping(t_address,t_mapping(t_address,t_bool))"
      },
      {
        "astId": 2650,
        "contract": "contracts/USMDIA.sol:USMDIA",
        "label": "storedState",
        "offset": 0,
        "slot": "10",
        "type": "t_struct(StoredState)2622_storage"
      }
    ],
    "types": {
      "t_address": {
        "encoding": "inplace",
        "label": "address",
        "numberOfBytes": "20"
      },
      "t_bool": {
        "encoding": "inplace",
        "label": "bool",
        "numberOfBytes": "1"
      },
      "t_mapping(t_address,t_bool)": {
        "encoding": "mapping",
        "key": "t_address",
        "label": "mapping(address => bool)",
        "numberOfBytes": "32",
        "value": "t_bool"
      },
      "t_mapping(t_address,t_mapping(t_address,t_bool))": {
        "encoding": "mapping",
        "key": "t_address",
        "label": "mapping(address => mapping(address => bool))",
        "numberOfBytes": "32",
        "value": "t_mapping(t_address,t_bool)"
      },
      "t_mapping(t_address,t_mapping(t_address,t_uint256))": {
        "encoding": "mapping",
        "key": "t_address",
        "label": "mapping(address => mapping(address => uint256))",
        "numberOfBytes": "32",
        "value": "t_mapping(t_address,t_uint256)"
      },
      "t_mapping(t_address,t_uint256)": {
        "encoding": "mapping",
        "key": "t_address",
        "label": "mapping(address => uint256)",
        "numberOfBytes": "32",
        "value": "t_uint256"
      },
      "t_string_storage": {
        "encoding": "bytes",
        "label": "string",
        "numberOfBytes": "32"
      },
      "t_struct(StoredState)2622_storage": {
        "encoding": "inplace",
        "label": "struct USMTemplate.StoredState",
        "members": [
          {
            "astId": 2613,
            "contract": "contracts/USMDIA.sol:USMDIA",
            "label": "timeSystemWentUnderwater",
            "offset": 0,
            "slot": "0",
            "type": "t_uint32"
          },
          {
            "astId": 2615,
            "contract": "contracts/USMDIA.sol:USMDIA",
            "label": "ethUsdPriceTimestamp",
            "offset": 4,
            "slot": "0",
            "type": "t_uint32"
          },
          {
            "astId": 2617,
            "contract": "contracts/USMDIA.sol:USMDIA",
            "label": "ethUsdPrice",
            "offset": 8,
            "slot": "0",
            "type": "t_uint80"
          },
          {
            "astId": 2619,
            "contract": "contracts/USMDIA.sol:USMDIA",
            "label": "bidAskAdjustmentTimestamp",
            "offset": 18,
            "slot": "0",
            "type": "t_uint32"
          },
          {
            "astId": 2621,
            "contract": "contracts/USMDIA.sol:USMDIA",
            "label": "bidAskAdjustment",
            "offset": 22,
            "slot": "0",
            "type": "t_uint80"
          }
        ],
        "numberOfBytes": "32"
      },
      "t_uint256": {
        "encoding": "inplace",
        "label": "uint256",
        "numberOfBytes": "32"
      },
      "t_uint32": {
        "encoding": "inplace",
        "label": "uint32",
        "numberOfBytes": "4"
      },
      "t_uint80": {
        "encoding": "inplace",
        "label": "uint80",
        "numberOfBytes": "10"
      }
    }
  }
}