{
  "address": "0x56E175976379f92329a1D6e8950adfE02f9d06d6",
  "abi": [
    {
      "inputs": [
        {
          "internalType": "contract IUSM",
          "name": "usm_",
          "type": "address"
        }
      ],
      "stateMutability": "nonpayable",
      "type": "constructor"
    },
    {
      "inputs": [],
      "name": "debtRatio",
      "outputs": [
        {
          "internalType": "uint256",
          "name": "ratio",
          "type": "uint256"
        }
      ],
      "stateMutability": "view",
      "type": "function"
    },
    {
      "inputs": [
        {
          "internalType": "bool",
          "name": "roundUp",
          "type": "bool"
        }
      ],
      "name": "ethBuffer",
      "outputs": [
        {
          "internalType": "int256",
          "name": "buffer",
          "type": "int256"
        }
      ],
      "stateMutability": "view",
      "type": "function"
    },
    {
      "inputs": [
        {
          "internalType": "uint256",
          "name": "ethAmount",
          "type": "uint256"
        },
        {
          "internalType": "bool",
          "name": "roundUp",
          "type": "bool"
        }
      ],
      "name": "ethToUsm",
      "outputs": [
        {
          "internalType": "uint256",
          "name": "usmOut",
          "type": "uint256"
        }
      ],
      "stateMutability": "view",
      "type": "function"
    },
    {
      "inputs": [
        {
          "internalType": "enum IUSM.Side",
          "name": "side",
          "type": "uint8"
        }
      ],
      "name": "fumPrice",
      "outputs": [
        {
          "internalType": "uint256",
          "name": "price",
          "type": "uint256"
        }
      ],
      "stateMutability": "view",
      "type": "function"
    },
    {
      "inputs": [],
      "name": "usm",
      "outputs": [
        {
          "internalType": "contract IUSM",
          "name": "",
          "type": "address"
        }
      ],
      "stateMutability": "view",
      "type": "function"
    },
    {
      "inputs": [
        {
          "internalType": "enum IUSM.Side",
          "name": "side",
          "type": "uint8"
        }
      ],
      "name": "usmPrice",
      "outputs": [
        {
          "internalType": "uint256",
          "name": "price",
          "type": "uint256"
        }
      ],
      "stateMutability": "view",
      "type": "function"
    },
    {
      "inputs": [
        {
          "internalType": "uint256",
          "name": "usmAmount",
          "type": "uint256"
        },
        {
          "internalType": "bool",
          "name": "roundUp",
          "type": "bool"
        }
      ],
      "name": "usmToEth",
      "outputs": [
        {
          "internalType": "uint256",
          "name": "ethOut",
          "type": "uint256"
        }
      ],
      "stateMutability": "view",
      "type": "function"
    }
  ],
  "transactionHash": "0xad32a06fe5ab100d9de43bf6be3611a257590bde8c77add7a476f9d750a9b270",
  "args": [
    "0xe57498ECAeAeBF993d9b887bbe75DEaE8fB8CFa1"
  ],
  "solcInputHash": "e6f8aa63829f140f9c8ffd82d60127db",
  "bytecode": "0x60a060405234801561001057600080fd5b506040516115c63803806115c683398101604081905261002f91610044565b60601b6001600160601b031916608052610072565b600060208284031215610055578081fd5b81516001600160a01b038116811461006b578182fd5b9392505050565b60805160601c61148761013f60003960008181610119015281816101f50152818161028b0152818161037a015281816103b8015281816105020152818161059701528181610673015281816106b1015281816107510152818161078e0152818161082c015281816109410152818161096801528181610a0a01528181610a4801528181610b5801528181610bfa01528181610c9c01528181610db801528181610e4c01528181610e8c01528181610fa80152818161104801528181611085015261112301526114876000f3fe608060405234801561001057600080fd5b506004361061007d5760003560e01c806396639b031161005b57806396639b03146100d1578063a4800a75146100e4578063c560ce9a146100f9578063cea55f571461010c5761007d565b80631d6659511461008257806349f3bb96146100ab57806358841e23146100be575b600080fd5b610095610090366004611299565b610114565b6040516100a291906113da565b60405180910390f35b6100956100b9366004611262565b610286565b6100956100cc366004611299565b610592565b6100956100df366004611248565b6106ac565b6100ec61093f565b6040516100a2919061134f565b610095610107366004611262565b610963565b610095610fa3565b6000807f000000000000000000000000000000000000000000000000000000000000000073ffffffffffffffffffffffffffffffffffffffff1663a3e6ba946040518163ffffffff1660e01b8152600401604080518083038186803b15801561017c57600080fd5b505afa158015610190573d6000803e3d6000fd5b505050506040513d601f19601f820116820180604052508101906101b491906112c4565b506040517f78ede70900000000000000000000000000000000000000000000000000000000815290915073ffffffffffffffffffffffffffffffffffffffff7f000000000000000000000000000000000000000000000000000000000000000016906378ede7099061022e908490889088906004016113e3565b60206040518083038186803b15801561024657600080fd5b505afa15801561025a573d6000803e3d6000fd5b505050506040513d601f19601f8201168201806040525081019061027e9190611281565b949350505050565b6000807f000000000000000000000000000000000000000000000000000000000000000073ffffffffffffffffffffffffffffffffffffffff1663a3e6ba946040518163ffffffff1660e01b8152600401604080518083038186803b1580156102ee57600080fd5b505afa158015610302573d6000803e3d6000fd5b505050506040513d601f19601f8201168201806040525081019061032691906112c4565b509050600080846001811115610365577f4e487b7100000000000000000000000000000000000000000000000000000000600052602160045260246000fd5b14610371576000610374565b60015b905060007f000000000000000000000000000000000000000000000000000000000000000073ffffffffffffffffffffffffffffffffffffffff166385962e2c83857f000000000000000000000000000000000000000000000000000000000000000073ffffffffffffffffffffffffffffffffffffffff1663f87623a16040518163ffffffff1660e01b815260040160206040518083038186803b15801561041c57600080fd5b505afa158015610430573d6000803e3d6000fd5b505050506040513d601f19601f820116820180604052508101906104549190611281565b6040518463ffffffff1660e01b81526004016104729392919061138b565b60206040518083038186803b15801561048a57600080fd5b505afa15801561049e573d6000803e3d6000fd5b505050506040513d601f19601f820116820180604052508101906104c29190611281565b6040517f8aacac5500000000000000000000000000000000000000000000000000000000815290915073ffffffffffffffffffffffffffffffffffffffff7f00000000000000000000000000000000000000000000000000000000000000001690638aacac55906105399088908590600401611370565b60206040518083038186803b15801561055157600080fd5b505afa158015610565573d6000803e3d6000fd5b505050506040513d601f19601f820116820180604052508101906105899190611281565b95945050505050565b6000807f000000000000000000000000000000000000000000000000000000000000000073ffffffffffffffffffffffffffffffffffffffff1663a3e6ba946040518163ffffffff1660e01b8152600401604080518083038186803b1580156105fa57600080fd5b505afa15801561060e573d6000803e3d6000fd5b505050506040513d601f19601f8201168201806040525081019061063291906112c4565b506040517fa8bfab2500000000000000000000000000000000000000000000000000000000815290915073ffffffffffffffffffffffffffffffffffffffff7f0000000000000000000000000000000000000000000000000000000000000000169063a8bfab259061022e908490889088906004016113e3565b6000807f000000000000000000000000000000000000000000000000000000000000000073ffffffffffffffffffffffffffffffffffffffff1663a3e6ba946040518163ffffffff1660e01b8152600401604080518083038186803b15801561071457600080fd5b505afa158015610728573d6000803e3d6000fd5b505050506040513d601f19601f8201168201806040525081019061074c91906112c4565b5090507f000000000000000000000000000000000000000000000000000000000000000073ffffffffffffffffffffffffffffffffffffffff166397ebd6a9827f000000000000000000000000000000000000000000000000000000000000000073ffffffffffffffffffffffffffffffffffffffff1663f16673a46040518163ffffffff1660e01b815260040160206040518083038186803b1580156107f257600080fd5b505afa158015610806573d6000803e3d6000fd5b505050506040513d601f19601f8201168201806040525081019061082a9190611281565b7f000000000000000000000000000000000000000000000000000000000000000073ffffffffffffffffffffffffffffffffffffffff166318160ddd6040518163ffffffff1660e01b815260040160206040518083038186803b15801561089057600080fd5b505afa1580156108a4573d6000803e3d6000fd5b505050506040513d601f19601f820116820180604052508101906108c89190611281565b876040518563ffffffff1660e01b81526004016108e89493929190611411565b60206040518083038186803b15801561090057600080fd5b505afa158015610914573d6000803e3d6000fd5b505050506040513d601f19601f820116820180604052508101906109389190611281565b9392505050565b7f000000000000000000000000000000000000000000000000000000000000000081565b6000807f000000000000000000000000000000000000000000000000000000000000000073ffffffffffffffffffffffffffffffffffffffff1663a3e6ba946040518163ffffffff1660e01b8152600401604080518083038186803b1580156109cb57600080fd5b505afa1580156109df573d6000803e3d6000fd5b505050506040513d601f19601f82011682018060405250810190610a0391906112c4565b50905060007f000000000000000000000000000000000000000000000000000000000000000073ffffffffffffffffffffffffffffffffffffffff166385962e2c85847f000000000000000000000000000000000000000000000000000000000000000073ffffffffffffffffffffffffffffffffffffffff1663f87623a16040518163ffffffff1660e01b815260040160206040518083038186803b158015610aac57600080fd5b505afa158015610ac0573d6000803e3d6000fd5b505050506040513d601f19601f82011682018060405250810190610ae49190611281565b6040518463ffffffff1660e01b8152600401610b029392919061138b565b60206040518083038186803b158015610b1a57600080fd5b505afa158015610b2e573d6000803e3d6000fd5b505050506040513d601f19601f82011682018060405250810190610b529190611281565b905060007f000000000000000000000000000000000000000000000000000000000000000073ffffffffffffffffffffffffffffffffffffffff1663f16673a46040518163ffffffff1660e01b815260040160206040518083038186803b158015610bbc57600080fd5b505afa158015610bd0573d6000803e3d6000fd5b505050506040513d601f19601f82011682018060405250810190610bf49190611281565b905060007f000000000000000000000000000000000000000000000000000000000000000073ffffffffffffffffffffffffffffffffffffffff166318160ddd6040518163ffffffff1660e01b815260040160206040518083038186803b158015610c5e57600080fd5b505afa158015610c72573d6000803e3d6000fd5b505050506040513d601f19601f82011682018060405250810190610c969190611281565b905060007f000000000000000000000000000000000000000000000000000000000000000073ffffffffffffffffffffffffffffffffffffffff1663fedf096a6040518163ffffffff1660e01b815260040160206040518083038186803b158015610d0057600080fd5b505afa158015610d14573d6000803e3d6000fd5b505050506040513d601f19601f82011682018060405250810190610d389190611281565b90506000876001811115610d75577f4e487b7100000000000000000000000000000000000000000000000000000000600052602160045260246000fd5b1415610e4a576040517f4ee1b72d00000000000000000000000000000000000000000000000000000000815273ffffffffffffffffffffffffffffffffffffffff7f00000000000000000000000000000000000000000000000000000000000000001690634ee1b72d90610df590859087908a908790429060040161142e565b60606040518083038186803b158015610e0d57600080fd5b505afa158015610e21573d6000803e3d6000fd5b505050506040513d601f19601f82011682018060405250810190610e4591906112e7565b509250505b7f000000000000000000000000000000000000000000000000000000000000000073ffffffffffffffffffffffffffffffffffffffff16639f45dee0888686867f000000000000000000000000000000000000000000000000000000000000000073ffffffffffffffffffffffffffffffffffffffff16633ea5b3956040518163ffffffff1660e01b815260040160206040518083038186803b158015610ef057600080fd5b505afa158015610f04573d6000803e3d6000fd5b505050506040513d601f19601f82011682018060405250810190610f289190611281565b6040518663ffffffff1660e01b8152600401610f489594939291906113aa565b60206040518083038186803b158015610f6057600080fd5b505afa158015610f74573d6000803e3d6000fd5b505050506040513d601f19601f82011682018060405250810190610f989190611281565b979650505050505050565b6000807f000000000000000000000000000000000000000000000000000000000000000073ffffffffffffffffffffffffffffffffffffffff1663a3e6ba946040518163ffffffff1660e01b8152600401604080518083038186803b15801561100b57600080fd5b505afa15801561101f573d6000803e3d6000fd5b505050506040513d601f19601f8201168201806040525081019061104391906112c4565b5090507f000000000000000000000000000000000000000000000000000000000000000073ffffffffffffffffffffffffffffffffffffffff16639e5111f0827f000000000000000000000000000000000000000000000000000000000000000073ffffffffffffffffffffffffffffffffffffffff1663f16673a46040518163ffffffff1660e01b815260040160206040518083038186803b1580156110e957600080fd5b505afa1580156110fd573d6000803e3d6000fd5b505050506040513d601f19601f820116820180604052508101906111219190611281565b7f000000000000000000000000000000000000000000000000000000000000000073ffffffffffffffffffffffffffffffffffffffff166318160ddd6040518163ffffffff1660e01b815260040160206040518083038186803b15801561118757600080fd5b505afa15801561119b573d6000803e3d6000fd5b505050506040513d601f19601f820116820180604052508101906111bf9190611281565b6040518463ffffffff1660e01b81526004016111dd939291906113fb565b60206040518083038186803b1580156111f557600080fd5b505afa158015611209573d6000803e3d6000fd5b505050506040513d601f19601f8201168201806040525081019061122d9190611281565b91505090565b8035801515811461124357600080fd5b919050565b600060208284031215611259578081fd5b61093882611233565b600060208284031215611273578081fd5b813560028110610938578182fd5b600060208284031215611292578081fd5b5051919050565b600080604083850312156112ab578081fd5b823591506112bb60208401611233565b90509250929050565b600080604083850312156112d6578182fd5b505080516020909101519092909150565b6000806000606084860312156112fb578081fd5b8351925060208401519150604084015190509250925092565b6002811061134b577f4e487b7100000000000000000000000000000000000000000000000000000000600052602160045260246000fd5b9052565b73ffffffffffffffffffffffffffffffffffffffff91909116815260200190565b6040810161137e8285611314565b8260208301529392505050565b606081016113998286611314565b602082019390935260400152919050565b60a081016113b88288611314565b8560208301528460408301528360608301528260808301529695505050505050565b90815260200190565b92835260208301919091521515604082015260600190565b9283526020830191909152604082015260600190565b938452602084019290925260408301521515606082015260800190565b948552602085019390935260408401919091526060830152608082015260a0019056fea2646970667358221220f5d27960a1eeaee1c1582024be025edfa25f0d6203f4d35bb097ee4963e5c53664736f6c63430008000033",
  "devdoc": {
    "author": "Alberto Cuesta Cañada, Jacob Eliosoff, Alex Roan",
    "kind": "dev",
    "methods": {
      "debtRatio()": {
        "returns": {
          "ratio": "Debt ratio"
        }
      },
      "ethBuffer(bool)": {
        "returns": {
          "buffer": "ETH buffer"
        }
      },
      "ethToUsm(uint256,bool)": {
        "params": {
          "ethAmount": "The amount of ETH to convert"
        },
        "returns": {
          "usmOut": "The amount of USM"
        }
      },
      "fumPrice(uint8)": {
        "returns": {
          "price": "FUM price in ETH terms"
        }
      },
      "usmPrice(uint8)": {
        "returns": {
          "price": "USM price in ETH terms"
        }
      },
      "usmToEth(uint256,bool)": {
        "params": {
          "usmAmount": "The amount of USM to convert"
        },
        "returns": {
          "ethOut": "The amount of ETH"
        }
      }
    },
    "title": "USM view-only proxy",
    "version": 1
  },
  "userdoc": {
    "kind": "user",
    "methods": {
      "debtRatio()": {
        "notice": "Calculate debt ratio."
      },
      "ethBuffer(bool)": {
        "notice": "Calculate the amount of ETH in the buffer."
      },
      "ethToUsm(uint256,bool)": {
        "notice": "Convert ETH amount to USM using the latest oracle ETH/USD price."
      },
      "fumPrice(uint8)": {
        "notice": "Calculate the *marginal* price of FUM (in ETH terms) - that is, of the next unit, before price start sliding."
      },
      "usmPrice(uint8)": {
        "notice": "Calculate the *marginal* price of USM (in ETH terms) - that is, of the next unit, before price start sliding."
      },
      "usmToEth(uint256,bool)": {
        "notice": "Convert USM amount to ETH using the latest oracle ETH/USD price."
      }
    },
    "version": 1
  },
  "storageLayout": {
    "storage": [],
    "types": null
  }
}