{
  "address": "0xe9E62325B98f65316754209Dd442319d52B118C9",
  "abi": [
    {
      "inputs": [
        {
          "internalType": "contract IUSM",
          "name": "usm_",
          "type": "address"
        },
        {
          "internalType": "address[]",
          "name": "optedOut_",
          "type": "address[]"
        },
        {
          "internalType": "string",
          "name": "name",
          "type": "string"
        },
        {
          "internalType": "string",
          "name": "symbol",
          "type": "string"
        }
      ],
      "stateMutability": "nonpayable",
      "type": "constructor"
    },
    {
      "anonymous": false,
      "inputs": [
        {
          "indexed": true,
          "internalType": "address",
          "name": "owner",
          "type": "address"
        },
        {
          "indexed": true,
          "internalType": "address",
          "name": "spender",
          "type": "address"
        },
        {
          "indexed": false,
          "internalType": "uint256",
          "name": "value",
          "type": "uint256"
        }
      ],
      "name": "Approval",
      "type": "event"
    },
    {
      "anonymous": false,
      "inputs": [
        {
          "indexed": true,
          "internalType": "address",
          "name": "previousOwner",
          "type": "address"
        },
        {
          "indexed": true,
          "internalType": "address",
          "name": "newOwner",
          "type": "address"
        }
      ],
      "name": "OwnershipTransferred",
      "type": "event"
    },
    {
      "anonymous": false,
      "inputs": [
        {
          "indexed": true,
          "internalType": "address",
          "name": "from",
          "type": "address"
        },
        {
          "indexed": true,
          "internalType": "address",
          "name": "to",
          "type": "address"
        },
        {
          "indexed": false,
          "internalType": "uint256",
          "name": "value",
          "type": "uint256"
        }
      ],
      "name": "Transfer",
      "type": "event"
    },
    {
      "inputs": [],
      "name": "DOMAIN_SEPARATOR",
      "outputs": [
        {
          "internalType": "bytes32",
          "name": "",
          "type": "bytes32"
        }
      ],
      "stateMutability": "view",
      "type": "function"
    },
    {
      "inputs": [],
      "name": "PERMIT_TYPEHASH",
      "outputs": [
        {
          "internalType": "bytes32",
          "name": "",
          "type": "bytes32"
        }
      ],
      "stateMutability": "view",
      "type": "function"
    },
    {
      "inputs": [
        {
          "internalType": "address",
          "name": "owner",
          "type": "address"
        },
        {
          "internalType": "address",
          "name": "spender",
          "type": "address"
        }
      ],
      "name": "allowance",
      "outputs": [
        {
          "internalType": "uint256",
          "name": "",
          "type": "uint256"
        }
      ],
      "stateMutability": "view",
      "type": "function"
    },
    {
      "inputs": [
        {
          "internalType": "address",
          "name": "spender",
          "type": "address"
        },
        {
          "internalType": "uint256",
          "name": "wad",
          "type": "uint256"
        }
      ],
      "name": "approve",
      "outputs": [
        {
          "internalType": "bool",
          "name": "",
          "type": "bool"
        }
      ],
      "stateMutability": "nonpayable",
      "type": "function"
    },
    {
      "inputs": [
        {
          "internalType": "address",
          "name": "guy",
          "type": "address"
        }
      ],
      "name": "balanceOf",
      "outputs": [
        {
          "internalType": "uint256",
          "name": "",
          "type": "uint256"
        }
      ],
      "stateMutability": "view",
      "type": "function"
    },
    {
      "inputs": [
        {
          "internalType": "address",
          "name": "_holder",
          "type": "address"
        },
        {
          "internalType": "uint256",
          "name": "_amount",
          "type": "uint256"
        }
      ],
      "name": "burn",
      "outputs": [],
      "stateMutability": "nonpayable",
      "type": "function"
    },
    {
      "inputs": [],
      "name": "decimals",
      "outputs": [
        {
          "internalType": "uint256",
          "name": "",
          "type": "uint256"
        }
      ],
      "stateMutability": "view",
      "type": "function"
    },
    {
      "inputs": [
        {
          "internalType": "address",
          "name": "_recipient",
          "type": "address"
        },
        {
          "internalType": "uint256",
          "name": "_amount",
          "type": "uint256"
        }
      ],
      "name": "mint",
      "outputs": [],
      "stateMutability": "nonpayable",
      "type": "function"
    },
    {
      "inputs": [],
      "name": "name",
      "outputs": [
        {
          "internalType": "string",
          "name": "",
          "type": "string"
        }
      ],
      "stateMutability": "view",
      "type": "function"
    },
    {
      "inputs": [
        {
          "internalType": "address",
          "name": "",
          "type": "address"
        }
      ],
      "name": "nonces",
      "outputs": [
        {
          "internalType": "uint256",
          "name": "",
          "type": "uint256"
        }
      ],
      "stateMutability": "view",
      "type": "function"
    },
    {
      "inputs": [],
      "name": "optBackIn",
      "outputs": [],
      "stateMutability": "nonpayable",
      "type": "function"
    },
    {
      "inputs": [],
      "name": "optOut",
      "outputs": [],
      "stateMutability": "nonpayable",
      "type": "function"
    },
    {
      "inputs": [
        {
          "internalType": "address",
          "name": "",
          "type": "address"
        }
      ],
      "name": "optedOut",
      "outputs": [
        {
          "internalType": "bool",
          "name": "",
          "type": "bool"
        }
      ],
      "stateMutability": "view",
      "type": "function"
    },
    {
      "inputs": [],
      "name": "owner",
      "outputs": [
        {
          "internalType": "address",
          "name": "",
          "type": "address"
        }
      ],
      "stateMutability": "view",
      "type": "function"
    },
    {
      "inputs": [
        {
          "internalType": "address",
          "name": "owner",
          "type": "address"
        },
        {
          "internalType": "address",
          "name": "spender",
          "type": "address"
        },
        {
          "internalType": "uint256",
          "name": "amount",
          "type": "uint256"
        },
        {
          "internalType": "uint256",
          "name": "deadline",
          "type": "uint256"
        },
        {
          "internalType": "uint8",
          "name": "v",
          "type": "uint8"
        },
        {
          "internalType": "bytes32",
          "name": "r",
          "type": "bytes32"
        },
        {
          "internalType": "bytes32",
          "name": "s",
          "type": "bytes32"
        }
      ],
      "name": "permit",
      "outputs": [],
      "stateMutability": "nonpayable",
      "type": "function"
    },
    {
      "inputs": [],
      "name": "renounceOwnership",
      "outputs": [],
      "stateMutability": "nonpayable",
      "type": "function"
    },
    {
      "inputs": [],
      "name": "symbol",
      "outputs": [
        {
          "internalType": "string",
          "name": "",
          "type": "string"
        }
      ],
      "stateMutability": "view",
      "type": "function"
    },
    {
      "inputs": [],
      "name": "totalSupply",
      "outputs": [
        {
          "internalType": "uint256",
          "name": "",
          "type": "uint256"
        }
      ],
      "stateMutability": "view",
      "type": "function"
    },
    {
      "inputs": [
        {
          "internalType": "address",
          "name": "dst",
          "type": "address"
        },
        {
          "internalType": "uint256",
          "name": "wad",
          "type": "uint256"
        }
      ],
      "name": "transfer",
      "outputs": [
        {
          "internalType": "bool",
          "name": "",
          "type": "bool"
        }
      ],
      "stateMutability": "nonpayable",
      "type": "function"
    },
    {
      "inputs": [
        {
          "internalType": "address",
          "name": "src",
          "type": "address"
        },
        {
          "internalType": "address",
          "name": "dst",
          "type": "address"
        },
        {
          "internalType": "uint256",
          "name": "wad",
          "type": "uint256"
        }
      ],
      "name": "transferFrom",
      "outputs": [
        {
          "internalType": "bool",
          "name": "",
          "type": "bool"
        }
      ],
      "stateMutability": "nonpayable",
      "type": "function"
    },
    {
      "inputs": [
        {
          "internalType": "address",
          "name": "newOwner",
          "type": "address"
        }
      ],
      "name": "transferOwnership",
      "outputs": [],
      "stateMutability": "nonpayable",
      "type": "function"
    },
    {
      "inputs": [],
      "name": "usm",
      "outputs": [
        {
          "internalType": "contract IUSM",
          "name": "",
          "type": "address"
        }
      ],
      "stateMutability": "view",
      "type": "function"
    },
    {
      "inputs": [],
      "name": "version",
      "outputs": [
        {
          "internalType": "string",
          "name": "",
          "type": "string"
        }
      ],
      "stateMutability": "pure",
      "type": "function"
    }
  ],
  "bytecode": "0x60126004556101006040819052600060e081905262000021916005916200022d565b507f6e71edae12b1b97f4d1f60370fef10105fa2faae0126114a169c64845d6126c96080523480156200005357600080fd5b5060405162001d2138038062001d21833981016040819052620000769162000364565b82828281818160059080519060200190620000939291906200022d565b508051620000a99060039060208401906200022d565b5050825160208401204691507f8b73c3c69bb8fe3d512ecc4cf759cc79239f7b179b0ffacaa9a75d522b39400f90620000e16200020e565b8051602091820120604051620000fe949392869130910162000487565b60408051601f19818403018152919052805160209091012060a0525060009150505b815181101562000198576001600760008484815181106200015157634e487b7160e01b600052603260045260246000fd5b6020908102919091018101516001600160a01b03168252810191909152604001600020805460ff1916911515919091179055806200018f816200051c565b91505062000120565b5060009050620001a762000229565b600880546001600160a01b0319166001600160a01b038316908117909155604051919250906000907f8be0079c531659141344cd1fd0a4f28419497f9722a3daafe3b4186f6b6457e0908290a35050505060601b6001600160601b03191660c05262000573565b6040805180820190915260018152603160f81b602082015290565b3390565b8280546200023b90620004df565b90600052602060002090601f0160209004810192826200025f5760008555620002aa565b82601f106200027a57805160ff1916838001178555620002aa565b82800160010185558215620002aa579182015b82811115620002aa5782518255916020019190600101906200028d565b50620002b8929150620002bc565b5090565b5b80821115620002b85760008155600101620002bd565b600082601f830112620002e4578081fd5b81516001600160401b0381111562000300576200030062000544565b602062000316601f8301601f19168201620004b3565b82815285828487010111156200032a578384fd5b835b83811015620003495785810183015182820184015282016200032c565b838111156200035a57848385840101525b5095945050505050565b600080600080608085870312156200037a578384fd5b845162000387816200055a565b602086810151919550906001600160401b0380821115620003a6578586fd5b818801915088601f830112620003ba578586fd5b815181811115620003cf57620003cf62000544565b838102620003df858201620004b3565b8281528581019085870183870188018e1015620003fa578a8bfd5b8a96505b848710156200042c578051935062000416846200055a565b83835260019690960195918701918701620003fe565b5060408c015190995095505050508083111562000447578485fd5b6200045589848a01620002d3565b945060608801519250808311156200046b578384fd5b50506200047b87828801620002d3565b91505092959194509250565b9485526020850193909352604084019190915260608301526001600160a01b0316608082015260a00190565b6040518181016001600160401b0381118282101715620004d757620004d762000544565b604052919050565b600281046001821680620004f457607f821691505b602082108114156200051657634e487b7160e01b600052602260045260246000fd5b50919050565b60006000198214156200053d57634e487b7160e01b81526011600452602481fd5b5060010190565b634e487b7160e01b600052604160045260246000fd5b6001600160a01b03811681146200057057600080fd5b50565b60805160a05160c05160601c61175f620005c26000396000818161079701528181610ca90152610d1d0152600081816104a901526108ca01526000818161047f0152610863015261175f6000f3fe608060405234801561001057600080fd5b506004361061018d5760003560e01c8063715018a6116100e3578063a4800a751161008c578063d505accf11610066578063d505accf146102c9578063dd62ed3e146102dc578063f2fde38b146102ef5761018d565b8063a4800a75146102a6578063a9059cbb146102ae578063d4eec5a6146102c15761018d565b80638da5cb5b116100bd5780638da5cb5b1461027657806395d89b411461028b5780639dc29fac146102935761018d565b8063715018a6146102535780637ecebe001461025b57806382cf21451461026e5761018d565b8063313ce5671161014557806354fd4d501161011f57806354fd4d50146102255780636cae7d0f1461022d57806370a08231146102405761018d565b8063313ce567146102005780633644e5151461020857806340c10f19146102105761018d565b806318160ddd1161017657806318160ddd146101d057806323b872dd146101e557806330adf81f146101f85761018d565b806306fdde0314610192578063095ea7b3146101b0575b600080fd5b61019a610302565b6040516101a7919061139a565b60405180910390f35b6101c36101be366004611259565b610390565b6040516101a79190611327565b6101d86103a4565b6040516101a79190611332565b6101c36101f33660046111ad565b6103aa565b6101d861047d565b6101d86104a1565b6101d86104a7565b61022361021e366004611259565b6104cb565b005b61019a61054c565b6101c361023b366004611161565b610583565b6101d861024e366004611161565b610598565b6102236105c4565b6101d8610269366004611161565b6106a6565b6102236106b8565b61027e6106ef565b6040516101a791906112d0565b61019a61070b565b6102236102a1366004611259565b610718565b61027e610795565b6101c36102bc366004611259565b6107b9565b6102236107c6565b6102236102d73660046111e8565b610800565b6101d86102ea36600461117b565b610a23565b6102236102fd366004611161565b610a5b565b6005805461030f90611630565b80601f016020809104026020016040519081016040528092919081815260200182805461033b90611630565b80156103885780601f1061035d57610100808354040283529160200191610388565b820191906000526020600020905b81548152906001019060200180831161036b57829003601f168201915b505050505081565b600061039d338484610ba9565b9392505050565b60005490565b73ffffffffffffffffffffffffffffffffffffffff8316600081815260026020908152604080832033808552925282205491921480159061040b57507fffffffffffffffffffffffffffffffffffffffffffffffffffffffffffffffff8114155b156104695782811015610453576040517f08c379a000000000000000000000000000000000000000000000000000000000815260040161044a9061149f565b60405180910390fd5b61046785336104628685611619565b610ba9565b505b610474858585610c26565b95945050505050565b7f000000000000000000000000000000000000000000000000000000000000000081565b60045481565b7f000000000000000000000000000000000000000000000000000000000000000081565b6104d3610df2565b73ffffffffffffffffffffffffffffffffffffffff166104f16106ef565b73ffffffffffffffffffffffffffffffffffffffff161461053e576040517f08c379a000000000000000000000000000000000000000000000000000000000815260040161044a9061157b565b6105488282610df6565b5050565b60408051808201909152600181527f3100000000000000000000000000000000000000000000000000000000000000602082015290565b60076020526000908152604090205460ff1681565b73ffffffffffffffffffffffffffffffffffffffff81166000908152600160205260409020545b919050565b6105cc610df2565b73ffffffffffffffffffffffffffffffffffffffff166105ea6106ef565b73ffffffffffffffffffffffffffffffffffffffff1614610637576040517f08c379a000000000000000000000000000000000000000000000000000000000815260040161044a9061157b565b60085460405160009173ffffffffffffffffffffffffffffffffffffffff16907f8be0079c531659141344cd1fd0a4f28419497f9722a3daafe3b4186f6b6457e0908390a3600880547fffffffffffffffffffffffff0000000000000000000000000000000000000000169055565b60066020526000908152604090205481565b33600090815260076020526040902080547fffffffffffffffffffffffffffffffffffffffffffffffffffffffffffffff00169055565b60085473ffffffffffffffffffffffffffffffffffffffff1690565b6003805461030f90611630565b610720610df2565b73ffffffffffffffffffffffffffffffffffffffff1661073e6106ef565b73ffffffffffffffffffffffffffffffffffffffff161461078b576040517f08c379a000000000000000000000000000000000000000000000000000000000815260040161044a9061157b565b6105488282610eb6565b7f000000000000000000000000000000000000000000000000000000000000000081565b600061039d338484610c26565b33600090815260076020526040902080547fffffffffffffffffffffffffffffffffffffffffffffffffffffffffffffff00166001179055565b4284101561083a576040517f08c379a000000000000000000000000000000000000000000000000000000000815260040161044a90611468565b73ffffffffffffffffffffffffffffffffffffffff8716600090815260066020526040812080547f0000000000000000000000000000000000000000000000000000000000000000918a918a918a9190866108948361167e565b91905055896040516020016108ae9695949392919061133b565b60405160208183030381529060405280519060200120905060007f0000000000000000000000000000000000000000000000000000000000000000826040516020016108fb92919061129a565b604051602081830303815290604052805190602001209050600060018287878760405160008152602001604052604051610938949392919061137c565b6020604051602081039080840390855afa15801561095a573d6000803e3d6000fd5b50506040517fffffffffffffffffffffffffffffffffffffffffffffffffffffffffffffffe0015191505073ffffffffffffffffffffffffffffffffffffffff8116158015906109d557508973ffffffffffffffffffffffffffffffffffffffff168173ffffffffffffffffffffffffffffffffffffffff16145b610a0b576040517f08c379a000000000000000000000000000000000000000000000000000000000815260040161044a90611544565b610a168a8a8a610ba9565b5050505050505050505050565b73ffffffffffffffffffffffffffffffffffffffff918216600090815260026020908152604080832093909416825291909152205490565b610a63610df2565b73ffffffffffffffffffffffffffffffffffffffff16610a816106ef565b73ffffffffffffffffffffffffffffffffffffffff1614610ace576040517f08c379a000000000000000000000000000000000000000000000000000000000815260040161044a9061157b565b73ffffffffffffffffffffffffffffffffffffffff8116610b1b576040517f08c379a000000000000000000000000000000000000000000000000000000000815260040161044a9061140b565b60085460405173ffffffffffffffffffffffffffffffffffffffff8084169216907f8be0079c531659141344cd1fd0a4f28419497f9722a3daafe3b4186f6b6457e090600090a3600880547fffffffffffffffffffffffff00000000000000000000000000000000000000001673ffffffffffffffffffffffffffffffffffffffff92909216919091179055565b73ffffffffffffffffffffffffffffffffffffffff80841660008181526002602090815260408083209487168084529490915280822085905551909291907f8c5be1e5ebec7d5bd14f71427d1e84f3dd0314c0f7b2291e5b200ac8c7c3b92590610c14908690611332565b60405180910390a35060019392505050565b73ffffffffffffffffffffffffffffffffffffffff8216600090815260076020526040812054839060ff1615610c88576040517f08c379a000000000000000000000000000000000000000000000000000000000815260040161044a906114d6565b73ffffffffffffffffffffffffffffffffffffffff8416301480610cf757507f000000000000000000000000000000000000000000000000000000000000000073ffffffffffffffffffffffffffffffffffffffff168473ffffffffffffffffffffffffffffffffffffffff16145b80610d16575073ffffffffffffffffffffffffffffffffffffffff8416155b15610dda577f000000000000000000000000000000000000000000000000000000000000000073ffffffffffffffffffffffffffffffffffffffff16639a4c6a9a868786610d6388610fc8565b6040518563ffffffff1660e01b8152600401610d8294939291906112f1565b602060405180830381600087803b158015610d9c57600080fd5b505af1158015610db0573d6000803e3d6000fd5b505050506040513d601f19601f82011682018060405250810190610dd49190611282565b50610de7565b610de5858585611011565b505b506001949350505050565b3390565b73ffffffffffffffffffffffffffffffffffffffff8216600090815260016020526040902054610e279082906115b0565b73ffffffffffffffffffffffffffffffffffffffff831660009081526001602052604081209190915554610e5c9082906115b0565b600090815560405173ffffffffffffffffffffffffffffffffffffffff841691907fddf252ad1be2c89b69c2b068fc378daa952ba7f163c4a11628f55a4df523b3ef90610eaa908590611332565b60405180910390a35050565b73ffffffffffffffffffffffffffffffffffffffff8216600090815260016020526040902054811115610f15576040517f08c379a000000000000000000000000000000000000000000000000000000000815260040161044a9061150d565b73ffffffffffffffffffffffffffffffffffffffff8216600090815260016020526040902054610f46908290611619565b73ffffffffffffffffffffffffffffffffffffffff831660009081526001602052604081209190915554610f7b908290611619565b600090815560405173ffffffffffffffffffffffffffffffffffffffff8416907fddf252ad1be2c89b69c2b068fc378daa952ba7f163c4a11628f55a4df523b3ef90610eaa908590611332565b600080610fda64174876e800846116b7565b90508015801590610fed57506298968081105b1561100b5780610ffe6064856115dc565b61100891906115c8565b91505b50919050565b73ffffffffffffffffffffffffffffffffffffffff8316600090815260016020526040812054821115611070576040517f08c379a000000000000000000000000000000000000000000000000000000000815260040161044a9061150d565b73ffffffffffffffffffffffffffffffffffffffff84166000908152600160205260409020546110a1908390611619565b73ffffffffffffffffffffffffffffffffffffffff80861660009081526001602052604080822093909355908516815220546110de9083906115b0565b73ffffffffffffffffffffffffffffffffffffffff80851660008181526001602052604090819020939093559151908616907fddf252ad1be2c89b69c2b068fc378daa952ba7f163c4a11628f55a4df523b3ef90610c14908690611332565b803573ffffffffffffffffffffffffffffffffffffffff811681146105bf57600080fd5b600060208284031215611172578081fd5b61039d8261113d565b6000806040838503121561118d578081fd5b6111968361113d565b91506111a46020840161113d565b90509250929050565b6000806000606084860312156111c1578081fd5b6111ca8461113d565b92506111d86020850161113d565b9150604084013590509250925092565b600080600080600080600060e0888a031215611202578283fd5b61120b8861113d565b96506112196020890161113d565b95506040880135945060608801359350608088013560ff8116811461123c578384fd5b9699959850939692959460a0840135945060c09093013592915050565b6000806040838503121561126b578182fd5b6112748361113d565b946020939093013593505050565b600060208284031215611293578081fd5b5051919050565b7f190100000000000000000000000000000000000000000000000000000000000081526002810192909252602282015260420190565b73ffffffffffffffffffffffffffffffffffffffff91909116815260200190565b73ffffffffffffffffffffffffffffffffffffffff94851681529290931660208301526040820152606081019190915260800190565b901515815260200190565b90815260200190565b95865273ffffffffffffffffffffffffffffffffffffffff94851660208701529290931660408501526060840152608083019190915260a082015260c00190565b93845260ff9290921660208401526040830152606082015260800190565b6000602080835283518082850152825b818110156113c6578581018301518582016040015282016113aa565b818111156113d75783604083870101525b50601f017fffffffffffffffffffffffffffffffffffffffffffffffffffffffffffffffe016929092016040019392505050565b60208082526026908201527f4f776e61626c653a206e6577206f776e657220697320746865207a65726f206160408201527f6464726573730000000000000000000000000000000000000000000000000000606082015260800190565b6020808252601d908201527f45524332305065726d69743a206578706972656420646561646c696e65000000604082015260600190565b6020808252601c908201527f45524332303a20496e73756666696369656e7420617070726f76616c00000000604082015260600190565b60208082526010908201527f546172676574206f70746564206f757400000000000000000000000000000000604082015260600190565b6020808252601b908201527f45524332303a20496e73756666696369656e742062616c616e63650000000000604082015260600190565b6020808252601e908201527f45524332305065726d69743a20696e76616c6964207369676e61747572650000604082015260600190565b6020808252818101527f4f776e61626c653a2063616c6c6572206973206e6f7420746865206f776e6572604082015260600190565b600082198211156115c3576115c36116cb565b500190565b6000826115d7576115d76116fa565b500490565b6000817fffffffffffffffffffffffffffffffffffffffffffffffffffffffffffffffff0483118215151615611614576116146116cb565b500290565b60008282101561162b5761162b6116cb565b500390565b60028104600182168061164457607f821691505b6020821081141561100b577f4e487b7100000000000000000000000000000000000000000000000000000000600052602260045260246000fd5b60007fffffffffffffffffffffffffffffffffffffffffffffffffffffffffffffffff8214156116b0576116b06116cb565b5060010190565b6000826116c6576116c66116fa565b500690565b7f4e487b7100000000000000000000000000000000000000000000000000000000600052601160045260246000fd5b7f4e487b7100000000000000000000000000000000000000000000000000000000600052601260045260246000fdfea2646970667358221220fe91b8adac80bf0713b62f73285f528dae0bf067a5214be0e1ded06188f9273564736f6c63430008000033"
}